{
  "contractName": "CertificadoNacimiento",
  "abi": [
    {
      "inputs": [],
      "payable": false,
      "stateMutability": "nonpayable",
      "type": "constructor"
    },
    {
      "anonymous": false,
      "inputs": [
        {
          "indexed": true,
          "internalType": "address",
          "name": "previousOwner",
          "type": "address"
        },
        {
          "indexed": true,
          "internalType": "address",
          "name": "newOwner",
          "type": "address"
        }
      ],
      "name": "OwnershipTransferred",
      "type": "event"
    },
    {
      "anonymous": false,
      "inputs": [
        {
          "indexed": false,
          "internalType": "uint256",
          "name": "certificadoId",
          "type": "uint256"
        },
        {
          "indexed": false,
          "internalType": "string",
          "name": "nombre",
          "type": "string"
        },
        {
          "indexed": false,
          "internalType": "address",
          "name": "notario",
          "type": "address"
        }
      ],
      "name": "newCertificado",
      "type": "event"
    },
    {
      "constant": true,
      "inputs": [
        {
          "internalType": "uint256",
          "name": "",
          "type": "uint256"
        }
      ],
      "name": "certifcadoToOwner",
      "outputs": [
        {
          "internalType": "address",
          "name": "",
          "type": "address"
        }
      ],
      "payable": false,
      "stateMutability": "view",
      "type": "function"
    },
    {
      "constant": true,
      "inputs": [
        {
          "internalType": "uint256",
          "name": "",
          "type": "uint256"
        }
      ],
      "name": "certificados",
      "outputs": [
        {
          "internalType": "string",
          "name": "departamento",
          "type": "string"
        },
        {
          "internalType": "uint256",
          "name": "fecha",
          "type": "uint256"
        },
        {
          "internalType": "string",
          "name": "nombre",
          "type": "string"
        },
        {
          "internalType": "string",
          "name": "departamento_nacimiento",
          "type": "string"
        },
        {
          "internalType": "uint256",
          "name": "fecha_naciminto",
          "type": "uint256"
        },
        {
          "internalType": "bool",
          "name": "sexo",
          "type": "bool"
        },
        {
          "internalType": "string",
          "name": "nombre_padre",
          "type": "string"
        },
        {
          "internalType": "string",
          "name": "nombre_madre",
          "type": "string"
        },
        {
          "internalType": "bool",
          "name": "active",
          "type": "bool"
        }
      ],
      "payable": false,
      "stateMutability": "view",
      "type": "function"
    },
    {
      "constant": true,
      "inputs": [
        {
          "internalType": "uint256",
          "name": "",
          "type": "uint256"
        }
      ],
      "name": "certifiedCreator",
      "outputs": [
        {
          "internalType": "address",
          "name": "",
          "type": "address"
        }
      ],
      "payable": false,
      "stateMutability": "view",
      "type": "function"
    },
    {
      "constant": true,
      "inputs": [
        {
          "internalType": "uint256",
          "name": "",
          "type": "uint256"
        }
      ],
      "name": "complementos",
      "outputs": [
        {
          "internalType": "uint256",
          "name": "oficialia",
          "type": "uint256"
        },
        {
          "internalType": "string",
          "name": "libro",
          "type": "string"
        },
        {
          "internalType": "uint256",
          "name": "partida",
          "type": "uint256"
        },
        {
          "internalType": "uint256",
          "name": "folio",
          "type": "uint256"
        },
        {
          "internalType": "string",
          "name": "serie",
          "type": "string"
        },
        {
          "internalType": "string",
          "name": "nota_aclaratoria",
          "type": "string"
        }
      ],
      "payable": false,
      "stateMutability": "view",
      "type": "function"
    },
    {
      "constant": true,
      "inputs": [],
      "name": "countCert",
      "outputs": [
        {
          "internalType": "uint256",
          "name": "",
          "type": "uint256"
        }
      ],
      "payable": false,
      "stateMutability": "view",
      "type": "function"
    },
    {
      "constant": true,
      "inputs": [
        {
          "internalType": "address",
          "name": "",
          "type": "address"
        }
      ],
      "name": "institutos",
      "outputs": [
        {
          "internalType": "address",
          "name": "direccion",
          "type": "address"
        },
        {
          "internalType": "string",
          "name": "nombre",
          "type": "string"
        },
        {
          "internalType": "string",
          "name": "telefono",
          "type": "string"
        },
        {
          "internalType": "string",
          "name": "email",
          "type": "string"
        },
        {
          "internalType": "bool",
          "name": "verified",
          "type": "bool"
        },
        {
          "internalType": "uint256",
          "name": "listSizeCertificados",
          "type": "uint256"
        }
      ],
      "payable": false,
      "stateMutability": "view",
      "type": "function"
    },
    {
      "constant": true,
      "inputs": [],
      "name": "owner",
      "outputs": [
        {
          "internalType": "address",
          "name": "",
          "type": "address"
        }
      ],
      "payable": false,
      "stateMutability": "view",
      "type": "function"
    },
    {
      "constant": false,
      "inputs": [
        {
          "internalType": "address",
          "name": "newOwner",
          "type": "address"
        }
      ],
      "name": "transferOwnership",
      "outputs": [],
      "payable": false,
      "stateMutability": "nonpayable",
      "type": "function"
    },
    {
      "constant": true,
      "inputs": [
        {
          "internalType": "address",
          "name": "",
          "type": "address"
        }
      ],
      "name": "usuarios",
      "outputs": [
        {
          "internalType": "string",
          "name": "nombre",
          "type": "string"
        },
        {
          "internalType": "address",
          "name": "direccion",
          "type": "address"
        },
        {
          "internalType": "string",
          "name": "role",
          "type": "string"
        },
        {
          "internalType": "string",
          "name": "email",
          "type": "string"
        },
        {
          "internalType": "uint32",
          "name": "listSizeInstituciones",
          "type": "uint32"
        }
      ],
      "payable": false,
      "stateMutability": "view",
      "type": "function"
    },
    {
      "constant": false,
      "inputs": [
        {
          "internalType": "string",
          "name": "_nombre",
          "type": "string"
        },
        {
          "internalType": "string",
          "name": "_email",
          "type": "string"
        }
      ],
      "name": "createUser",
      "outputs": [],
      "payable": false,
      "stateMutability": "nonpayable",
      "type": "function"
    },
    {
      "constant": false,
      "inputs": [
        {
          "internalType": "string",
          "name": "_nombre",
          "type": "string"
        },
        {
          "internalType": "string",
          "name": "_telefono",
          "type": "string"
        },
        {
          "internalType": "string",
          "name": "_email",
          "type": "string"
        }
      ],
      "name": "crearInstituto",
      "outputs": [],
      "payable": false,
      "stateMutability": "nonpayable",
      "type": "function"
    },
    {
      "constant": false,
      "inputs": [
        {
          "internalType": "string",
          "name": "_departamento",
          "type": "string"
        },
        {
          "internalType": "uint256",
          "name": "_fecha",
          "type": "uint256"
        },
        {
          "internalType": "string",
          "name": "_nombre",
          "type": "string"
        },
        {
          "internalType": "string",
          "name": "_departamento_nacimiento",
          "type": "string"
        },
        {
          "internalType": "uint256",
          "name": "_fecha_nacimiento",
          "type": "uint256"
        },
        {
          "internalType": "bool",
          "name": "_sexo",
          "type": "bool"
        },
        {
          "internalType": "string",
          "name": "_nombre_padre",
          "type": "string"
        },
        {
          "internalType": "string",
          "name": "_nombre_madre",
          "type": "string"
        }
      ],
      "name": "createCertificado",
      "outputs": [],
      "payable": false,
      "stateMutability": "nonpayable",
      "type": "function"
    },
    {
      "constant": false,
      "inputs": [
        {
          "internalType": "uint256",
          "name": "_oficialia",
          "type": "uint256"
        },
        {
          "internalType": "string",
          "name": "_libro",
          "type": "string"
        },
        {
          "internalType": "uint256",
          "name": "_partida",
          "type": "uint256"
        },
        {
          "internalType": "uint256",
          "name": "_folio",
          "type": "uint256"
        },
        {
          "internalType": "string",
          "name": "_serie",
          "type": "string"
        },
        {
          "internalType": "string",
          "name": "_nota_aclaratoria",
          "type": "string"
        },
        {
          "internalType": "uint256",
          "name": "_certificadoId",
          "type": "uint256"
        }
      ],
      "name": "crearComplemento",
      "outputs": [],
      "payable": false,
      "stateMutability": "nonpayable",
      "type": "function"
    },
    {
      "constant": false,
      "inputs": [
        {
          "internalType": "string",
          "name": "_nombre",
          "type": "string"
        },
        {
          "internalType": "string",
          "name": "_email",
          "type": "string"
        }
      ],
      "name": "setUser",
      "outputs": [],
      "payable": false,
      "stateMutability": "nonpayable",
      "type": "function"
    },
    {
      "constant": false,
      "inputs": [
        {
          "internalType": "string",
          "name": "_nombre",
          "type": "string"
        },
        {
          "internalType": "string",
          "name": "_telefono",
          "type": "string"
        },
        {
          "internalType": "string",
          "name": "_email",
          "type": "string"
        }
      ],
      "name": "setInstitucion",
      "outputs": [],
      "payable": false,
      "stateMutability": "nonpayable",
      "type": "function"
    },
    {
      "constant": false,
      "inputs": [
        {
          "internalType": "address",
          "name": "_direccion",
          "type": "address"
        }
      ],
      "name": "roleNotario",
      "outputs": [],
      "payable": false,
      "stateMutability": "nonpayable",
      "type": "function"
    },
    {
      "constant": false,
      "inputs": [
        {
          "internalType": "address",
          "name": "_direccion",
          "type": "address"
        },
        {
          "internalType": "bool",
          "name": "valor",
          "type": "bool"
        }
      ],
      "name": "setValidarInstitucion",
      "outputs": [],
      "payable": false,
      "stateMutability": "nonpayable",
      "type": "function"
    },
    {
      "constant": false,
      "inputs": [
        {
          "internalType": "uint256",
          "name": "_certificadoId",
          "type": "uint256"
        },
        {
          "internalType": "bool",
          "name": "_active",
          "type": "bool"
        }
      ],
      "name": "setActive",
      "outputs": [],
      "payable": false,
      "stateMutability": "nonpayable",
      "type": "function"
    },
    {
      "constant": true,
      "inputs": [
        {
          "internalType": "address",
          "name": "_owner",
          "type": "address"
        }
      ],
      "name": "getCertificadoByOwner",
      "outputs": [
        {
          "internalType": "uint256",
          "name": "",
          "type": "uint256"
        },
        {
          "internalType": "bool",
          "name": "",
          "type": "bool"
        }
      ],
      "payable": false,
      "stateMutability": "view",
      "type": "function"
    },
    {
      "constant": false,
      "inputs": [
        {
          "internalType": "address",
          "name": "_newOwner",
          "type": "address"
        },
        {
          "internalType": "uint256",
          "name": "_certificadoId",
          "type": "uint256"
        }
      ],
      "name": "transferCertificado",
      "outputs": [],
      "payable": false,
      "stateMutability": "nonpayable",
      "type": "function"
    },
    {
      "constant": false,
      "inputs": [
        {
          "internalType": "uint256",
          "name": "_certificadoId",
          "type": "uint256"
        },
        {
          "internalType": "address",
          "name": "_institucion",
          "type": "address"
        }
      ],
      "name": "compartirCertificado",
      "outputs": [],
      "payable": false,
      "stateMutability": "nonpayable",
      "type": "function"
    },
    {
      "constant": false,
      "inputs": [
        {
          "internalType": "uint256",
          "name": "_certificadoId",
          "type": "uint256"
        },
        {
          "internalType": "address",
          "name": "_institucion",
          "type": "address"
        }
      ],
      "name": "desCompartirCertificado",
      "outputs": [],
      "payable": false,
      "stateMutability": "nonpayable",
      "type": "function"
    },
    {
      "constant": true,
      "inputs": [
        {
          "internalType": "uint256",
          "name": "_certificadoId",
          "type": "uint256"
        }
      ],
      "name": "listarInstituciones",
      "outputs": [
        {
          "internalType": "address[]",
          "name": "",
          "type": "address[]"
        }
      ],
      "payable": false,
      "stateMutability": "view",
      "type": "function"
    },
    {
      "constant": true,
      "inputs": [
        {
          "internalType": "address",
          "name": "_addressInstituto",
          "type": "address"
        }
      ],
      "name": "listarCertitificados",
      "outputs": [
        {
          "internalType": "uint256[]",
          "name": "",
          "type": "uint256[]"
        }
      ],
      "payable": false,
      "stateMutability": "view",
      "type": "function"
    }
  ],
  "bytecode": "0x60806040523480156200001157600080fd5b50336000806101000a81548173ffffffffffffffffffffffffffffffffffffffff021916908373ffffffffffffffffffffffffffffffffffffffff1602179055506200005c62000184565b600181908060018154018082558091505090600182039060005260206000209060090201600090919290919091506000820151816000019080519060200190620000a8929190620001d4565b50602082015181600101556040820151816002019080519060200190620000d1929190620001d4565b506060820151816003019080519060200190620000f0929190620001d4565b506080820151816004015560a08201518160050160006101000a81548160ff02191690831515021790555060c082015181600601908051906020019062000139929190620001d4565b5060e082015181600701908051906020019062000158929190620001d4565b506101008201518160080160006101000a81548160ff0219169083151502179055505050505062000283565b604051806101200160405280606081526020016000815260200160608152602001606081526020016000815260200160001515815260200160608152602001606081526020016000151581525090565b828054600181600116156101000203166002900490600052602060002090601f016020900481019282601f106200021757805160ff191683800117855562000248565b8280016001018555821562000248579182015b82811115620002475782518255916020019190600101906200022a565b5b5090506200025791906200025b565b5090565b6200028091905b808211156200027c57600081600090555060010162000262565b5090565b90565b615f8f80620002936000396000f3fe608060405234801561001057600080fd5b50600436106101585760003560e01c80638c52b33b116100c3578063e590488d1161007c578063e590488d14611326578063e60a955d1461150f578063f2fde38b14611549578063f6b91ea91461158d578063f8c8037714611768578063ff764a5f146117b657610158565b80638c52b33b14610d315780638da5cb5b14610d7f5780638e59bb4814610dc9578063bd9e5ee814611044578063c6c045fa146110a7578063df44b0501461111557610158565b8063583e8c6311610115578063583e8c631461056d578063593b02ed146107475780635987645a146107e05780636db192d914610b185780637635077c14610b9b57806387b162b514610bdf57610158565b80630518d89c1461015d57806308aebdb9146101cb5780633b65e71e146101e9578063536775951461037d57806355ac3414146103cd5780635728b9731461041b575b600080fd5b6101896004803603602081101561017357600080fd5b810190808035906020019092919050505061199f565b604051808273ffffffffffffffffffffffffffffffffffffffff1673ffffffffffffffffffffffffffffffffffffffff16815260200191505060405180910390f35b6101d36119d2565b6040518082815260200191505060405180910390f35b610215600480360360208110156101ff57600080fd5b81019080803590602001909291905050506119d8565b60405180878152602001806020018681526020018581526020018060200180602001848103845289818151815260200191508051906020019080838360005b8381101561026f578082015181840152602081019050610254565b50505050905090810190601f16801561029c5780820380516001836020036101000a031916815260200191505b50848103835286818151815260200191508051906020019080838360005b838110156102d55780820151818401526020810190506102ba565b50505050905090810190601f1680156103025780820380516001836020036101000a031916815260200191505b50848103825285818151815260200191508051906020019080838360005b8381101561033b578082015181840152602081019050610320565b50505050905090810190601f1680156103685780820380516001836020036101000a031916815260200191505b50995050505050505050505060405180910390f35b6103cb6004803603604081101561039357600080fd5b81019080803573ffffffffffffffffffffffffffffffffffffffff169060200190929190803515159060200190929190505050611bdc565b005b610419600480360360408110156103e357600080fd5b81019080803573ffffffffffffffffffffffffffffffffffffffff16906020019092919080359060200190929190505050611e31565b005b61056b6004803603604081101561043157600080fd5b810190808035906020019064010000000081111561044e57600080fd5b82018360208201111561046057600080fd5b8035906020019184600183028401116401000000008311171561048257600080fd5b91908080601f016020809104026020016040519081016040528093929190818152602001838380828437600081840152601f19601f820116905080830192505050505050509192919290803590602001906401000000008111156104e557600080fd5b8201836020820111156104f757600080fd5b8035906020019184600183028401116401000000008311171561051957600080fd5b91908080601f016020809104026020016040519081016040528093929190818152602001838380828437600081840152601f19601f820116905080830192505050505050509192919290505050612158565b005b6105af6004803603602081101561058357600080fd5b81019080803573ffffffffffffffffffffffffffffffffffffffff1690602001909291905050506122ba565b604051808773ffffffffffffffffffffffffffffffffffffffff1673ffffffffffffffffffffffffffffffffffffffff16815260200180602001806020018060200186151515158152602001858152602001848103845289818151815260200191508051906020019080838360005b8381101561063957808201518184015260208101905061061e565b50505050905090810190601f1680156106665780820380516001836020036101000a031916815260200191505b50848103835288818151815260200191508051906020019080838360005b8381101561069f578082015181840152602081019050610684565b50505050905090810190601f1680156106cc5780820380516001836020036101000a031916815260200191505b50848103825287818151815260200191508051906020019080838360005b838110156107055780820151818401526020810190506106ea565b50505050905090810190601f1680156107325780820380516001836020036101000a031916815260200191505b50995050505050505050505060405180910390f35b6107896004803603602081101561075d57600080fd5b81019080803573ffffffffffffffffffffffffffffffffffffffff1690602001909291905050506124eb565b6040518080602001828103825283818151815260200191508051906020019060200280838360005b838110156107cc5780820151818401526020810190506107b1565b505050509050019250505060405180910390f35b610b1660048036036101008110156107f757600080fd5b810190808035906020019064010000000081111561081457600080fd5b82018360208201111561082657600080fd5b8035906020019184600183028401116401000000008311171561084857600080fd5b91908080601f016020809104026020016040519081016040528093929190818152602001838380828437600081840152601f19601f82011690508083019250505050505050919291929080359060200190929190803590602001906401000000008111156108b557600080fd5b8201836020820111156108c757600080fd5b803590602001918460018302840111640100000000831117156108e957600080fd5b91908080601f016020809104026020016040519081016040528093929190818152602001838380828437600081840152601f19601f8201169050808301925050505050505091929192908035906020019064010000000081111561094c57600080fd5b82018360208201111561095e57600080fd5b8035906020019184600183028401116401000000008311171561098057600080fd5b91908080601f016020809104026020016040519081016040528093929190818152602001838380828437600081840152601f19601f82011690508083019250505050505050919291929080359060200190929190803515159060200190929190803590602001906401000000008111156109f957600080fd5b820183602082011115610a0b57600080fd5b80359060200191846001830284011164010000000083111715610a2d57600080fd5b91908080601f016020809104026020016040519081016040528093929190818152602001838380828437600081840152601f19601f82011690508083019250505050505050919291929080359060200190640100000000811115610a9057600080fd5b820183602082011115610aa257600080fd5b80359060200191846001830284011164010000000083111715610ac457600080fd5b91908080601f016020809104026020016040519081016040528093929190818152602001838380828437600081840152601f19601f82011690508083019250505050505050919291929050505061296e565b005b610b4460048036036020811015610b2e57600080fd5b8101908080359060200190929190505050612f15565b6040518080602001828103825283818151815260200191508051906020019060200280838360005b83811015610b87578082015181840152602081019050610b6c565b505050509050019250505060405180910390f35b610bdd60048036036020811015610bb157600080fd5b81019080803573ffffffffffffffffffffffffffffffffffffffff1690602001909291905050506133a5565b005b610d2f60048036036040811015610bf557600080fd5b8101908080359060200190640100000000811115610c1257600080fd5b820183602082011115610c2457600080fd5b80359060200191846001830284011164010000000083111715610c4657600080fd5b91908080601f016020809104026020016040519081016040528093929190818152602001838380828437600081840152601f19601f82011690508083019250505050505050919291929080359060200190640100000000811115610ca957600080fd5b820183602082011115610cbb57600080fd5b80359060200191846001830284011164010000000083111715610cdd57600080fd5b91908080601f016020809104026020016040519081016040528093929190818152602001838380828437600081840152601f19601f820116905080830192505050505050509192919290505050613493565b005b610d7d60048036036040811015610d4757600080fd5b8101908080359060200190929190803573ffffffffffffffffffffffffffffffffffffffff169060200190929190505050613732565b005b610d87613989565b604051808273ffffffffffffffffffffffffffffffffffffffff1673ffffffffffffffffffffffffffffffffffffffff16815260200191505060405180910390f35b610df560048036036020811015610ddf57600080fd5b81019080803590602001909291905050506139ae565b60405180806020018a815260200180602001806020018981526020018815151515815260200180602001806020018715151515815260200186810386528f818151815260200191508051906020019080838360005b83811015610e65578082015181840152602081019050610e4a565b50505050905090810190601f168015610e925780820380516001836020036101000a031916815260200191505b5086810385528d818151815260200191508051906020019080838360005b83811015610ecb578082015181840152602081019050610eb0565b50505050905090810190601f168015610ef85780820380516001836020036101000a031916815260200191505b5086810384528c818151815260200191508051906020019080838360005b83811015610f31578082015181840152602081019050610f16565b50505050905090810190601f168015610f5e5780820380516001836020036101000a031916815260200191505b50868103835289818151815260200191508051906020019080838360005b83811015610f97578082015181840152602081019050610f7c565b50505050905090810190601f168015610fc45780820380516001836020036101000a031916815260200191505b50868103825288818151815260200191508051906020019080838360005b83811015610ffd578082015181840152602081019050610fe2565b50505050905090810190601f16801561102a5780820380516001836020036101000a031916815260200191505b509e50505050505050505050505050505060405180910390f35b6110866004803603602081101561105a57600080fd5b81019080803573ffffffffffffffffffffffffffffffffffffffff169060200190929190505050613d1b565b60405180838152602001821515151581526020019250505060405180910390f35b6110d3600480360360208110156110bd57600080fd5b8101908080359060200190929190505050613dc5565b604051808273ffffffffffffffffffffffffffffffffffffffff1673ffffffffffffffffffffffffffffffffffffffff16815260200191505060405180910390f35b611324600480360360e081101561112b57600080fd5b81019080803590602001909291908035906020019064010000000081111561115257600080fd5b82018360208201111561116457600080fd5b8035906020019184600183028401116401000000008311171561118657600080fd5b91908080601f016020809104026020016040519081016040528093929190818152602001838380828437600081840152601f19601f8201169050808301925050505050505091929192908035906020019092919080359060200190929190803590602001906401000000008111156111fd57600080fd5b82018360208201111561120f57600080fd5b8035906020019184600183028401116401000000008311171561123157600080fd5b91908080601f016020809104026020016040519081016040528093929190818152602001838380828437600081840152601f19601f8201169050808301925050505050505091929192908035906020019064010000000081111561129457600080fd5b8201836020820111156112a657600080fd5b803590602001918460018302840111640100000000831117156112c857600080fd5b91908080601f016020809104026020016040519081016040528093929190818152602001838380828437600081840152601f19601f82011690508083019250505050505050919291929080359060200190929190505050613df8565b005b61150d6004803603606081101561133c57600080fd5b810190808035906020019064010000000081111561135957600080fd5b82018360208201111561136b57600080fd5b8035906020019184600183028401116401000000008311171561138d57600080fd5b91908080601f016020809104026020016040519081016040528093929190818152602001838380828437600081840152601f19601f820116905080830192505050505050509192919290803590602001906401000000008111156113f057600080fd5b82018360208201111561140257600080fd5b8035906020019184600183028401116401000000008311171561142457600080fd5b91908080601f016020809104026020016040519081016040528093929190818152602001838380828437600081840152601f19601f8201169050808301925050505050505091929192908035906020019064010000000081111561148757600080fd5b82018360208201111561149957600080fd5b803590602001918460018302840111640100000000831117156114bb57600080fd5b91908080601f016020809104026020016040519081016040528093929190818152602001838380828437600081840152601f19601f8201169050808301925050505050505091929192905050506140c0565b005b6115476004803603604081101561152557600080fd5b81019080803590602001909291908035151590602001909291905050506144d5565b005b61158b6004803603602081101561155f57600080fd5b81019080803573ffffffffffffffffffffffffffffffffffffffff169060200190929190505050614706565b005b6115cf600480360360208110156115a357600080fd5b81019080803573ffffffffffffffffffffffffffffffffffffffff169060200190929190505050614857565b60405180806020018673ffffffffffffffffffffffffffffffffffffffff1673ffffffffffffffffffffffffffffffffffffffff16815260200180602001806020018563ffffffff1663ffffffff168152602001848103845289818151815260200191508051906020019080838360005b8381101561165b578082015181840152602081019050611640565b50505050905090810190601f1680156116885780820380516001836020036101000a031916815260200191505b50848103835287818151815260200191508051906020019080838360005b838110156116c15780820151818401526020810190506116a6565b50505050905090810190601f1680156116ee5780820380516001836020036101000a031916815260200191505b50848103825286818151815260200191508051906020019080838360005b8381101561172757808201518184015260208101905061170c565b50505050905090810190601f1680156117545780820380516001836020036101000a031916815260200191505b509850505050505050505060405180910390f35b6117b46004803603604081101561177e57600080fd5b8101908080359060200190929190803573ffffffffffffffffffffffffffffffffffffffff169060200190929190505050614a85565b005b61199d600480360360608110156117cc57600080fd5b81019080803590602001906401000000008111156117e957600080fd5b8201836020820111156117fb57600080fd5b8035906020019184600183028401116401000000008311171561181d57600080fd5b91908080601f016020809104026020016040519081016040528093929190818152602001838380828437600081840152601f19601f8201169050808301925050505050505091929192908035906020019064010000000081111561188057600080fd5b82018360208201111561189257600080fd5b803590602001918460018302840111640100000000831117156118b457600080fd5b91908080601f016020809104026020016040519081016040528093929190818152602001838380828437600081840152601f19601f8201169050808301925050505050505091929192908035906020019064010000000081111561191757600080fd5b82018360208201111561192957600080fd5b8035906020019184600183028401116401000000008311171561194b57600080fd5b91908080601f016020809104026020016040519081016040528093929190818152602001838380828437600081840152601f19601f820116905080830192505050505050509192919290505050614ad6565b005b60076020528060005260406000206000915054906101000a900473ffffffffffffffffffffffffffffffffffffffff1681565b60025481565b6003602052806000526040600020600091509050806000015490806001018054600181600116156101000203166002900480601f016020809104026020016040519081016040528092919081815260200182805460018160011615610100020316600290048015611a8a5780601f10611a5f57610100808354040283529160200191611a8a565b820191906000526020600020905b815481529060010190602001808311611a6d57829003601f168201915b505050505090806002015490806003015490806004018054600181600116156101000203166002900480601f016020809104026020016040519081016040528092919081815260200182805460018160011615610100020316600290048015611b345780601f10611b0957610100808354040283529160200191611b34565b820191906000526020600020905b815481529060010190602001808311611b1757829003601f168201915b505050505090806005018054600181600116156101000203166002900480601f016020809104026020016040519081016040528092919081815260200182805460018160011615610100020316600290048015611bd25780601f10611ba757610100808354040283529160200191611bd2565b820191906000526020600020905b815481529060010190602001808311611bb557829003601f168201915b5050505050905086565b336060600460008373ffffffffffffffffffffffffffffffffffffffff1673ffffffffffffffffffffffffffffffffffffffff1681526020019081526020016000206002018054600181600116156101000203166002900480601f016020809104026020016040519081016040528092919081815260200182805460018160011615610100020316600290048015611cb55780601f10611c8a57610100808354040283529160200191611cb5565b820191906000526020600020905b815481529060010190602001808311611c9857829003601f168201915b5050505050905060405160200180807f6e6f746172696f00000000000000000000000000000000000000000000000000815250600701905060405160208183030381529060405280519060200120816040516020018082805190602001908083835b60208310611d3a5780518252602082019150602081019050602083039250611d17565b6001836020036101000a0380198251168184511680821785525050505050509050019150506040516020818303038152906040528051906020012014611dcb576040517f08c379a0000000000000000000000000000000000000000000000000000000008152600401808060200182810382526026815260200180615e3d6026913960400191505060405180910390fd5b6000600560008673ffffffffffffffffffffffffffffffffffffffff1673ffffffffffffffffffffffffffffffffffffffff1681526020019081526020016000209050838160040160006101000a81548160ff0219169083151502179055505050505050565b336060600460008373ffffffffffffffffffffffffffffffffffffffff1673ffffffffffffffffffffffffffffffffffffffff1681526020019081526020016000206002018054600181600116156101000203166002900480601f016020809104026020016040519081016040528092919081815260200182805460018160011615610100020316600290048015611f0a5780601f10611edf57610100808354040283529160200191611f0a565b820191906000526020600020905b815481529060010190602001808311611eed57829003601f168201915b5050505050905060405160200180807f6e6f746172696f00000000000000000000000000000000000000000000000000815250600701905060405160208183030381529060405280519060200120816040516020018082805190602001908083835b60208310611f8f5780518252602082019150602081019050602083039250611f6c565b6001836020036101000a0380198251168184511680821785525050505050509050019150506040516020818303038152906040528051906020012014612020576040517f08c379a0000000000000000000000000000000000000000000000000000000008152600401808060200182810382526026815260200180615e3d6026913960400191505060405180910390fd5b600073ffffffffffffffffffffffffffffffffffffffff168473ffffffffffffffffffffffffffffffffffffffff1614156120c3576040517f08c379a000000000000000000000000000000000000000000000000000000000815260040180806020018281038252601d8152602001807f4c61206e7565766120646972656363696f6e2065732076c3a16c69646100000081525060200191505060405180910390fd5b6000600184815481106120d257fe5b9060005260206000209060090201905060018160080160006101000a81548160ff021916908315150217905550846006600086815260200190815260200160002060006101000a81548173ffffffffffffffffffffffffffffffffffffffff021916908373ffffffffffffffffffffffffffffffffffffffff1602179055505050505050565b338073ffffffffffffffffffffffffffffffffffffffff16600460008373ffffffffffffffffffffffffffffffffffffffff1673ffffffffffffffffffffffffffffffffffffffff16815260200190815260200160002060010160009054906101000a900473ffffffffffffffffffffffffffffffffffffffff1673ffffffffffffffffffffffffffffffffffffffff161461223f576040517f08c379a0000000000000000000000000000000000000000000000000000000008152600401808060200182810382526026815260200180615ed96026913960400191505060405180910390fd5b6000600460003373ffffffffffffffffffffffffffffffffffffffff1673ffffffffffffffffffffffffffffffffffffffff16815260200190815260200160002090508381600001908051906020019061229a929190615bf8565b50828160030190805190602001906122b3929190615bf8565b5050505050565b60056020528060005260406000206000915090508060000160009054906101000a900473ffffffffffffffffffffffffffffffffffffffff1690806001018054600181600116156101000203166002900480601f01602080910402602001604051908101604052809291908181526020018280546001816001161561010002031660029004801561238c5780601f106123615761010080835404028352916020019161238c565b820191906000526020600020905b81548152906001019060200180831161236f57829003601f168201915b505050505090806002018054600181600116156101000203166002900480601f01602080910402602001604051908101604052809291908181526020018280546001816001161561010002031660029004801561242a5780601f106123ff5761010080835404028352916020019161242a565b820191906000526020600020905b81548152906001019060200180831161240d57829003601f168201915b505050505090806003018054600181600116156101000203166002900480601f0160208091040260200160405190810160405280929190818152602001828054600181600116156101000203166002900480156124c85780601f1061249d576101008083540402835291602001916124c8565b820191906000526020600020905b8154815290600101906020018083116124ab57829003601f168201915b5050505050908060040160009054906101000a900460ff16908060050154905086565b60606124f5615c78565b600560008473ffffffffffffffffffffffffffffffffffffffff1673ffffffffffffffffffffffffffffffffffffffff1681526020019081526020016000206040518060c00160405290816000820160009054906101000a900473ffffffffffffffffffffffffffffffffffffffff1673ffffffffffffffffffffffffffffffffffffffff1673ffffffffffffffffffffffffffffffffffffffff168152602001600182018054600181600116156101000203166002900480601f01602080910402602001604051908101604052809291908181526020018280546001816001161561010002031660029004801561262e5780601f106126035761010080835404028352916020019161262e565b820191906000526020600020905b81548152906001019060200180831161261157829003601f168201915b50505050508152602001600282018054600181600116156101000203166002900480601f0160208091040260200160405190810160405280929190818152602001828054600181600116156101000203166002900480156126d05780601f106126a5576101008083540402835291602001916126d0565b820191906000526020600020905b8154815290600101906020018083116126b357829003601f168201915b50505050508152602001600382018054600181600116156101000203166002900480601f0160208091040260200160405190810160405280929190818152602001828054600181600116156101000203166002900480156127725780601f1061274757610100808354040283529160200191612772565b820191906000526020600020905b81548152906001019060200180831161275557829003601f168201915b505050505081526020016004820160009054906101000a900460ff16151515158152602001600582015481525050905060608160a001516040519080825280602002602001820160405280156127d75781602001602082028038833980820191505090505b5090506000600960008673ffffffffffffffffffffffffffffffffffffffff1673ffffffffffffffffffffffffffffffffffffffff1681526020019081526020016000206000600173ffffffffffffffffffffffffffffffffffffffff1673ffffffffffffffffffffffffffffffffffffffff16815260200190815260200160002060009054906101000a900473ffffffffffffffffffffffffffffffffffffffff16905060008090505b8360a0015181101561296257600061289983613d1b565b509050808483815181106128a957fe5b602002602001018181525050600960008873ffffffffffffffffffffffffffffffffffffffff1673ffffffffffffffffffffffffffffffffffffffff16815260200190815260200160002060008473ffffffffffffffffffffffffffffffffffffffff1673ffffffffffffffffffffffffffffffffffffffff16815260200190815260200160002060009054906101000a900473ffffffffffffffffffffffffffffffffffffffff169250508080600101915050612882565b50819350505050919050565b336060600460008373ffffffffffffffffffffffffffffffffffffffff1673ffffffffffffffffffffffffffffffffffffffff1681526020019081526020016000206002018054600181600116156101000203166002900480601f016020809104026020016040519081016040528092919081815260200182805460018160011615610100020316600290048015612a475780601f10612a1c57610100808354040283529160200191612a47565b820191906000526020600020905b815481529060010190602001808311612a2a57829003601f168201915b5050505050905060405160200180807f6e6f746172696f00000000000000000000000000000000000000000000000000815250600701905060405160208183030381529060405280519060200120816040516020018082805190602001908083835b60208310612acc5780518252602082019150602081019050602083039250612aa9565b6001836020036101000a0380198251168184511680821785525050505050509050019150506040516020818303038152906040528051906020012014612b5d576040517f08c379a0000000000000000000000000000000000000000000000000000000008152600401808060200182810382526026815260200180615e3d6026913960400191505060405180910390fd5b612b65615cc6565b8a81600001819052508981602001818152505088816040018190525087816060018190525086816080018181525050858160a0019015159081151581525050848160c00181905250838160e00181905250600181908060018154018082558091505090600182039060005260206000209060090201600090919290919091506000820151816000019080519060200190612c00929190615d16565b50602082015181600101556040820151816002019080519060200190612c27929190615d16565b506060820151816003019080519060200190612c44929190615d16565b506080820151816004015560a08201518160050160006101000a81548160ff02191690831515021790555060c0820151816006019080519060200190612c8b929190615d16565b5060e0820151816007019080519060200190612ca8929190615d16565b506101008201518160080160006101000a81548160ff02191690831515021790555050505033600660006001808054905003815260200190815260200160002060006101000a81548173ffffffffffffffffffffffffffffffffffffffff021916908373ffffffffffffffffffffffffffffffffffffffff16021790555060026000815480929190600101919050555033600760006001808054905003815260200190815260200160002060006101000a81548173ffffffffffffffffffffffffffffffffffffffff021916908373ffffffffffffffffffffffffffffffffffffffff160217905550600160086000600180805490500381526020019081526020016000206000600173ffffffffffffffffffffffffffffffffffffffff1673ffffffffffffffffffffffffffffffffffffffff16815260200190815260200160002060006101000a81548173ffffffffffffffffffffffffffffffffffffffff021916908373ffffffffffffffffffffffffffffffffffffffff1602179055507f49246b4c08b747d84aa34aec42fe437cc97c681cc9d173f69100ec57e5fa703260018080549050038a3360405180848152602001806020018373ffffffffffffffffffffffffffffffffffffffff1673ffffffffffffffffffffffffffffffffffffffff168152602001828103825284818151815260200191508051906020019080838360005b83811015612ecc578082015181840152602081019050612eb1565b50505050905090810190601f168015612ef95780820380516001836020036101000a031916815260200191505b5094505050505060405180910390a15050505050505050505050565b606060006006600084815260200190815260200160002060009054906101000a900473ffffffffffffffffffffffffffffffffffffffff169050612f57615d96565b600460008373ffffffffffffffffffffffffffffffffffffffff1673ffffffffffffffffffffffffffffffffffffffff1681526020019081526020016000206040518060a0016040529081600082018054600181600116156101000203166002900480601f01602080910402602001604051908101604052809291908181526020018280546001816001161561010002031660029004801561303a5780601f1061300f5761010080835404028352916020019161303a565b820191906000526020600020905b81548152906001019060200180831161301d57829003601f168201915b505050505081526020016001820160009054906101000a900473ffffffffffffffffffffffffffffffffffffffff1673ffffffffffffffffffffffffffffffffffffffff1673ffffffffffffffffffffffffffffffffffffffff168152602001600282018054600181600116156101000203166002900480601f0160208091040260200160405190810160405280929190818152602001828054600181600116156101000203166002900480156131325780601f1061310757610100808354040283529160200191613132565b820191906000526020600020905b81548152906001019060200180831161311557829003601f168201915b50505050508152602001600382018054600181600116156101000203166002900480601f0160208091040260200160405190810160405280929190818152602001828054600181600116156101000203166002900480156131d45780601f106131a9576101008083540402835291602001916131d4565b820191906000526020600020905b8154815290600101906020018083116131b757829003601f168201915b505050505081526020016004820160009054906101000a900463ffffffff1663ffffffff1663ffffffff168152505090506060816080015163ffffffff166040519080825280602002602001820160405280156132405781602001602082028038833980820191505090505b5090506000600860008781526020019081526020016000206000600173ffffffffffffffffffffffffffffffffffffffff1673ffffffffffffffffffffffffffffffffffffffff16815260200190815260200160002060009054906101000a900473ffffffffffffffffffffffffffffffffffffffff16905060008090505b836080015163ffffffff1681101561339857818382815181106132de57fe5b602002602001019073ffffffffffffffffffffffffffffffffffffffff16908173ffffffffffffffffffffffffffffffffffffffff16815250506008600088815260200190815260200160002060008373ffffffffffffffffffffffffffffffffffffffff1673ffffffffffffffffffffffffffffffffffffffff16815260200190815260200160002060009054906101000a900473ffffffffffffffffffffffffffffffffffffffff16915080806001019150506132bf565b5081945050505050919050565b6000809054906101000a900473ffffffffffffffffffffffffffffffffffffffff1673ffffffffffffffffffffffffffffffffffffffff163373ffffffffffffffffffffffffffffffffffffffff16146133fe57600080fd5b6000600460008373ffffffffffffffffffffffffffffffffffffffff1673ffffffffffffffffffffffffffffffffffffffff16815260200190815260200160002090506040518060400160405280600781526020017f6e6f746172696f0000000000000000000000000000000000000000000000000081525081600201908051906020019061348e929190615bf8565b505050565b33600073ffffffffffffffffffffffffffffffffffffffff16600460008373ffffffffffffffffffffffffffffffffffffffff1673ffffffffffffffffffffffffffffffffffffffff16815260200190815260200160002060010160009054906101000a900473ffffffffffffffffffffffffffffffffffffffff1673ffffffffffffffffffffffffffffffffffffffff161461357b576040517f08c379a000000000000000000000000000000000000000000000000000000000815260040180806020018281038252602b815260200180615f30602b913960400191505060405180910390fd5b613583615d96565b8381600001819052506040518060400160405280600781526020017f7573756172696f00000000000000000000000000000000000000000000000000815250816040018190525033816020019073ffffffffffffffffffffffffffffffffffffffff16908173ffffffffffffffffffffffffffffffffffffffff16815250508281606001819052506000816080019063ffffffff16908163ffffffff168152505080600460003373ffffffffffffffffffffffffffffffffffffffff1673ffffffffffffffffffffffffffffffffffffffff1681526020019081526020016000206000820151816000019080519060200190613680929190615d16565b5060208201518160010160006101000a81548173ffffffffffffffffffffffffffffffffffffffff021916908373ffffffffffffffffffffffffffffffffffffffff16021790555060408201518160020190805190602001906136e4929190615d16565b506060820151816003019080519060200190613701929190615d16565b5060808201518160040160006101000a81548163ffffffff021916908363ffffffff16021790555090505050505050565b81338073ffffffffffffffffffffffffffffffffffffffff166006600084815260200190815260200160002060009054906101000a900473ffffffffffffffffffffffffffffffffffffffff1673ffffffffffffffffffffffffffffffffffffffff16146137eb576040517f08c379a0000000000000000000000000000000000000000000000000000000008152600401808060200182810382526031815260200180615eff6031913960400191505060405180910390fd5b60011515600185815481106137fc57fe5b906000526020600020906009020160080160009054906101000a900460ff16151514613890576040517f08c379a000000000000000000000000000000000000000000000000000000000815260040180806020018281038252601d8152602001807f456c20636572746966696361646f206e6f20657374612061637469766f00000081525060200191505060405180910390fd5b60011515600560008573ffffffffffffffffffffffffffffffffffffffff1673ffffffffffffffffffffffffffffffffffffffff16815260200190815260200160002060040160009054906101000a900460ff1615151461393c576040517f08c379a0000000000000000000000000000000000000000000000000000000008152600401808060200182810382526021815260200180615e636021913960400191505060405180910390fd5b6139468385614c52565b6139836006600086815260200190815260200160002060009054906101000a900473ffffffffffffffffffffffffffffffffffffffff1684614eb4565b50505050565b6000809054906101000a900473ffffffffffffffffffffffffffffffffffffffff1681565b600181815481106139bb57fe5b9060005260206000209060090201600091509050806000018054600181600116156101000203166002900480601f016020809104026020016040519081016040528092919081815260200182805460018160011615610100020316600290048015613a675780601f10613a3c57610100808354040283529160200191613a67565b820191906000526020600020905b815481529060010190602001808311613a4a57829003601f168201915b505050505090806001015490806002018054600181600116156101000203166002900480601f016020809104026020016040519081016040528092919081815260200182805460018160011615610100020316600290048015613b0b5780601f10613ae057610100808354040283529160200191613b0b565b820191906000526020600020905b815481529060010190602001808311613aee57829003601f168201915b505050505090806003018054600181600116156101000203166002900480601f016020809104026020016040519081016040528092919081815260200182805460018160011615610100020316600290048015613ba95780601f10613b7e57610100808354040283529160200191613ba9565b820191906000526020600020905b815481529060010190602001808311613b8c57829003601f168201915b5050505050908060040154908060050160009054906101000a900460ff1690806006018054600181600116156101000203166002900480601f016020809104026020016040519081016040528092919081815260200182805460018160011615610100020316600290048015613c605780601f10613c3557610100808354040283529160200191613c60565b820191906000526020600020905b815481529060010190602001808311613c4357829003601f168201915b505050505090806007018054600181600116156101000203166002900480601f016020809104026020016040519081016040528092919081815260200182805460018160011615610100020316600290048015613cfe5780601f10613cd357610100808354040283529160200191613cfe565b820191906000526020600020905b815481529060010190602001808311613ce157829003601f168201915b5050505050908060080160009054906101000a900460ff16905089565b6000806000809050600080905060008090505b600180549050811015613db7578573ffffffffffffffffffffffffffffffffffffffff166006600083815260200190815260200160002060009054906101000a900473ffffffffffffffffffffffffffffffffffffffff1673ffffffffffffffffffffffffffffffffffffffff161415613daa57809250600191505b8080600101915050613d2e565b508181935093505050915091565b60066020528060005260406000206000915054906101000a900473ffffffffffffffffffffffffffffffffffffffff1681565b336060600460008373ffffffffffffffffffffffffffffffffffffffff1673ffffffffffffffffffffffffffffffffffffffff1681526020019081526020016000206002018054600181600116156101000203166002900480601f016020809104026020016040519081016040528092919081815260200182805460018160011615610100020316600290048015613ed15780601f10613ea657610100808354040283529160200191613ed1565b820191906000526020600020905b815481529060010190602001808311613eb457829003601f168201915b5050505050905060405160200180807f6e6f746172696f00000000000000000000000000000000000000000000000000815250600701905060405160208183030381529060405280519060200120816040516020018082805190602001908083835b60208310613f565780518252602082019150602081019050602083039250613f33565b6001836020036101000a0380198251168184511680821785525050505050509050019150506040516020818303038152906040528051906020012014613fe7576040517f08c379a0000000000000000000000000000000000000000000000000000000008152600401808060200182810382526026815260200180615e3d6026913960400191505060405180910390fd5b613fef615de1565b898160000181815250508881602001819052508781604001818152505086816060018181525050858160800181905250848160a001819052508060036000868152602001908152602001600020600082015181600001556020820151816001019080519060200190614062929190615d16565b5060408201518160020155606082015181600301556080820151816004019080519060200190614093929190615d16565b5060a08201518160050190805190602001906140b0929190615d16565b5090505050505050505050505050565b33600073ffffffffffffffffffffffffffffffffffffffff16600460008373ffffffffffffffffffffffffffffffffffffffff1673ffffffffffffffffffffffffffffffffffffffff16815260200190815260200160002060010160009054906101000a900473ffffffffffffffffffffffffffffffffffffffff1673ffffffffffffffffffffffffffffffffffffffff16146141a8576040517f08c379a000000000000000000000000000000000000000000000000000000000815260040180806020018281038252602b815260200180615f30602b913960400191505060405180910390fd5b600073ffffffffffffffffffffffffffffffffffffffff16600560008373ffffffffffffffffffffffffffffffffffffffff1673ffffffffffffffffffffffffffffffffffffffff16815260200190815260200160002060000160009054906101000a900473ffffffffffffffffffffffffffffffffffffffff1673ffffffffffffffffffffffffffffffffffffffff161461428f576040517f08c379a000000000000000000000000000000000000000000000000000000000815260040180806020018281038252602d815260200180615e84602d913960400191505060405180910390fd5b614297615c78565b33816000019073ffffffffffffffffffffffffffffffffffffffff16908173ffffffffffffffffffffffffffffffffffffffff1681525050848160200181905250838160400181905250828160600181905250600081608001901515908115158152505060008160a001818152505080600560003373ffffffffffffffffffffffffffffffffffffffff1673ffffffffffffffffffffffffffffffffffffffff16815260200190815260200160002060008201518160000160006101000a81548173ffffffffffffffffffffffffffffffffffffffff021916908373ffffffffffffffffffffffffffffffffffffffff16021790555060208201518160010190805190602001906143a9929190615d16565b5060408201518160020190805190602001906143c6929190615d16565b5060608201518160030190805190602001906143e3929190615d16565b5060808201518160040160006101000a81548160ff02191690831515021790555060a082015181600501559050506001600960003373ffffffffffffffffffffffffffffffffffffffff1673ffffffffffffffffffffffffffffffffffffffff1681526020019081526020016000206000600173ffffffffffffffffffffffffffffffffffffffff1673ffffffffffffffffffffffffffffffffffffffff16815260200190815260200160002060006101000a81548173ffffffffffffffffffffffffffffffffffffffff021916908373ffffffffffffffffffffffffffffffffffffffff1602179055505050505050565b336060600460008373ffffffffffffffffffffffffffffffffffffffff1673ffffffffffffffffffffffffffffffffffffffff1681526020019081526020016000206002018054600181600116156101000203166002900480601f0160208091040260200160405190810160405280929190818152602001828054600181600116156101000203166002900480156145ae5780601f10614583576101008083540402835291602001916145ae565b820191906000526020600020905b81548152906001019060200180831161459157829003601f168201915b5050505050905060405160200180807f6e6f746172696f00000000000000000000000000000000000000000000000000815250600701905060405160208183030381529060405280519060200120816040516020018082805190602001908083835b602083106146335780518252602082019150602081019050602083039250614610565b6001836020036101000a03801982511681845116808217855250505050505090500191505060405160208183030381529060405280519060200120146146c4576040517f08c379a0000000000000000000000000000000000000000000000000000000008152600401808060200182810382526026815260200180615e3d6026913960400191505060405180910390fd5b6000600185815481106146d357fe5b90600052602060002090600902019050838160080160006101000a81548160ff0219169083151502179055505050505050565b6000809054906101000a900473ffffffffffffffffffffffffffffffffffffffff1673ffffffffffffffffffffffffffffffffffffffff163373ffffffffffffffffffffffffffffffffffffffff161461475f57600080fd5b600073ffffffffffffffffffffffffffffffffffffffff168173ffffffffffffffffffffffffffffffffffffffff16141561479957600080fd5b8073ffffffffffffffffffffffffffffffffffffffff166000809054906101000a900473ffffffffffffffffffffffffffffffffffffffff1673ffffffffffffffffffffffffffffffffffffffff167f8be0079c531659141344cd1fd0a4f28419497f9722a3daafe3b4186f6b6457e060405160405180910390a3806000806101000a81548173ffffffffffffffffffffffffffffffffffffffff021916908373ffffffffffffffffffffffffffffffffffffffff16021790555050565b6004602052806000526040600020600091509050806000018054600181600116156101000203166002900480601f0160208091040260200160405190810160405280929190818152602001828054600181600116156101000203166002900480156149035780601f106148d857610100808354040283529160200191614903565b820191906000526020600020905b8154815290600101906020018083116148e657829003601f168201915b5050505050908060010160009054906101000a900473ffffffffffffffffffffffffffffffffffffffff1690806002018054600181600116156101000203166002900480601f0160208091040260200160405190810160405280929190818152602001828054600181600116156101000203166002900480156149c75780601f1061499c576101008083540402835291602001916149c7565b820191906000526020600020905b8154815290600101906020018083116149aa57829003601f168201915b505050505090806003018054600181600116156101000203166002900480601f016020809104026020016040519081016040528092919081815260200182805460018160011615610100020316600290048015614a655780601f10614a3a57610100808354040283529160200191614a65565b820191906000526020600020905b815481529060010190602001808311614a4857829003601f168201915b5050505050908060040160009054906101000a900463ffffffff16905085565b614a8f8183615138565b60006006600084815260200190815260200160002060009054906101000a900473ffffffffffffffffffffffffffffffffffffffff169050614ad181836153a8565b505050565b338073ffffffffffffffffffffffffffffffffffffffff16600560008373ffffffffffffffffffffffffffffffffffffffff1673ffffffffffffffffffffffffffffffffffffffff16815260200190815260200160002060000160009054906101000a900473ffffffffffffffffffffffffffffffffffffffff1673ffffffffffffffffffffffffffffffffffffffff1614614bbd576040517f08c379a0000000000000000000000000000000000000000000000000000000008152600401808060200182810382526028815260200180615eb16028913960400191505060405180910390fd5b6000600560003373ffffffffffffffffffffffffffffffffffffffff1673ffffffffffffffffffffffffffffffffffffffff168152602001908152602001600020905084816001019080519060200190614c18929190615bf8565b5083816002019080519060200190614c31929190615bf8565b5082816003019080519060200190614c4a929190615bf8565b505050505050565b614c5c828261563a565b15614c6657600080fd5b600860008281526020019081526020016000206000600173ffffffffffffffffffffffffffffffffffffffff1673ffffffffffffffffffffffffffffffffffffffff16815260200190815260200160002060009054906101000a900473ffffffffffffffffffffffffffffffffffffffff166008600083815260200190815260200160002060008473ffffffffffffffffffffffffffffffffffffffff1673ffffffffffffffffffffffffffffffffffffffff16815260200190815260200160002060006101000a81548173ffffffffffffffffffffffffffffffffffffffff021916908373ffffffffffffffffffffffffffffffffffffffff16021790555081600860008381526020019081526020016000206000600173ffffffffffffffffffffffffffffffffffffffff1673ffffffffffffffffffffffffffffffffffffffff16815260200190815260200160002060006101000a81548173ffffffffffffffffffffffffffffffffffffffff021916908373ffffffffffffffffffffffffffffffffffffffff16021790555060006006600083815260200190815260200160002060009054906101000a900473ffffffffffffffffffffffffffffffffffffffff1690506000600460008373ffffffffffffffffffffffffffffffffffffffff1673ffffffffffffffffffffffffffffffffffffffff168152602001908152602001600020905080600401600081819054906101000a900463ffffffff168092919060010191906101000a81548163ffffffff021916908363ffffffff1602179055505050505050565b614ebe82826156e4565b15614ec857600080fd5b600960008273ffffffffffffffffffffffffffffffffffffffff1673ffffffffffffffffffffffffffffffffffffffff1681526020019081526020016000206000600173ffffffffffffffffffffffffffffffffffffffff1673ffffffffffffffffffffffffffffffffffffffff16815260200190815260200160002060009054906101000a900473ffffffffffffffffffffffffffffffffffffffff16600960008373ffffffffffffffffffffffffffffffffffffffff1673ffffffffffffffffffffffffffffffffffffffff16815260200190815260200160002060008473ffffffffffffffffffffffffffffffffffffffff1673ffffffffffffffffffffffffffffffffffffffff16815260200190815260200160002060006101000a81548173ffffffffffffffffffffffffffffffffffffffff021916908373ffffffffffffffffffffffffffffffffffffffff16021790555081600960008373ffffffffffffffffffffffffffffffffffffffff1673ffffffffffffffffffffffffffffffffffffffff1681526020019081526020016000206000600173ffffffffffffffffffffffffffffffffffffffff1673ffffffffffffffffffffffffffffffffffffffff16815260200190815260200160002060006101000a81548173ffffffffffffffffffffffffffffffffffffffff021916908373ffffffffffffffffffffffffffffffffffffffff1602179055506000600560008373ffffffffffffffffffffffffffffffffffffffff1673ffffffffffffffffffffffffffffffffffffffff16815260200190815260200160002090508060050160008154809291906001019190505550505050565b615142828261563a565b61514b57600080fd5b600061515783836157ba565b90506008600083815260200190815260200160002060008473ffffffffffffffffffffffffffffffffffffffff1673ffffffffffffffffffffffffffffffffffffffff16815260200190815260200160002060009054906101000a900473ffffffffffffffffffffffffffffffffffffffff166008600084815260200190815260200160002060008373ffffffffffffffffffffffffffffffffffffffff1673ffffffffffffffffffffffffffffffffffffffff16815260200190815260200160002060006101000a81548173ffffffffffffffffffffffffffffffffffffffff021916908373ffffffffffffffffffffffffffffffffffffffff16021790555060006008600084815260200190815260200160002060008573ffffffffffffffffffffffffffffffffffffffff1673ffffffffffffffffffffffffffffffffffffffff16815260200190815260200160002060006101000a81548173ffffffffffffffffffffffffffffffffffffffff021916908373ffffffffffffffffffffffffffffffffffffffff16021790555060006006600084815260200190815260200160002060009054906101000a900473ffffffffffffffffffffffffffffffffffffffff1690506000600460008373ffffffffffffffffffffffffffffffffffffffff1673ffffffffffffffffffffffffffffffffffffffff168152602001908152602001600020905080600401600081819054906101000a900463ffffffff16809291906001900391906101000a81548163ffffffff021916908363ffffffff160217905550505050505050565b6153b282826156e4565b6153bb57600080fd5b60006153c78383615997565b9050600960008373ffffffffffffffffffffffffffffffffffffffff1673ffffffffffffffffffffffffffffffffffffffff16815260200190815260200160002060008473ffffffffffffffffffffffffffffffffffffffff1673ffffffffffffffffffffffffffffffffffffffff16815260200190815260200160002060009054906101000a900473ffffffffffffffffffffffffffffffffffffffff16600960008473ffffffffffffffffffffffffffffffffffffffff1673ffffffffffffffffffffffffffffffffffffffff16815260200190815260200160002060008373ffffffffffffffffffffffffffffffffffffffff1673ffffffffffffffffffffffffffffffffffffffff16815260200190815260200160002060006101000a81548173ffffffffffffffffffffffffffffffffffffffff021916908373ffffffffffffffffffffffffffffffffffffffff1602179055506000600960008473ffffffffffffffffffffffffffffffffffffffff1673ffffffffffffffffffffffffffffffffffffffff16815260200190815260200160002060008573ffffffffffffffffffffffffffffffffffffffff1673ffffffffffffffffffffffffffffffffffffffff16815260200190815260200160002060006101000a81548173ffffffffffffffffffffffffffffffffffffffff021916908373ffffffffffffffffffffffffffffffffffffffff1602179055506000600560008473ffffffffffffffffffffffffffffffffffffffff1673ffffffffffffffffffffffffffffffffffffffff168152602001908152602001600020905080600501600081548092919060019003919050555050505050565b60008073ffffffffffffffffffffffffffffffffffffffff166008600084815260200190815260200160002060008573ffffffffffffffffffffffffffffffffffffffff1673ffffffffffffffffffffffffffffffffffffffff16815260200190815260200160002060009054906101000a900473ffffffffffffffffffffffffffffffffffffffff1673ffffffffffffffffffffffffffffffffffffffff161415905092915050565b60008073ffffffffffffffffffffffffffffffffffffffff16600960008473ffffffffffffffffffffffffffffffffffffffff1673ffffffffffffffffffffffffffffffffffffffff16815260200190815260200160002060008573ffffffffffffffffffffffffffffffffffffffff1673ffffffffffffffffffffffffffffffffffffffff16815260200190815260200160002060009054906101000a900473ffffffffffffffffffffffffffffffffffffffff1673ffffffffffffffffffffffffffffffffffffffff161415905092915050565b600080600190505b600173ffffffffffffffffffffffffffffffffffffffff166008600085815260200190815260200160002060008373ffffffffffffffffffffffffffffffffffffffff1673ffffffffffffffffffffffffffffffffffffffff16815260200190815260200160002060009054906101000a900473ffffffffffffffffffffffffffffffffffffffff1673ffffffffffffffffffffffffffffffffffffffff161461598b578373ffffffffffffffffffffffffffffffffffffffff166008600085815260200190815260200160002060008373ffffffffffffffffffffffffffffffffffffffff1673ffffffffffffffffffffffffffffffffffffffff16815260200190815260200160002060009054906101000a900473ffffffffffffffffffffffffffffffffffffffff1673ffffffffffffffffffffffffffffffffffffffff1614156159135780915050615991565b6008600084815260200190815260200160002060008273ffffffffffffffffffffffffffffffffffffffff1673ffffffffffffffffffffffffffffffffffffffff16815260200190815260200160002060009054906101000a900473ffffffffffffffffffffffffffffffffffffffff1690506157c2565b60019150505b92915050565b600080600190505b600173ffffffffffffffffffffffffffffffffffffffff16600960008573ffffffffffffffffffffffffffffffffffffffff1673ffffffffffffffffffffffffffffffffffffffff16815260200190815260200160002060008373ffffffffffffffffffffffffffffffffffffffff1673ffffffffffffffffffffffffffffffffffffffff16815260200190815260200160002060009054906101000a900473ffffffffffffffffffffffffffffffffffffffff1673ffffffffffffffffffffffffffffffffffffffff1614615bec578373ffffffffffffffffffffffffffffffffffffffff16600960008573ffffffffffffffffffffffffffffffffffffffff1673ffffffffffffffffffffffffffffffffffffffff16815260200190815260200160002060008373ffffffffffffffffffffffffffffffffffffffff1673ffffffffffffffffffffffffffffffffffffffff16815260200190815260200160002060009054906101000a900473ffffffffffffffffffffffffffffffffffffffff1673ffffffffffffffffffffffffffffffffffffffff161415615b485780915050615bf2565b600960008473ffffffffffffffffffffffffffffffffffffffff1673ffffffffffffffffffffffffffffffffffffffff16815260200190815260200160002060008273ffffffffffffffffffffffffffffffffffffffff1673ffffffffffffffffffffffffffffffffffffffff16815260200190815260200160002060009054906101000a900473ffffffffffffffffffffffffffffffffffffffff16905061599f565b60019150505b92915050565b828054600181600116156101000203166002900490600052602060002090601f016020900481019282601f10615c3957805160ff1916838001178555615c67565b82800160010185558215615c67579182015b82811115615c66578251825591602001919060010190615c4b565b5b509050615c749190615e17565b5090565b6040518060c00160405280600073ffffffffffffffffffffffffffffffffffffffff168152602001606081526020016060815260200160608152602001600015158152602001600081525090565b604051806101200160405280606081526020016000815260200160608152602001606081526020016000815260200160001515815260200160608152602001606081526020016000151581525090565b828054600181600116156101000203166002900490600052602060002090601f016020900481019282601f10615d5757805160ff1916838001178555615d85565b82800160010185558215615d85579182015b82811115615d84578251825591602001919060010190615d69565b5b509050615d929190615e17565b5090565b6040518060a0016040528060608152602001600073ffffffffffffffffffffffffffffffffffffffff1681526020016060815260200160608152602001600063ffffffff1681525090565b6040518060c001604052806000815260200160608152602001600081526020016000815260200160608152602001606081525090565b615e3991905b80821115615e35576000816000905550600101615e1d565b5090565b9056fe4c6120646972656363696f6e206e6f2070657274656e656365206120756e206e6f746172696f4c6120696e737469747563696f6e206e6f206573746120766572696669636164614c6120646972656363696f6e207961207469656e6520756e61206375656e746120646520696e7374697475746f4c6120646972656363696f6e206e6f2070657274656e656365206120756e20696e7374697475746f4c6120646972656363696f6e206e6f2070657274656e656365206120756e207573756172696f456c20636572746966696361646f206e6f2070657274656e63652061206c6120646972656363696f6e20656e76696164614c6120646972656363696f6e207961207469656e6520756e61206375656e7461206465207573756172696fa265627a7a72315820ffa1714c933a353f356b1d50c1e2dea40fa87f59ca81a0a17b4d6e1716f66d7864736f6c63430005100032",
  "source": "pragma solidity ^0.5.0;\r\nimport \"./ownable.sol\";\r\ncontract CertificadoNacimiento is Ownable{\r\n    \r\n    // Variables\r\n    \r\n    // Estructuras\r\n    struct Certificado{\r\n        // ubicacion\r\n        string departamento;  // departamento provincia localidad\r\n        // string provincia;\r\n        // string localidad;\r\n        // string localidad_emision;\r\n        \r\n        // date\r\n        uint256 fecha; // timestamp\r\n        // uint256 fecha_emision;\r\n        //usuario\r\n        string nombre; // Nombre completo\r\n        string departamento_nacimiento; // departamento provincia localidad\r\n        // string provincia_nacimiento;\r\n        // string localidad_nacimiento;\r\n        uint256 fecha_naciminto; // timestamp\r\n        bool sexo; // 0:masculino, 1:femenino\r\n        string nombre_padre; // Nombre completo\r\n        string nombre_madre; // Nombre completo\r\n        bool active;\r\n        // address notario;\r\n    }\r\n    struct Complemento{\r\n        uint256 oficialia;\r\n        string libro;\r\n        uint256 partida;\r\n        uint256 folio;\r\n        string serie;\r\n        string nota_aclaratoria;\r\n    }\r\n    struct Usuario{\r\n        string nombre; // Nombre completo\r\n        address direccion;\r\n        string role;\r\n        string email;\r\n        uint32 listSizeInstituciones;\r\n    }\r\n    struct Instituto{\r\n        address direccion;\r\n        string nombre;\r\n        string telefono;\r\n        string email;\r\n        bool verified;\r\n        uint256 listSizeCertificados;\r\n    }\r\n    \r\n    Certificado [] public certificados;\r\n    address constant internal FIRST_ADDRESS = address(1);\r\n    uint256 public countCert;\r\n    // Diccionarios\r\n    mapping(uint256 => Complemento) public complementos;\r\n    mapping(address=>Usuario) public usuarios;\r\n    mapping(address=>Instituto) public institutos;\r\n    mapping(uint256 => address) public certifcadoToOwner;\r\n    mapping(uint256 => address) public certifiedCreator; // Address del creador del certificado(Notario)\r\n    \r\n    mapping(uint256 => mapping(address=> address)) internal listaInstitucionesXCertificado;\r\n    mapping(address => mapping(address=> address)) internal listaCertificadosXInstituciones;\r\n    \r\n    \r\n    \r\n    // Eventos\r\n    event newCertificado(uint certificadoId, string nombre, address notario);\r\n    // event newUsuario(string nombre, address notario);\r\n    // event newInstituto(string nombre, address instituto);\r\n    // event OwnershipTransferred(address indexed previousOwner,address indexed newOwner);\r\n\r\n    // Modificadores\r\n    modifier onlyNotario(address _direccion) {\r\n        string memory role = usuarios[_direccion].role;\r\n        require(keccak256(abi.encodePacked(role)) == keccak256(abi.encodePacked(\"notario\")),\"La direccion no pertenece a un notario\");\r\n        _;\r\n    }\r\n    modifier onlyOwnerCertificate(uint256 _certificadoId, address _direccion){\r\n        require(certifcadoToOwner[_certificadoId] == _direccion,\"El certificado no pertence a la direccion enviada\");\r\n        _;\r\n    }\r\n    modifier onlyUserbyAddress(address _direccion){\r\n        require(usuarios[_direccion].direccion==address(0),\"La direccion ya tiene una cuenta de usuario\");\r\n        _;\r\n    }\r\n    modifier onlyInstitutoByAddress(address _direccion){\r\n        require(usuarios[_direccion].direccion==address(0),\"La direccion ya tiene una cuenta de usuario\");\r\n        require(institutos[_direccion].direccion==address(0),\"La direccion ya tiene una cuenta de instituto\");\r\n        _;\r\n    }\r\n    modifier onlyUser(address _direccion){\r\n        require(usuarios[_direccion].direccion==_direccion,\"La direccion no pertenece a un usuario\");\r\n        _;\r\n    }\r\n    modifier onlyInstituto(address _direccion){\r\n        require(institutos[_direccion].direccion==_direccion,\"La direccion no pertenece a un instituto\");\r\n        _;\r\n    }\r\n    \r\n    // Constructor\r\n    constructor() public {\r\n         Certificado memory nCertificado;\r\n         certificados.push(nCertificado);\r\n    }\r\n    \r\n    // Metodos\r\n    function createUser(string memory _nombre, string memory _email) public onlyUserbyAddress(msg.sender){\r\n        Usuario memory n_user;\r\n        n_user.nombre = _nombre;\r\n        n_user.role = \"usuario\";\r\n        n_user.direccion = msg.sender;\r\n        n_user.email = _email;\r\n        n_user.listSizeInstituciones=0;\r\n        usuarios[msg.sender]=n_user;\r\n        // emit newUsuario(_nombre,msg.sender);\r\n    }\r\n    \r\n    function crearInstituto(string memory _nombre,string memory _telefono,string memory _email) public onlyInstitutoByAddress(msg.sender){\r\n         Instituto memory n_instituto;\r\n         n_instituto.direccion = msg.sender;\r\n         n_instituto.nombre = _nombre;\r\n         n_instituto.telefono = _telefono;\r\n         n_instituto.email = _email;\r\n         n_instituto.verified = false;\r\n         n_instituto.listSizeCertificados=0;\r\n         institutos[msg.sender] = n_instituto;\r\n         \r\n         listaCertificadosXInstituciones[msg.sender][FIRST_ADDRESS]=FIRST_ADDRESS;\r\n        //  emit newInstituto(_nombre,msg.sender);\r\n    }\r\n    \r\n    function createCertificado(string memory _departamento,uint256 _fecha,string memory _nombre,\r\n    string memory _departamento_nacimiento, uint256 _fecha_nacimiento,bool _sexo,\r\n    string memory _nombre_padre,string memory _nombre_madre) public onlyNotario(msg.sender){\r\n        Certificado memory nCertificado;\r\n        nCertificado.departamento =_departamento;\r\n        nCertificado.fecha = _fecha;\r\n        nCertificado.nombre = _nombre;\r\n        nCertificado.departamento_nacimiento = _departamento_nacimiento;\r\n        nCertificado.fecha_naciminto = _fecha_nacimiento;\r\n        nCertificado.sexo = _sexo;\r\n        nCertificado.nombre_padre = _nombre_padre;\r\n        nCertificado.nombre_madre = _nombre_madre;\r\n        certificados.push(nCertificado);\r\n        certifcadoToOwner[certificados.length - 1] = msg.sender;\r\n        countCert++;\r\n        certifiedCreator[certificados.length -1] =  msg.sender;\r\n        \r\n        listaInstitucionesXCertificado[certificados.length - 1][FIRST_ADDRESS]=FIRST_ADDRESS;\r\n        emit newCertificado(certificados.length -1, _nombre,msg.sender);\r\n    }\r\n    \r\n    function crearComplemento(uint256 _oficialia,string memory _libro, uint256 _partida, \r\n    uint256 _folio,string memory _serie,string memory _nota_aclaratoria,uint256 _certificadoId) public onlyNotario(msg.sender){\r\n        Complemento memory nComplemento;\r\n        nComplemento.oficialia = _oficialia;\r\n        nComplemento.libro = _libro;\r\n        nComplemento.partida = _partida;\r\n        nComplemento.folio = _folio;\r\n        nComplemento.serie = _serie;\r\n        nComplemento.nota_aclaratoria = _nota_aclaratoria;\r\n        complementos[_certificadoId]= nComplemento;\r\n    }\r\n\r\n    function setUser(string memory _nombre, string memory _email) public onlyUser(msg.sender){\r\n        Usuario storage n_user = usuarios[msg.sender];\r\n        n_user.nombre = _nombre;\r\n        n_user.email = _email;\r\n    }\r\n    \r\n    function setInstitucion(string memory _nombre,string memory _telefono,string memory _email) public onlyInstituto(msg.sender){\r\n         Instituto storage n_instituto=institutos[msg.sender];\r\n         n_instituto.nombre = _nombre;\r\n         n_instituto.telefono = _telefono;\r\n         n_instituto.email = _email;\r\n    }\r\n    \r\n    // function setCertificate(uint256 _certificadoId,string memory _departamento,uint256 _fecha,string memory _nombre,\r\n    // string memory _departamento_nacimiento, uint256 _fecha_nacimiento,bool _sexo,\r\n    // string memory _nombre_padre,string memory _nombre_madre) public onlyNotario(msg.sender){\r\n    //     Certificado storage nCertificado = certificados[_certificadoId];\r\n    //     nCertificado.departamento =_departamento;\r\n    //     nCertificado.fecha = _fecha;\r\n    //     nCertificado.nombre = _nombre;\r\n    //     nCertificado.departamento_nacimiento = _departamento_nacimiento;\r\n    //     nCertificado.fecha_naciminto = _fecha_nacimiento;\r\n    //     nCertificado.sexo = _sexo;\r\n    //     nCertificado.nombre_padre = _nombre_padre;\r\n    //     nCertificado.nombre_madre = _nombre_madre;\r\n    // }\r\n\r\n    function roleNotario(address _direccion)public onlyOwner{\r\n        Usuario storage notario = usuarios[_direccion];\r\n        notario.role=\"notario\";\r\n    }\r\n    \r\n    function setValidarInstitucion(address _direccion,bool valor) public onlyNotario(msg.sender){\r\n        Instituto storage instituto = institutos[_direccion];\r\n        instituto.verified=valor;\r\n    }\r\n    \r\n    function setActive(uint256 _certificadoId, bool _active) public onlyNotario(msg.sender){\r\n        Certificado storage _certificado = certificados[_certificadoId];\r\n        _certificado.active = _active;\r\n    }\r\n    \r\n    function getCertificadoByOwner(address _owner) public view returns(uint256,bool) {\r\n        uint256 resultado = 0;\r\n        bool valido = false;\r\n        for (uint i = 0; i < certificados.length; i++) {\r\n          if (certifcadoToOwner[i] == _owner) {\r\n            resultado = i;\r\n            valido = true;\r\n          }\r\n        }\r\n        return (resultado,valido);\r\n    }\r\n    \r\n    function transferCertificado(address _newOwner,uint256 _certificadoId) public onlyNotario(msg.sender) {\r\n        require(_newOwner != address(0),\"La nueva direccion es vlida\");\r\n        Certificado storage _certificado = certificados[_certificadoId];\r\n        _certificado.active = true;\r\n        certifcadoToOwner[_certificadoId]= _newOwner;\r\n        \r\n        // emit OwnershipTransferred(owner, _newOwner);\r\n    }\r\n    \r\n    function compartirCertificado(uint256 _certificadoId, address _institucion) public onlyOwnerCertificate(_certificadoId,msg.sender){\r\n     require(certificados[_certificadoId].active==true,\"El certificado no esta activo\");\r\n     require(institutos[_institucion].verified==true, \"La institucion no esta verificada\");\r\n      addListCertificado(_institucion,_certificadoId);\r\n      \r\n    //   ownerToCerfificado[owner] =_certificadoId;\r\n      addListInstitucion(certifcadoToOwner[_certificadoId],_institucion);\r\n    }\r\n    \r\n    function desCompartirCertificado(uint256 _certificadoId, address _institucion) public{\r\n        removeListCertificado(_institucion,_certificadoId);\r\n        \r\n        address owner = certifcadoToOwner[_certificadoId];\r\n        removeListInstitucion(owner,_institucion);\r\n    }\r\n    \r\n    function isInListCertificado(address _address,uint256 _certificadoId) view internal returns(bool){\r\n        return listaInstitucionesXCertificado[_certificadoId][_address] != address(0);\r\n    }\r\n    \r\n    function isInListInstituciones(address _address,address _addressInstituto) view internal returns(bool){\r\n        return listaCertificadosXInstituciones[_addressInstituto][_address] != address(0);\r\n    }\r\n    \r\n    function getPrevCertificado(address _address,uint256 _certificadoId) view internal returns(address){\r\n        address currentAddress = FIRST_ADDRESS;\r\n        while(listaInstitucionesXCertificado[_certificadoId][currentAddress]!= FIRST_ADDRESS){\r\n            if(listaInstitucionesXCertificado [_certificadoId][currentAddress] == _address){\r\n                return currentAddress;\r\n            }\r\n            currentAddress=listaInstitucionesXCertificado[_certificadoId][currentAddress];\r\n        }\r\n        return FIRST_ADDRESS;\r\n    }\r\n    \r\n    function getPrevInstitucion(address _address,address _addressInstituto) view internal returns(address){\r\n        address currentAddress = FIRST_ADDRESS;\r\n        while(listaCertificadosXInstituciones[_addressInstituto][currentAddress]!= FIRST_ADDRESS){\r\n            if(listaCertificadosXInstituciones[_addressInstituto][currentAddress] == _address){\r\n                return currentAddress;\r\n            }\r\n            currentAddress=listaCertificadosXInstituciones[_addressInstituto][currentAddress];\r\n        }\r\n        return FIRST_ADDRESS;\r\n    }\r\n    \r\n    function addListCertificado(address _address,uint256 _certificadoId) internal {\r\n        require(!isInListCertificado(_address,_certificadoId));\r\n        listaInstitucionesXCertificado[_certificadoId][_address]=listaInstitucionesXCertificado[_certificadoId][FIRST_ADDRESS];\r\n        listaInstitucionesXCertificado[_certificadoId][FIRST_ADDRESS]=_address;\r\n        address user_address = certifcadoToOwner[_certificadoId];\r\n        Usuario storage user = usuarios[user_address];\r\n        user.listSizeInstituciones++;\r\n    }\r\n    \r\n    function addListInstitucion(address _address,address _addressInstituto) internal {\r\n        require(!isInListInstituciones(_address,_addressInstituto));\r\n        listaCertificadosXInstituciones[_addressInstituto][_address]=listaCertificadosXInstituciones[_addressInstituto][FIRST_ADDRESS];\r\n        listaCertificadosXInstituciones[_addressInstituto][FIRST_ADDRESS]=_address;\r\n        Instituto storage instituto = institutos[_addressInstituto];\r\n        instituto.listSizeCertificados++;\r\n    }\r\n    \r\n    function removeListCertificado(address _address,uint256 _certificadoId) internal {\r\n        require(isInListCertificado(_address,_certificadoId));\r\n        address prevUser = getPrevCertificado(_address,_certificadoId);\r\n        listaInstitucionesXCertificado[_certificadoId][prevUser]= listaInstitucionesXCertificado[_certificadoId][_address];\r\n        listaInstitucionesXCertificado[_certificadoId][_address]=address(0);\r\n        address user_address = certifcadoToOwner[_certificadoId];\r\n        Usuario storage user = usuarios[user_address];\r\n        user.listSizeInstituciones --;\r\n    }\r\n    \r\n    function removeListInstitucion(address _address,address _addressInstituto) internal {\r\n        require(isInListInstituciones(_address,_addressInstituto));\r\n        address prevUser = getPrevInstitucion(_address,_addressInstituto);\r\n        listaCertificadosXInstituciones[_addressInstituto][prevUser]= listaCertificadosXInstituciones[_addressInstituto][_address];\r\n        listaCertificadosXInstituciones[_addressInstituto][_address]=address(0);\r\n        Instituto storage instituto = institutos[_addressInstituto];\r\n        instituto.listSizeCertificados --;\r\n    }\r\n    \r\n    function listarInstituciones(uint256 _certificadoId) view public returns(address[] memory){\r\n        address user_address = certifcadoToOwner[_certificadoId];\r\n        Usuario memory user = usuarios[user_address];\r\n        address [] memory usersArray = new address[](user.listSizeInstituciones);\r\n        address currentAddress =  listaInstitucionesXCertificado[_certificadoId][FIRST_ADDRESS];\r\n        for(uint256 i =0; i<user.listSizeInstituciones;i++){\r\n            usersArray[i]=currentAddress;\r\n            currentAddress=listaInstitucionesXCertificado[_certificadoId][currentAddress];\r\n        }\r\n        return usersArray;\r\n    }\r\n    \r\n    function listarCertitificados(address _addressInstituto) view public returns(uint256[] memory){\r\n        Instituto memory instituto = institutos[_addressInstituto];\r\n        uint256 [] memory usersArray = new uint256[](instituto.listSizeCertificados);\r\n        address currentAddress =  listaCertificadosXInstituciones[_addressInstituto][FIRST_ADDRESS];\r\n        for(uint256 i =0; i<instituto.listSizeCertificados;i++){\r\n            // usersArray[i]=ownerToCerfificado[currentAddress];\r\n            (uint256 certificadoId,) = getCertificadoByOwner(currentAddress);\r\n            usersArray[i]=certificadoId;\r\n            currentAddress=listaCertificadosXInstituciones[_addressInstituto][currentAddress];\r\n        }\r\n        return usersArray;\r\n    }\r\n}\r\n",
  "sourcePath": "E:/JORGE/UMSA/INF-399/dev/truffle_certificado_nacimiento/contracts/CertificadoNacimiento.sol",
  "compiler": {
    "name": "solc",
    "version": "0.5.16+commit.9c3226ce.Emscripten.clang"
  },
  "schemaVersion": "3.2.5",
  "updatedAt": "2020-12-07T01:30:51.712Z",
  "networkType": "ethereum",
  "devdoc": {
    "methods": {}
  },
  "userdoc": {
    "methods": {}
  }
}