{
  "contractName": "CertificadoNacimiento",
  "abi": [
    {
      "inputs": [],
      "payable": false,
      "stateMutability": "nonpayable",
      "type": "constructor"
    },
    {
      "anonymous": false,
      "inputs": [
        {
          "indexed": true,
          "internalType": "address",
          "name": "previousOwner",
          "type": "address"
        },
        {
          "indexed": true,
          "internalType": "address",
          "name": "newOwner",
          "type": "address"
        }
      ],
      "name": "OwnershipTransferred",
      "type": "event"
    },
    {
      "constant": true,
      "inputs": [
        {
          "internalType": "uint256",
          "name": "",
          "type": "uint256"
        }
      ],
      "name": "certifcadoToOwner",
      "outputs": [
        {
          "internalType": "address",
          "name": "",
          "type": "address"
        }
      ],
      "payable": false,
      "stateMutability": "view",
      "type": "function"
    },
    {
      "constant": true,
      "inputs": [
        {
          "internalType": "uint256",
          "name": "",
          "type": "uint256"
        }
      ],
      "name": "certificados",
      "outputs": [
        {
          "internalType": "string",
          "name": "departamento",
          "type": "string"
        },
        {
          "internalType": "uint256",
          "name": "fecha",
          "type": "uint256"
        },
        {
          "internalType": "string",
          "name": "nombre",
          "type": "string"
        },
        {
          "internalType": "string",
          "name": "departamento_nacimiento",
          "type": "string"
        },
        {
          "internalType": "uint256",
          "name": "fecha_naciminto",
          "type": "uint256"
        },
        {
          "internalType": "bool",
          "name": "genero",
          "type": "bool"
        },
        {
          "internalType": "string",
          "name": "nombre_padre",
          "type": "string"
        },
        {
          "internalType": "string",
          "name": "nombre_madre",
          "type": "string"
        },
        {
          "internalType": "bool",
          "name": "active",
          "type": "bool"
        }
      ],
      "payable": false,
      "stateMutability": "view",
      "type": "function"
    },
    {
      "constant": true,
      "inputs": [
        {
          "internalType": "uint256",
          "name": "",
          "type": "uint256"
        }
      ],
      "name": "certifiedCreator",
      "outputs": [
        {
          "internalType": "address",
          "name": "",
          "type": "address"
        }
      ],
      "payable": false,
      "stateMutability": "view",
      "type": "function"
    },
    {
      "constant": true,
      "inputs": [
        {
          "internalType": "uint256",
          "name": "",
          "type": "uint256"
        }
      ],
      "name": "complementos",
      "outputs": [
        {
          "internalType": "uint256",
          "name": "oficialia",
          "type": "uint256"
        },
        {
          "internalType": "string",
          "name": "libro",
          "type": "string"
        },
        {
          "internalType": "uint256",
          "name": "partida",
          "type": "uint256"
        },
        {
          "internalType": "uint256",
          "name": "folio",
          "type": "uint256"
        },
        {
          "internalType": "string",
          "name": "serie",
          "type": "string"
        },
        {
          "internalType": "uint256",
          "name": "fecha_partida",
          "type": "uint256"
        },
        {
          "internalType": "string",
          "name": "nota_aclaratoria",
          "type": "string"
        }
      ],
      "payable": false,
      "stateMutability": "view",
      "type": "function"
    },
    {
      "constant": true,
      "inputs": [],
      "name": "countCert",
      "outputs": [
        {
          "internalType": "uint256",
          "name": "",
          "type": "uint256"
        }
      ],
      "payable": false,
      "stateMutability": "view",
      "type": "function"
    },
    {
      "constant": true,
      "inputs": [
        {
          "internalType": "address",
          "name": "",
          "type": "address"
        }
      ],
      "name": "institutos",
      "outputs": [
        {
          "internalType": "address",
          "name": "direccion",
          "type": "address"
        },
        {
          "internalType": "string",
          "name": "nombre",
          "type": "string"
        },
        {
          "internalType": "string",
          "name": "telefono",
          "type": "string"
        },
        {
          "internalType": "string",
          "name": "email",
          "type": "string"
        },
        {
          "internalType": "bool",
          "name": "verified",
          "type": "bool"
        },
        {
          "internalType": "uint256",
          "name": "listSizeCertificados",
          "type": "uint256"
        }
      ],
      "payable": false,
      "stateMutability": "view",
      "type": "function"
    },
    {
      "constant": true,
      "inputs": [],
      "name": "owner",
      "outputs": [
        {
          "internalType": "address",
          "name": "",
          "type": "address"
        }
      ],
      "payable": false,
      "stateMutability": "view",
      "type": "function"
    },
    {
      "constant": false,
      "inputs": [
        {
          "internalType": "address",
          "name": "newOwner",
          "type": "address"
        }
      ],
      "name": "transferOwnership",
      "outputs": [],
      "payable": false,
      "stateMutability": "nonpayable",
      "type": "function"
    },
    {
      "constant": true,
      "inputs": [
        {
          "internalType": "address",
          "name": "",
          "type": "address"
        }
      ],
      "name": "usuarios",
      "outputs": [
        {
          "internalType": "string",
          "name": "nombre",
          "type": "string"
        },
        {
          "internalType": "address",
          "name": "direccion",
          "type": "address"
        },
        {
          "internalType": "string",
          "name": "role",
          "type": "string"
        },
        {
          "internalType": "string",
          "name": "email",
          "type": "string"
        },
        {
          "internalType": "uint256",
          "name": "listSizeInstituciones",
          "type": "uint256"
        }
      ],
      "payable": false,
      "stateMutability": "view",
      "type": "function"
    },
    {
      "constant": false,
      "inputs": [
        {
          "internalType": "string",
          "name": "_nombre",
          "type": "string"
        },
        {
          "internalType": "string",
          "name": "_email",
          "type": "string"
        }
      ],
      "name": "createUser",
      "outputs": [],
      "payable": false,
      "stateMutability": "nonpayable",
      "type": "function"
    },
    {
      "constant": false,
      "inputs": [
        {
          "internalType": "string",
          "name": "_nombre",
          "type": "string"
        },
        {
          "internalType": "string",
          "name": "_telefono",
          "type": "string"
        },
        {
          "internalType": "string",
          "name": "_email",
          "type": "string"
        }
      ],
      "name": "crearInstituto",
      "outputs": [],
      "payable": false,
      "stateMutability": "nonpayable",
      "type": "function"
    },
    {
      "constant": false,
      "inputs": [
        {
          "internalType": "string",
          "name": "_departamento",
          "type": "string"
        },
        {
          "internalType": "uint256",
          "name": "_fecha",
          "type": "uint256"
        },
        {
          "internalType": "string",
          "name": "_nombre",
          "type": "string"
        },
        {
          "internalType": "string",
          "name": "_departamento_nacimiento",
          "type": "string"
        },
        {
          "internalType": "uint256",
          "name": "_fecha_nacimiento",
          "type": "uint256"
        },
        {
          "internalType": "bool",
          "name": "_genero",
          "type": "bool"
        },
        {
          "internalType": "string",
          "name": "_nombre_padre",
          "type": "string"
        },
        {
          "internalType": "string",
          "name": "_nombre_madre",
          "type": "string"
        }
      ],
      "name": "createCertificado",
      "outputs": [],
      "payable": false,
      "stateMutability": "nonpayable",
      "type": "function"
    },
    {
      "constant": false,
      "inputs": [
        {
          "internalType": "uint256",
          "name": "_oficialia",
          "type": "uint256"
        },
        {
          "internalType": "string",
          "name": "_libro",
          "type": "string"
        },
        {
          "internalType": "uint256",
          "name": "_partida",
          "type": "uint256"
        },
        {
          "internalType": "uint256",
          "name": "_folio",
          "type": "uint256"
        },
        {
          "internalType": "string",
          "name": "_serie",
          "type": "string"
        },
        {
          "internalType": "string",
          "name": "_nota_aclaratoria",
          "type": "string"
        },
        {
          "internalType": "uint256",
          "name": "_fecha_partida",
          "type": "uint256"
        },
        {
          "internalType": "uint256",
          "name": "_certificadoId",
          "type": "uint256"
        }
      ],
      "name": "crearComplemento",
      "outputs": [],
      "payable": false,
      "stateMutability": "nonpayable",
      "type": "function"
    },
    {
      "constant": false,
      "inputs": [
        {
          "internalType": "string",
          "name": "_nombre",
          "type": "string"
        },
        {
          "internalType": "string",
          "name": "_email",
          "type": "string"
        }
      ],
      "name": "setUser",
      "outputs": [],
      "payable": false,
      "stateMutability": "nonpayable",
      "type": "function"
    },
    {
      "constant": false,
      "inputs": [
        {
          "internalType": "string",
          "name": "_nombre",
          "type": "string"
        },
        {
          "internalType": "string",
          "name": "_telefono",
          "type": "string"
        },
        {
          "internalType": "string",
          "name": "_email",
          "type": "string"
        }
      ],
      "name": "setInstitucion",
      "outputs": [],
      "payable": false,
      "stateMutability": "nonpayable",
      "type": "function"
    },
    {
      "constant": false,
      "inputs": [
        {
          "internalType": "address",
          "name": "_direccion",
          "type": "address"
        }
      ],
      "name": "roleNotario",
      "outputs": [],
      "payable": false,
      "stateMutability": "nonpayable",
      "type": "function"
    },
    {
      "constant": false,
      "inputs": [
        {
          "internalType": "address",
          "name": "_direccion",
          "type": "address"
        },
        {
          "internalType": "bool",
          "name": "valor",
          "type": "bool"
        }
      ],
      "name": "setValidarInstitucion",
      "outputs": [],
      "payable": false,
      "stateMutability": "nonpayable",
      "type": "function"
    },
    {
      "constant": false,
      "inputs": [
        {
          "internalType": "uint256",
          "name": "_certificadoId",
          "type": "uint256"
        },
        {
          "internalType": "bool",
          "name": "_active",
          "type": "bool"
        }
      ],
      "name": "setActive",
      "outputs": [],
      "payable": false,
      "stateMutability": "nonpayable",
      "type": "function"
    },
    {
      "constant": true,
      "inputs": [
        {
          "internalType": "address",
          "name": "_owner",
          "type": "address"
        }
      ],
      "name": "getCertificadoByOwner",
      "outputs": [
        {
          "internalType": "uint256",
          "name": "",
          "type": "uint256"
        },
        {
          "internalType": "bool",
          "name": "",
          "type": "bool"
        }
      ],
      "payable": false,
      "stateMutability": "view",
      "type": "function"
    },
    {
      "constant": false,
      "inputs": [
        {
          "internalType": "address",
          "name": "_newOwner",
          "type": "address"
        },
        {
          "internalType": "uint256",
          "name": "_certificadoId",
          "type": "uint256"
        }
      ],
      "name": "transferCertificado",
      "outputs": [],
      "payable": false,
      "stateMutability": "nonpayable",
      "type": "function"
    },
    {
      "constant": false,
      "inputs": [
        {
          "internalType": "uint256",
          "name": "_certificadoId",
          "type": "uint256"
        },
        {
          "internalType": "address",
          "name": "_institucion",
          "type": "address"
        }
      ],
      "name": "compartirCertificado",
      "outputs": [],
      "payable": false,
      "stateMutability": "nonpayable",
      "type": "function"
    },
    {
      "constant": false,
      "inputs": [
        {
          "internalType": "uint256",
          "name": "_certificadoId",
          "type": "uint256"
        },
        {
          "internalType": "address",
          "name": "_institucion",
          "type": "address"
        }
      ],
      "name": "desCompartirCertificado",
      "outputs": [],
      "payable": false,
      "stateMutability": "nonpayable",
      "type": "function"
    },
    {
      "constant": true,
      "inputs": [
        {
          "internalType": "uint256",
          "name": "_certificadoId",
          "type": "uint256"
        }
      ],
      "name": "listarInstituciones",
      "outputs": [
        {
          "internalType": "address[]",
          "name": "",
          "type": "address[]"
        }
      ],
      "payable": false,
      "stateMutability": "view",
      "type": "function"
    },
    {
      "constant": true,
      "inputs": [
        {
          "internalType": "address",
          "name": "_addressInstituto",
          "type": "address"
        }
      ],
      "name": "listarCertitificados",
      "outputs": [
        {
          "internalType": "uint256[]",
          "name": "",
          "type": "uint256[]"
        }
      ],
      "payable": false,
      "stateMutability": "view",
      "type": "function"
    }
  ],
  "bytecode": "0x60806040523480156200001157600080fd5b50336000806101000a81548173ffffffffffffffffffffffffffffffffffffffff021916908373ffffffffffffffffffffffffffffffffffffffff1602179055506200005c62000184565b600181908060018154018082558091505090600182039060005260206000209060090201600090919290919091506000820151816000019080519060200190620000a8929190620001d4565b50602082015181600101556040820151816002019080519060200190620000d1929190620001d4565b506060820151816003019080519060200190620000f0929190620001d4565b506080820151816004015560a08201518160050160006101000a81548160ff02191690831515021790555060c082015181600601908051906020019062000139929190620001d4565b5060e082015181600701908051906020019062000158929190620001d4565b506101008201518160080160006101000a81548160ff0219169083151502179055505050505062000283565b604051806101200160405280606081526020016000815260200160608152602001606081526020016000815260200160001515815260200160608152602001606081526020016000151581525090565b828054600181600116156101000203166002900490600052602060002090601f016020900481019282601f106200021757805160ff191683800117855562000248565b8280016001018555821562000248579182015b82811115620002475782518255916020019190600101906200022a565b5b5090506200025791906200025b565b5090565b6200028091905b808211156200027c57600081600090555060010162000262565b5090565b90565b615fc180620002936000396000f3fe608060405234801561001057600080fd5b50600436106101585760003560e01c80638c52b33b116100c3578063e590488d1161007c578063e590488d14611338578063e60a955d14611521578063f2fde38b1461155b578063f6b91ea91461159f578063f8c803771461176e578063ff764a5f146117bc57610158565b80638c52b33b14610d385780638da5cb5b14610d865780638e59bb4814610dd0578063bd9e5ee81461104b578063c6c045fa146110ae578063e140599b1461111c57610158565b8063583e8c6311610115578063583e8c6314610574578063593b02ed1461074e5780635987645a146107e75780636db192d914610b1f5780637635077c14610ba257806387b162b514610be657610158565b80630518d89c1461015d57806308aebdb9146101cb5780633b65e71e146101e9578063536775951461038457806355ac3414146103d45780635728b97314610422575b600080fd5b6101896004803603602081101561017357600080fd5b81019080803590602001909291905050506119a5565b604051808273ffffffffffffffffffffffffffffffffffffffff1673ffffffffffffffffffffffffffffffffffffffff16815260200191505060405180910390f35b6101d36119d8565b6040518082815260200191505060405180910390f35b610215600480360360208110156101ff57600080fd5b81019080803590602001909291905050506119de565b6040518088815260200180602001878152602001868152602001806020018581526020018060200184810384528a818151815260200191508051906020019080838360005b8381101561027557808201518184015260208101905061025a565b50505050905090810190601f1680156102a25780820380516001836020036101000a031916815260200191505b50848103835287818151815260200191508051906020019080838360005b838110156102db5780820151818401526020810190506102c0565b50505050905090810190601f1680156103085780820380516001836020036101000a031916815260200191505b50848103825285818151815260200191508051906020019080838360005b83811015610341578082015181840152602081019050610326565b50505050905090810190601f16801561036e5780820380516001836020036101000a031916815260200191505b509a505050505050505050505060405180910390f35b6103d26004803603604081101561039a57600080fd5b81019080803573ffffffffffffffffffffffffffffffffffffffff169060200190929190803515159060200190929190505050611be8565b005b610420600480360360408110156103ea57600080fd5b81019080803573ffffffffffffffffffffffffffffffffffffffff16906020019092919080359060200190929190505050611e3d565b005b6105726004803603604081101561043857600080fd5b810190808035906020019064010000000081111561045557600080fd5b82018360208201111561046757600080fd5b8035906020019184600183028401116401000000008311171561048957600080fd5b91908080601f016020809104026020016040519081016040528093929190818152602001838380828437600081840152601f19601f820116905080830192505050505050509192919290803590602001906401000000008111156104ec57600080fd5b8201836020820111156104fe57600080fd5b8035906020019184600183028401116401000000008311171561052057600080fd5b91908080601f016020809104026020016040519081016040528093929190818152602001838380828437600081840152601f19601f82011690508083019250505050505050919291929050505061224c565b005b6105b66004803603602081101561058a57600080fd5b81019080803573ffffffffffffffffffffffffffffffffffffffff1690602001909291905050506123ae565b604051808773ffffffffffffffffffffffffffffffffffffffff1673ffffffffffffffffffffffffffffffffffffffff16815260200180602001806020018060200186151515158152602001858152602001848103845289818151815260200191508051906020019080838360005b83811015610640578082015181840152602081019050610625565b50505050905090810190601f16801561066d5780820380516001836020036101000a031916815260200191505b50848103835288818151815260200191508051906020019080838360005b838110156106a657808201518184015260208101905061068b565b50505050905090810190601f1680156106d35780820380516001836020036101000a031916815260200191505b50848103825287818151815260200191508051906020019080838360005b8381101561070c5780820151818401526020810190506106f1565b50505050905090810190601f1680156107395780820380516001836020036101000a031916815260200191505b50995050505050505050505060405180910390f35b6107906004803603602081101561076457600080fd5b81019080803573ffffffffffffffffffffffffffffffffffffffff1690602001909291905050506125df565b6040518080602001828103825283818151815260200191508051906020019060200280838360005b838110156107d35780820151818401526020810190506107b8565b505050509050019250505060405180910390f35b610b1d60048036036101008110156107fe57600080fd5b810190808035906020019064010000000081111561081b57600080fd5b82018360208201111561082d57600080fd5b8035906020019184600183028401116401000000008311171561084f57600080fd5b91908080601f016020809104026020016040519081016040528093929190818152602001838380828437600081840152601f19601f82011690508083019250505050505050919291929080359060200190929190803590602001906401000000008111156108bc57600080fd5b8201836020820111156108ce57600080fd5b803590602001918460018302840111640100000000831117156108f057600080fd5b91908080601f016020809104026020016040519081016040528093929190818152602001838380828437600081840152601f19601f8201169050808301925050505050505091929192908035906020019064010000000081111561095357600080fd5b82018360208201111561096557600080fd5b8035906020019184600183028401116401000000008311171561098757600080fd5b91908080601f016020809104026020016040519081016040528093929190818152602001838380828437600081840152601f19601f8201169050808301925050505050505091929192908035906020019092919080351515906020019092919080359060200190640100000000811115610a0057600080fd5b820183602082011115610a1257600080fd5b80359060200191846001830284011164010000000083111715610a3457600080fd5b91908080601f016020809104026020016040519081016040528093929190818152602001838380828437600081840152601f19601f82011690508083019250505050505050919291929080359060200190640100000000811115610a9757600080fd5b820183602082011115610aa957600080fd5b80359060200191846001830284011164010000000083111715610acb57600080fd5b91908080601f016020809104026020016040519081016040528093929190818152602001838380828437600081840152601f19601f820116905080830192505050505050509192919290505050612a62565b005b610b4b60048036036020811015610b3557600080fd5b8101908080359060200190929190505050612f2b565b6040518080602001828103825283818151815260200191508051906020019060200280838360005b83811015610b8e578082015181840152602081019050610b73565b505050509050019250505060405180910390f35b610be460048036036020811015610bb857600080fd5b81019080803573ffffffffffffffffffffffffffffffffffffffff169060200190929190505050613393565b005b610d3660048036036040811015610bfc57600080fd5b8101908080359060200190640100000000811115610c1957600080fd5b820183602082011115610c2b57600080fd5b80359060200191846001830284011164010000000083111715610c4d57600080fd5b91908080601f016020809104026020016040519081016040528093929190818152602001838380828437600081840152601f19601f82011690508083019250505050505050919291929080359060200190640100000000811115610cb057600080fd5b820183602082011115610cc257600080fd5b80359060200191846001830284011164010000000083111715610ce457600080fd5b91908080601f016020809104026020016040519081016040528093929190818152602001838380828437600081840152601f19601f820116905080830192505050505050509192919290505050613481565b005b610d8460048036036040811015610d4e57600080fd5b8101908080359060200190929190803573ffffffffffffffffffffffffffffffffffffffff1690602001909291905050506136f5565b005b610d8e61394c565b604051808273ffffffffffffffffffffffffffffffffffffffff1673ffffffffffffffffffffffffffffffffffffffff16815260200191505060405180910390f35b610dfc60048036036020811015610de657600080fd5b8101908080359060200190929190505050613971565b60405180806020018a815260200180602001806020018981526020018815151515815260200180602001806020018715151515815260200186810386528f818151815260200191508051906020019080838360005b83811015610e6c578082015181840152602081019050610e51565b50505050905090810190601f168015610e995780820380516001836020036101000a031916815260200191505b5086810385528d818151815260200191508051906020019080838360005b83811015610ed2578082015181840152602081019050610eb7565b50505050905090810190601f168015610eff5780820380516001836020036101000a031916815260200191505b5086810384528c818151815260200191508051906020019080838360005b83811015610f38578082015181840152602081019050610f1d565b50505050905090810190601f168015610f655780820380516001836020036101000a031916815260200191505b50868103835289818151815260200191508051906020019080838360005b83811015610f9e578082015181840152602081019050610f83565b50505050905090810190601f168015610fcb5780820380516001836020036101000a031916815260200191505b50868103825288818151815260200191508051906020019080838360005b83811015611004578082015181840152602081019050610fe9565b50505050905090810190601f1680156110315780820380516001836020036101000a031916815260200191505b509e50505050505050505050505050505060405180910390f35b61108d6004803603602081101561106157600080fd5b81019080803573ffffffffffffffffffffffffffffffffffffffff169060200190929190505050613cde565b60405180838152602001821515151581526020019250505060405180910390f35b6110da600480360360208110156110c457600080fd5b8101908080359060200190929190505050613d88565b604051808273ffffffffffffffffffffffffffffffffffffffff1673ffffffffffffffffffffffffffffffffffffffff16815260200191505060405180910390f35b611336600480360361010081101561113357600080fd5b81019080803590602001909291908035906020019064010000000081111561115a57600080fd5b82018360208201111561116c57600080fd5b8035906020019184600183028401116401000000008311171561118e57600080fd5b91908080601f016020809104026020016040519081016040528093929190818152602001838380828437600081840152601f19601f82011690508083019250505050505050919291929080359060200190929190803590602001909291908035906020019064010000000081111561120557600080fd5b82018360208201111561121757600080fd5b8035906020019184600183028401116401000000008311171561123957600080fd5b91908080601f016020809104026020016040519081016040528093929190818152602001838380828437600081840152601f19601f8201169050808301925050505050505091929192908035906020019064010000000081111561129c57600080fd5b8201836020820111156112ae57600080fd5b803590602001918460018302840111640100000000831117156112d057600080fd5b91908080601f016020809104026020016040519081016040528093929190818152602001838380828437600081840152601f19601f8201169050808301925050505050505091929192908035906020019092919080359060200190929190505050613dbb565b005b61151f6004803603606081101561134e57600080fd5b810190808035906020019064010000000081111561136b57600080fd5b82018360208201111561137d57600080fd5b8035906020019184600183028401116401000000008311171561139f57600080fd5b91908080601f016020809104026020016040519081016040528093929190818152602001838380828437600081840152601f19601f8201169050808301925050505050505091929192908035906020019064010000000081111561140257600080fd5b82018360208201111561141457600080fd5b8035906020019184600183028401116401000000008311171561143657600080fd5b91908080601f016020809104026020016040519081016040528093929190818152602001838380828437600081840152601f19601f8201169050808301925050505050505091929192908035906020019064010000000081111561149957600080fd5b8201836020820111156114ab57600080fd5b803590602001918460018302840111640100000000831117156114cd57600080fd5b91908080601f016020809104026020016040519081016040528093929190818152602001838380828437600081840152601f19601f820116905080830192505050505050509192919290505050614098565b005b6115596004803603604081101561153757600080fd5b81019080803590602001909291908035151590602001909291905050506144ad565b005b61159d6004803603602081101561157157600080fd5b81019080803573ffffffffffffffffffffffffffffffffffffffff1690602001909291905050506146de565b005b6115e1600480360360208110156115b557600080fd5b81019080803573ffffffffffffffffffffffffffffffffffffffff16906020019092919050505061482f565b60405180806020018673ffffffffffffffffffffffffffffffffffffffff1673ffffffffffffffffffffffffffffffffffffffff1681526020018060200180602001858152602001848103845289818151815260200191508051906020019080838360005b83811015611661578082015181840152602081019050611646565b50505050905090810190601f16801561168e5780820380516001836020036101000a031916815260200191505b50848103835287818151815260200191508051906020019080838360005b838110156116c75780820151818401526020810190506116ac565b50505050905090810190601f1680156116f45780820380516001836020036101000a031916815260200191505b50848103825286818151815260200191508051906020019080838360005b8381101561172d578082015181840152602081019050611712565b50505050905090810190601f16801561175a5780820380516001836020036101000a031916815260200191505b509850505050505050505060405180910390f35b6117ba6004803603604081101561178457600080fd5b8101908080359060200190929190803573ffffffffffffffffffffffffffffffffffffffff169060200190929190505050614a4d565b005b6119a3600480360360608110156117d257600080fd5b81019080803590602001906401000000008111156117ef57600080fd5b82018360208201111561180157600080fd5b8035906020019184600183028401116401000000008311171561182357600080fd5b91908080601f016020809104026020016040519081016040528093929190818152602001838380828437600081840152601f19601f8201169050808301925050505050505091929192908035906020019064010000000081111561188657600080fd5b82018360208201111561189857600080fd5b803590602001918460018302840111640100000000831117156118ba57600080fd5b91908080601f016020809104026020016040519081016040528093929190818152602001838380828437600081840152601f19601f8201169050808301925050505050505091929192908035906020019064010000000081111561191d57600080fd5b82018360208201111561192f57600080fd5b8035906020019184600183028401116401000000008311171561195157600080fd5b91908080601f016020809104026020016040519081016040528093929190818152602001838380828437600081840152601f19601f820116905080830192505050505050509192919290505050614b59565b005b60076020528060005260406000206000915054906101000a900473ffffffffffffffffffffffffffffffffffffffff1681565b60025481565b6003602052806000526040600020600091509050806000015490806001018054600181600116156101000203166002900480601f016020809104026020016040519081016040528092919081815260200182805460018160011615610100020316600290048015611a905780601f10611a6557610100808354040283529160200191611a90565b820191906000526020600020905b815481529060010190602001808311611a7357829003601f168201915b505050505090806002015490806003015490806004018054600181600116156101000203166002900480601f016020809104026020016040519081016040528092919081815260200182805460018160011615610100020316600290048015611b3a5780601f10611b0f57610100808354040283529160200191611b3a565b820191906000526020600020905b815481529060010190602001808311611b1d57829003601f168201915b505050505090806005015490806006018054600181600116156101000203166002900480601f016020809104026020016040519081016040528092919081815260200182805460018160011615610100020316600290048015611bde5780601f10611bb357610100808354040283529160200191611bde565b820191906000526020600020905b815481529060010190602001808311611bc157829003601f168201915b5050505050905087565b336060600460008373ffffffffffffffffffffffffffffffffffffffff1673ffffffffffffffffffffffffffffffffffffffff1681526020019081526020016000206002018054600181600116156101000203166002900480601f016020809104026020016040519081016040528092919081815260200182805460018160011615610100020316600290048015611cc15780601f10611c9657610100808354040283529160200191611cc1565b820191906000526020600020905b815481529060010190602001808311611ca457829003601f168201915b5050505050905060405160200180807f6e6f746172696f00000000000000000000000000000000000000000000000000815250600701905060405160208183030381529060405280519060200120816040516020018082805190602001908083835b60208310611d465780518252602082019150602081019050602083039250611d23565b6001836020036101000a0380198251168184511680821785525050505050509050019150506040516020818303038152906040528051906020012014611dd7576040517f08c379a0000000000000000000000000000000000000000000000000000000008152600401808060200182810382526026815260200180615e6f6026913960400191505060405180910390fd5b6000600560008673ffffffffffffffffffffffffffffffffffffffff1673ffffffffffffffffffffffffffffffffffffffff1681526020019081526020016000209050838160040160006101000a81548160ff0219169083151502179055505050505050565b336060600460008373ffffffffffffffffffffffffffffffffffffffff1673ffffffffffffffffffffffffffffffffffffffff1681526020019081526020016000206002018054600181600116156101000203166002900480601f016020809104026020016040519081016040528092919081815260200182805460018160011615610100020316600290048015611f165780601f10611eeb57610100808354040283529160200191611f16565b820191906000526020600020905b815481529060010190602001808311611ef957829003601f168201915b5050505050905060405160200180807f6e6f746172696f00000000000000000000000000000000000000000000000000815250600701905060405160208183030381529060405280519060200120816040516020018082805190602001908083835b60208310611f9b5780518252602082019150602081019050602083039250611f78565b6001836020036101000a038019825116818451168082178552505050505050905001915050604051602081830303815290604052805190602001201461202c576040517f08c379a0000000000000000000000000000000000000000000000000000000008152600401808060200182810382526026815260200180615e6f6026913960400191505060405180910390fd5b838073ffffffffffffffffffffffffffffffffffffffff16600460008373ffffffffffffffffffffffffffffffffffffffff1673ffffffffffffffffffffffffffffffffffffffff16815260200190815260200160002060010160009054906101000a900473ffffffffffffffffffffffffffffffffffffffff1673ffffffffffffffffffffffffffffffffffffffff1614612113576040517f08c379a0000000000000000000000000000000000000000000000000000000008152600401808060200182810382526026815260200180615f0b6026913960400191505060405180910390fd5b600073ffffffffffffffffffffffffffffffffffffffff168573ffffffffffffffffffffffffffffffffffffffff1614156121b6576040517f08c379a00000000000000000000000000000000000000000000000000000000081526004018080602001828103825260208152602001807f4c61206e7565766120646972656363696f6e206e6f2065732076c3a16c69646181525060200191505060405180910390fd5b6000600185815481106121c557fe5b9060005260206000209060090201905060018160080160006101000a81548160ff021916908315150217905550856006600087815260200190815260200160002060006101000a81548173ffffffffffffffffffffffffffffffffffffffff021916908373ffffffffffffffffffffffffffffffffffffffff160217905550505050505050565b338073ffffffffffffffffffffffffffffffffffffffff16600460008373ffffffffffffffffffffffffffffffffffffffff1673ffffffffffffffffffffffffffffffffffffffff16815260200190815260200160002060010160009054906101000a900473ffffffffffffffffffffffffffffffffffffffff1673ffffffffffffffffffffffffffffffffffffffff1614612333576040517f08c379a0000000000000000000000000000000000000000000000000000000008152600401808060200182810382526026815260200180615f0b6026913960400191505060405180910390fd5b6000600460003373ffffffffffffffffffffffffffffffffffffffff1673ffffffffffffffffffffffffffffffffffffffff16815260200190815260200160002090508381600001908051906020019061238e929190615c29565b50828160030190805190602001906123a7929190615c29565b5050505050565b60056020528060005260406000206000915090508060000160009054906101000a900473ffffffffffffffffffffffffffffffffffffffff1690806001018054600181600116156101000203166002900480601f0160208091040260200160405190810160405280929190818152602001828054600181600116156101000203166002900480156124805780601f1061245557610100808354040283529160200191612480565b820191906000526020600020905b81548152906001019060200180831161246357829003601f168201915b505050505090806002018054600181600116156101000203166002900480601f01602080910402602001604051908101604052809291908181526020018280546001816001161561010002031660029004801561251e5780601f106124f35761010080835404028352916020019161251e565b820191906000526020600020905b81548152906001019060200180831161250157829003601f168201915b505050505090806003018054600181600116156101000203166002900480601f0160208091040260200160405190810160405280929190818152602001828054600181600116156101000203166002900480156125bc5780601f10612591576101008083540402835291602001916125bc565b820191906000526020600020905b81548152906001019060200180831161259f57829003601f168201915b5050505050908060040160009054906101000a900460ff16908060050154905086565b60606125e9615ca9565b600560008473ffffffffffffffffffffffffffffffffffffffff1673ffffffffffffffffffffffffffffffffffffffff1681526020019081526020016000206040518060c00160405290816000820160009054906101000a900473ffffffffffffffffffffffffffffffffffffffff1673ffffffffffffffffffffffffffffffffffffffff1673ffffffffffffffffffffffffffffffffffffffff168152602001600182018054600181600116156101000203166002900480601f0160208091040260200160405190810160405280929190818152602001828054600181600116156101000203166002900480156127225780601f106126f757610100808354040283529160200191612722565b820191906000526020600020905b81548152906001019060200180831161270557829003601f168201915b50505050508152602001600282018054600181600116156101000203166002900480601f0160208091040260200160405190810160405280929190818152602001828054600181600116156101000203166002900480156127c45780601f10612799576101008083540402835291602001916127c4565b820191906000526020600020905b8154815290600101906020018083116127a757829003601f168201915b50505050508152602001600382018054600181600116156101000203166002900480601f0160208091040260200160405190810160405280929190818152602001828054600181600116156101000203166002900480156128665780601f1061283b57610100808354040283529160200191612866565b820191906000526020600020905b81548152906001019060200180831161284957829003601f168201915b505050505081526020016004820160009054906101000a900460ff16151515158152602001600582015481525050905060608160a001516040519080825280602002602001820160405280156128cb5781602001602082028038833980820191505090505b5090506000600960008673ffffffffffffffffffffffffffffffffffffffff1673ffffffffffffffffffffffffffffffffffffffff1681526020019081526020016000206000600173ffffffffffffffffffffffffffffffffffffffff1673ffffffffffffffffffffffffffffffffffffffff16815260200190815260200160002060009054906101000a900473ffffffffffffffffffffffffffffffffffffffff16905060008090505b8360a00151811015612a5657600061298d83613cde565b5090508084838151811061299d57fe5b602002602001018181525050600960008873ffffffffffffffffffffffffffffffffffffffff1673ffffffffffffffffffffffffffffffffffffffff16815260200190815260200160002060008473ffffffffffffffffffffffffffffffffffffffff1673ffffffffffffffffffffffffffffffffffffffff16815260200190815260200160002060009054906101000a900473ffffffffffffffffffffffffffffffffffffffff169250508080600101915050612976565b50819350505050919050565b336060600460008373ffffffffffffffffffffffffffffffffffffffff1673ffffffffffffffffffffffffffffffffffffffff1681526020019081526020016000206002018054600181600116156101000203166002900480601f016020809104026020016040519081016040528092919081815260200182805460018160011615610100020316600290048015612b3b5780601f10612b1057610100808354040283529160200191612b3b565b820191906000526020600020905b815481529060010190602001808311612b1e57829003601f168201915b5050505050905060405160200180807f6e6f746172696f00000000000000000000000000000000000000000000000000815250600701905060405160208183030381529060405280519060200120816040516020018082805190602001908083835b60208310612bc05780518252602082019150602081019050602083039250612b9d565b6001836020036101000a0380198251168184511680821785525050505050509050019150506040516020818303038152906040528051906020012014612c51576040517f08c379a0000000000000000000000000000000000000000000000000000000008152600401808060200182810382526026815260200180615e6f6026913960400191505060405180910390fd5b612c59615cf7565b8a81600001819052508981602001818152505088816040018190525087816060018190525086816080018181525050858160a0019015159081151581525050848160c00181905250838160e00181905250600181908060018154018082558091505090600182039060005260206000209060090201600090919290919091506000820151816000019080519060200190612cf4929190615d47565b50602082015181600101556040820151816002019080519060200190612d1b929190615d47565b506060820151816003019080519060200190612d38929190615d47565b506080820151816004015560a08201518160050160006101000a81548160ff02191690831515021790555060c0820151816006019080519060200190612d7f929190615d47565b5060e0820151816007019080519060200190612d9c929190615d47565b506101008201518160080160006101000a81548160ff0219169083151502179055505050506000600660006001808054905003815260200190815260200160002060006101000a81548173ffffffffffffffffffffffffffffffffffffffff021916908373ffffffffffffffffffffffffffffffffffffffff16021790555060026000815480929190600101919050555033600760006001808054905003815260200190815260200160002060006101000a81548173ffffffffffffffffffffffffffffffffffffffff021916908373ffffffffffffffffffffffffffffffffffffffff160217905550600160086000600180805490500381526020019081526020016000206000600173ffffffffffffffffffffffffffffffffffffffff1673ffffffffffffffffffffffffffffffffffffffff16815260200190815260200160002060006101000a81548173ffffffffffffffffffffffffffffffffffffffff021916908373ffffffffffffffffffffffffffffffffffffffff1602179055505050505050505050505050565b606060006006600084815260200190815260200160002060009054906101000a900473ffffffffffffffffffffffffffffffffffffffff169050612f6d615dc7565b600460008373ffffffffffffffffffffffffffffffffffffffff1673ffffffffffffffffffffffffffffffffffffffff1681526020019081526020016000206040518060a0016040529081600082018054600181600116156101000203166002900480601f0160208091040260200160405190810160405280929190818152602001828054600181600116156101000203166002900480156130505780601f1061302557610100808354040283529160200191613050565b820191906000526020600020905b81548152906001019060200180831161303357829003601f168201915b505050505081526020016001820160009054906101000a900473ffffffffffffffffffffffffffffffffffffffff1673ffffffffffffffffffffffffffffffffffffffff1673ffffffffffffffffffffffffffffffffffffffff168152602001600282018054600181600116156101000203166002900480601f0160208091040260200160405190810160405280929190818152602001828054600181600116156101000203166002900480156131485780601f1061311d57610100808354040283529160200191613148565b820191906000526020600020905b81548152906001019060200180831161312b57829003601f168201915b50505050508152602001600382018054600181600116156101000203166002900480601f0160208091040260200160405190810160405280929190818152602001828054600181600116156101000203166002900480156131ea5780601f106131bf576101008083540402835291602001916131ea565b820191906000526020600020905b8154815290600101906020018083116131cd57829003601f168201915b505050505081526020016004820154815250509050606081608001516040519080825280602002602001820160405280156132345781602001602082028038833980820191505090505b5090506000600860008781526020019081526020016000206000600173ffffffffffffffffffffffffffffffffffffffff1673ffffffffffffffffffffffffffffffffffffffff16815260200190815260200160002060009054906101000a900473ffffffffffffffffffffffffffffffffffffffff16905060008090505b836080015181101561338657818382815181106132cc57fe5b602002602001019073ffffffffffffffffffffffffffffffffffffffff16908173ffffffffffffffffffffffffffffffffffffffff16815250506008600088815260200190815260200160002060008373ffffffffffffffffffffffffffffffffffffffff1673ffffffffffffffffffffffffffffffffffffffff16815260200190815260200160002060009054906101000a900473ffffffffffffffffffffffffffffffffffffffff16915080806001019150506132b3565b5081945050505050919050565b6000809054906101000a900473ffffffffffffffffffffffffffffffffffffffff1673ffffffffffffffffffffffffffffffffffffffff163373ffffffffffffffffffffffffffffffffffffffff16146133ec57600080fd5b6000600460008373ffffffffffffffffffffffffffffffffffffffff1673ffffffffffffffffffffffffffffffffffffffff16815260200190815260200160002090506040518060400160405280600781526020017f6e6f746172696f0000000000000000000000000000000000000000000000000081525081600201908051906020019061347c929190615c29565b505050565b33600073ffffffffffffffffffffffffffffffffffffffff16600460008373ffffffffffffffffffffffffffffffffffffffff1673ffffffffffffffffffffffffffffffffffffffff16815260200190815260200160002060010160009054906101000a900473ffffffffffffffffffffffffffffffffffffffff1673ffffffffffffffffffffffffffffffffffffffff1614613569576040517f08c379a000000000000000000000000000000000000000000000000000000000815260040180806020018281038252602b815260200180615f62602b913960400191505060405180910390fd5b613571615dc7565b8381600001819052506040518060400160405280600781526020017f7573756172696f00000000000000000000000000000000000000000000000000815250816040018190525033816020019073ffffffffffffffffffffffffffffffffffffffff16908173ffffffffffffffffffffffffffffffffffffffff1681525050828160600181905250600081608001818152505080600460003373ffffffffffffffffffffffffffffffffffffffff1673ffffffffffffffffffffffffffffffffffffffff1681526020019081526020016000206000820151816000019080519060200190613660929190615d47565b5060208201518160010160006101000a81548173ffffffffffffffffffffffffffffffffffffffff021916908373ffffffffffffffffffffffffffffffffffffffff16021790555060408201518160020190805190602001906136c4929190615d47565b5060608201518160030190805190602001906136e1929190615d47565b506080820151816004015590505050505050565b81338073ffffffffffffffffffffffffffffffffffffffff166006600084815260200190815260200160002060009054906101000a900473ffffffffffffffffffffffffffffffffffffffff1673ffffffffffffffffffffffffffffffffffffffff16146137ae576040517f08c379a0000000000000000000000000000000000000000000000000000000008152600401808060200182810382526031815260200180615f316031913960400191505060405180910390fd5b60011515600185815481106137bf57fe5b906000526020600020906009020160080160009054906101000a900460ff16151514613853576040517f08c379a000000000000000000000000000000000000000000000000000000000815260040180806020018281038252601d8152602001807f456c20636572746966696361646f206e6f20657374612061637469766f00000081525060200191505060405180910390fd5b60011515600560008573ffffffffffffffffffffffffffffffffffffffff1673ffffffffffffffffffffffffffffffffffffffff16815260200190815260200160002060040160009054906101000a900460ff161515146138ff576040517f08c379a0000000000000000000000000000000000000000000000000000000008152600401808060200182810382526021815260200180615e956021913960400191505060405180910390fd5b6139098385614cd5565b6139466006600086815260200190815260200160002060009054906101000a900473ffffffffffffffffffffffffffffffffffffffff1684614f0e565b50505050565b6000809054906101000a900473ffffffffffffffffffffffffffffffffffffffff1681565b6001818154811061397e57fe5b9060005260206000209060090201600091509050806000018054600181600116156101000203166002900480601f016020809104026020016040519081016040528092919081815260200182805460018160011615610100020316600290048015613a2a5780601f106139ff57610100808354040283529160200191613a2a565b820191906000526020600020905b815481529060010190602001808311613a0d57829003601f168201915b505050505090806001015490806002018054600181600116156101000203166002900480601f016020809104026020016040519081016040528092919081815260200182805460018160011615610100020316600290048015613ace5780601f10613aa357610100808354040283529160200191613ace565b820191906000526020600020905b815481529060010190602001808311613ab157829003601f168201915b505050505090806003018054600181600116156101000203166002900480601f016020809104026020016040519081016040528092919081815260200182805460018160011615610100020316600290048015613b6c5780601f10613b4157610100808354040283529160200191613b6c565b820191906000526020600020905b815481529060010190602001808311613b4f57829003601f168201915b5050505050908060040154908060050160009054906101000a900460ff1690806006018054600181600116156101000203166002900480601f016020809104026020016040519081016040528092919081815260200182805460018160011615610100020316600290048015613c235780601f10613bf857610100808354040283529160200191613c23565b820191906000526020600020905b815481529060010190602001808311613c0657829003601f168201915b505050505090806007018054600181600116156101000203166002900480601f016020809104026020016040519081016040528092919081815260200182805460018160011615610100020316600290048015613cc15780601f10613c9657610100808354040283529160200191613cc1565b820191906000526020600020905b815481529060010190602001808311613ca457829003601f168201915b5050505050908060080160009054906101000a900460ff16905089565b6000806000809050600080905060008090505b600180549050811015613d7a578573ffffffffffffffffffffffffffffffffffffffff166006600083815260200190815260200160002060009054906101000a900473ffffffffffffffffffffffffffffffffffffffff1673ffffffffffffffffffffffffffffffffffffffff161415613d6d57809250600191505b8080600101915050613cf1565b508181935093505050915091565b60066020528060005260406000206000915054906101000a900473ffffffffffffffffffffffffffffffffffffffff1681565b336060600460008373ffffffffffffffffffffffffffffffffffffffff1673ffffffffffffffffffffffffffffffffffffffff1681526020019081526020016000206002018054600181600116156101000203166002900480601f016020809104026020016040519081016040528092919081815260200182805460018160011615610100020316600290048015613e945780601f10613e6957610100808354040283529160200191613e94565b820191906000526020600020905b815481529060010190602001808311613e7757829003601f168201915b5050505050905060405160200180807f6e6f746172696f00000000000000000000000000000000000000000000000000815250600701905060405160208183030381529060405280519060200120816040516020018082805190602001908083835b60208310613f195780518252602082019150602081019050602083039250613ef6565b6001836020036101000a0380198251168184511680821785525050505050509050019150506040516020818303038152906040528051906020012014613faa576040517f08c379a0000000000000000000000000000000000000000000000000000000008152600401808060200182810382526026815260200180615e6f6026913960400191505060405180910390fd5b613fb2615e0c565b8a8160000181815250508981602001819052508881604001818152505087816060018181525050868160800181905250858160c00181905250848160a0018181525050806003600086815260200190815260200160002060008201518160000155602082015181600101908051906020019061402f929190615d47565b5060408201518160020155606082015181600301556080820151816004019080519060200190614060929190615d47565b5060a0820151816005015560c0820151816006019080519060200190614087929190615d47565b509050505050505050505050505050565b33600073ffffffffffffffffffffffffffffffffffffffff16600460008373ffffffffffffffffffffffffffffffffffffffff1673ffffffffffffffffffffffffffffffffffffffff16815260200190815260200160002060010160009054906101000a900473ffffffffffffffffffffffffffffffffffffffff1673ffffffffffffffffffffffffffffffffffffffff1614614180576040517f08c379a000000000000000000000000000000000000000000000000000000000815260040180806020018281038252602b815260200180615f62602b913960400191505060405180910390fd5b600073ffffffffffffffffffffffffffffffffffffffff16600560008373ffffffffffffffffffffffffffffffffffffffff1673ffffffffffffffffffffffffffffffffffffffff16815260200190815260200160002060000160009054906101000a900473ffffffffffffffffffffffffffffffffffffffff1673ffffffffffffffffffffffffffffffffffffffff1614614267576040517f08c379a000000000000000000000000000000000000000000000000000000000815260040180806020018281038252602d815260200180615eb6602d913960400191505060405180910390fd5b61426f615ca9565b33816000019073ffffffffffffffffffffffffffffffffffffffff16908173ffffffffffffffffffffffffffffffffffffffff1681525050848160200181905250838160400181905250828160600181905250600081608001901515908115158152505060008160a001818152505080600560003373ffffffffffffffffffffffffffffffffffffffff1673ffffffffffffffffffffffffffffffffffffffff16815260200190815260200160002060008201518160000160006101000a81548173ffffffffffffffffffffffffffffffffffffffff021916908373ffffffffffffffffffffffffffffffffffffffff1602179055506020820151816001019080519060200190614381929190615d47565b50604082015181600201908051906020019061439e929190615d47565b5060608201518160030190805190602001906143bb929190615d47565b5060808201518160040160006101000a81548160ff02191690831515021790555060a082015181600501559050506001600960003373ffffffffffffffffffffffffffffffffffffffff1673ffffffffffffffffffffffffffffffffffffffff1681526020019081526020016000206000600173ffffffffffffffffffffffffffffffffffffffff1673ffffffffffffffffffffffffffffffffffffffff16815260200190815260200160002060006101000a81548173ffffffffffffffffffffffffffffffffffffffff021916908373ffffffffffffffffffffffffffffffffffffffff1602179055505050505050565b336060600460008373ffffffffffffffffffffffffffffffffffffffff1673ffffffffffffffffffffffffffffffffffffffff1681526020019081526020016000206002018054600181600116156101000203166002900480601f0160208091040260200160405190810160405280929190818152602001828054600181600116156101000203166002900480156145865780601f1061455b57610100808354040283529160200191614586565b820191906000526020600020905b81548152906001019060200180831161456957829003601f168201915b5050505050905060405160200180807f6e6f746172696f00000000000000000000000000000000000000000000000000815250600701905060405160208183030381529060405280519060200120816040516020018082805190602001908083835b6020831061460b57805182526020820191506020810190506020830392506145e8565b6001836020036101000a038019825116818451168082178552505050505050905001915050604051602081830303815290604052805190602001201461469c576040517f08c379a0000000000000000000000000000000000000000000000000000000008152600401808060200182810382526026815260200180615e6f6026913960400191505060405180910390fd5b6000600185815481106146ab57fe5b90600052602060002090600902019050838160080160006101000a81548160ff0219169083151502179055505050505050565b6000809054906101000a900473ffffffffffffffffffffffffffffffffffffffff1673ffffffffffffffffffffffffffffffffffffffff163373ffffffffffffffffffffffffffffffffffffffff161461473757600080fd5b600073ffffffffffffffffffffffffffffffffffffffff168173ffffffffffffffffffffffffffffffffffffffff16141561477157600080fd5b8073ffffffffffffffffffffffffffffffffffffffff166000809054906101000a900473ffffffffffffffffffffffffffffffffffffffff1673ffffffffffffffffffffffffffffffffffffffff167f8be0079c531659141344cd1fd0a4f28419497f9722a3daafe3b4186f6b6457e060405160405180910390a3806000806101000a81548173ffffffffffffffffffffffffffffffffffffffff021916908373ffffffffffffffffffffffffffffffffffffffff16021790555050565b6004602052806000526040600020600091509050806000018054600181600116156101000203166002900480601f0160208091040260200160405190810160405280929190818152602001828054600181600116156101000203166002900480156148db5780601f106148b0576101008083540402835291602001916148db565b820191906000526020600020905b8154815290600101906020018083116148be57829003601f168201915b5050505050908060010160009054906101000a900473ffffffffffffffffffffffffffffffffffffffff1690806002018054600181600116156101000203166002900480601f01602080910402602001604051908101604052809291908181526020018280546001816001161561010002031660029004801561499f5780601f106149745761010080835404028352916020019161499f565b820191906000526020600020905b81548152906001019060200180831161498257829003601f168201915b505050505090806003018054600181600116156101000203166002900480601f016020809104026020016040519081016040528092919081815260200182805460018160011615610100020316600290048015614a3d5780601f10614a1257610100808354040283529160200191614a3d565b820191906000526020600020905b815481529060010190602001808311614a2057829003601f168201915b5050505050908060040154905085565b81338073ffffffffffffffffffffffffffffffffffffffff166006600084815260200190815260200160002060009054906101000a900473ffffffffffffffffffffffffffffffffffffffff1673ffffffffffffffffffffffffffffffffffffffff1614614b06576040517f08c379a0000000000000000000000000000000000000000000000000000000008152600401808060200182810382526031815260200180615f316031913960400191505060405180910390fd5b614b108385615192565b60006006600086815260200190815260200160002060009054906101000a900473ffffffffffffffffffffffffffffffffffffffff169050614b5281856153d9565b5050505050565b338073ffffffffffffffffffffffffffffffffffffffff16600560008373ffffffffffffffffffffffffffffffffffffffff1673ffffffffffffffffffffffffffffffffffffffff16815260200190815260200160002060000160009054906101000a900473ffffffffffffffffffffffffffffffffffffffff1673ffffffffffffffffffffffffffffffffffffffff1614614c40576040517f08c379a0000000000000000000000000000000000000000000000000000000008152600401808060200182810382526028815260200180615ee36028913960400191505060405180910390fd5b6000600560003373ffffffffffffffffffffffffffffffffffffffff1673ffffffffffffffffffffffffffffffffffffffff168152602001908152602001600020905084816001019080519060200190614c9b929190615c29565b5083816002019080519060200190614cb4929190615c29565b5082816003019080519060200190614ccd929190615c29565b505050505050565b614cdf828261566b565b15614ce957600080fd5b600860008281526020019081526020016000206000600173ffffffffffffffffffffffffffffffffffffffff1673ffffffffffffffffffffffffffffffffffffffff16815260200190815260200160002060009054906101000a900473ffffffffffffffffffffffffffffffffffffffff166008600083815260200190815260200160002060008473ffffffffffffffffffffffffffffffffffffffff1673ffffffffffffffffffffffffffffffffffffffff16815260200190815260200160002060006101000a81548173ffffffffffffffffffffffffffffffffffffffff021916908373ffffffffffffffffffffffffffffffffffffffff16021790555081600860008381526020019081526020016000206000600173ffffffffffffffffffffffffffffffffffffffff1673ffffffffffffffffffffffffffffffffffffffff16815260200190815260200160002060006101000a81548173ffffffffffffffffffffffffffffffffffffffff021916908373ffffffffffffffffffffffffffffffffffffffff16021790555060006006600083815260200190815260200160002060009054906101000a900473ffffffffffffffffffffffffffffffffffffffff1690506000600460008373ffffffffffffffffffffffffffffffffffffffff1673ffffffffffffffffffffffffffffffffffffffff1681526020019081526020016000209050806004016000815480929190600101919050555050505050565b614f188282615715565b15614f2257600080fd5b600960008273ffffffffffffffffffffffffffffffffffffffff1673ffffffffffffffffffffffffffffffffffffffff1681526020019081526020016000206000600173ffffffffffffffffffffffffffffffffffffffff1673ffffffffffffffffffffffffffffffffffffffff16815260200190815260200160002060009054906101000a900473ffffffffffffffffffffffffffffffffffffffff16600960008373ffffffffffffffffffffffffffffffffffffffff1673ffffffffffffffffffffffffffffffffffffffff16815260200190815260200160002060008473ffffffffffffffffffffffffffffffffffffffff1673ffffffffffffffffffffffffffffffffffffffff16815260200190815260200160002060006101000a81548173ffffffffffffffffffffffffffffffffffffffff021916908373ffffffffffffffffffffffffffffffffffffffff16021790555081600960008373ffffffffffffffffffffffffffffffffffffffff1673ffffffffffffffffffffffffffffffffffffffff1681526020019081526020016000206000600173ffffffffffffffffffffffffffffffffffffffff1673ffffffffffffffffffffffffffffffffffffffff16815260200190815260200160002060006101000a81548173ffffffffffffffffffffffffffffffffffffffff021916908373ffffffffffffffffffffffffffffffffffffffff1602179055506000600560008373ffffffffffffffffffffffffffffffffffffffff1673ffffffffffffffffffffffffffffffffffffffff16815260200190815260200160002090508060050160008154809291906001019190505550505050565b61519c828261566b565b6151a557600080fd5b60006151b183836157eb565b90506008600083815260200190815260200160002060008473ffffffffffffffffffffffffffffffffffffffff1673ffffffffffffffffffffffffffffffffffffffff16815260200190815260200160002060009054906101000a900473ffffffffffffffffffffffffffffffffffffffff166008600084815260200190815260200160002060008373ffffffffffffffffffffffffffffffffffffffff1673ffffffffffffffffffffffffffffffffffffffff16815260200190815260200160002060006101000a81548173ffffffffffffffffffffffffffffffffffffffff021916908373ffffffffffffffffffffffffffffffffffffffff16021790555060006008600084815260200190815260200160002060008573ffffffffffffffffffffffffffffffffffffffff1673ffffffffffffffffffffffffffffffffffffffff16815260200190815260200160002060006101000a81548173ffffffffffffffffffffffffffffffffffffffff021916908373ffffffffffffffffffffffffffffffffffffffff16021790555060006006600084815260200190815260200160002060009054906101000a900473ffffffffffffffffffffffffffffffffffffffff1690506000600460008373ffffffffffffffffffffffffffffffffffffffff1673ffffffffffffffffffffffffffffffffffffffff16815260200190815260200160002090508060040160008154809291906001900391905055505050505050565b6153e38282615715565b6153ec57600080fd5b60006153f883836159c8565b9050600960008373ffffffffffffffffffffffffffffffffffffffff1673ffffffffffffffffffffffffffffffffffffffff16815260200190815260200160002060008473ffffffffffffffffffffffffffffffffffffffff1673ffffffffffffffffffffffffffffffffffffffff16815260200190815260200160002060009054906101000a900473ffffffffffffffffffffffffffffffffffffffff16600960008473ffffffffffffffffffffffffffffffffffffffff1673ffffffffffffffffffffffffffffffffffffffff16815260200190815260200160002060008373ffffffffffffffffffffffffffffffffffffffff1673ffffffffffffffffffffffffffffffffffffffff16815260200190815260200160002060006101000a81548173ffffffffffffffffffffffffffffffffffffffff021916908373ffffffffffffffffffffffffffffffffffffffff1602179055506000600960008473ffffffffffffffffffffffffffffffffffffffff1673ffffffffffffffffffffffffffffffffffffffff16815260200190815260200160002060008573ffffffffffffffffffffffffffffffffffffffff1673ffffffffffffffffffffffffffffffffffffffff16815260200190815260200160002060006101000a81548173ffffffffffffffffffffffffffffffffffffffff021916908373ffffffffffffffffffffffffffffffffffffffff1602179055506000600560008473ffffffffffffffffffffffffffffffffffffffff1673ffffffffffffffffffffffffffffffffffffffff168152602001908152602001600020905080600501600081548092919060019003919050555050505050565b60008073ffffffffffffffffffffffffffffffffffffffff166008600084815260200190815260200160002060008573ffffffffffffffffffffffffffffffffffffffff1673ffffffffffffffffffffffffffffffffffffffff16815260200190815260200160002060009054906101000a900473ffffffffffffffffffffffffffffffffffffffff1673ffffffffffffffffffffffffffffffffffffffff161415905092915050565b60008073ffffffffffffffffffffffffffffffffffffffff16600960008473ffffffffffffffffffffffffffffffffffffffff1673ffffffffffffffffffffffffffffffffffffffff16815260200190815260200160002060008573ffffffffffffffffffffffffffffffffffffffff1673ffffffffffffffffffffffffffffffffffffffff16815260200190815260200160002060009054906101000a900473ffffffffffffffffffffffffffffffffffffffff1673ffffffffffffffffffffffffffffffffffffffff161415905092915050565b600080600190505b600173ffffffffffffffffffffffffffffffffffffffff166008600085815260200190815260200160002060008373ffffffffffffffffffffffffffffffffffffffff1673ffffffffffffffffffffffffffffffffffffffff16815260200190815260200160002060009054906101000a900473ffffffffffffffffffffffffffffffffffffffff1673ffffffffffffffffffffffffffffffffffffffff16146159bc578373ffffffffffffffffffffffffffffffffffffffff166008600085815260200190815260200160002060008373ffffffffffffffffffffffffffffffffffffffff1673ffffffffffffffffffffffffffffffffffffffff16815260200190815260200160002060009054906101000a900473ffffffffffffffffffffffffffffffffffffffff1673ffffffffffffffffffffffffffffffffffffffff16141561594457809150506159c2565b6008600084815260200190815260200160002060008273ffffffffffffffffffffffffffffffffffffffff1673ffffffffffffffffffffffffffffffffffffffff16815260200190815260200160002060009054906101000a900473ffffffffffffffffffffffffffffffffffffffff1690506157f3565b60019150505b92915050565b600080600190505b600173ffffffffffffffffffffffffffffffffffffffff16600960008573ffffffffffffffffffffffffffffffffffffffff1673ffffffffffffffffffffffffffffffffffffffff16815260200190815260200160002060008373ffffffffffffffffffffffffffffffffffffffff1673ffffffffffffffffffffffffffffffffffffffff16815260200190815260200160002060009054906101000a900473ffffffffffffffffffffffffffffffffffffffff1673ffffffffffffffffffffffffffffffffffffffff1614615c1d578373ffffffffffffffffffffffffffffffffffffffff16600960008573ffffffffffffffffffffffffffffffffffffffff1673ffffffffffffffffffffffffffffffffffffffff16815260200190815260200160002060008373ffffffffffffffffffffffffffffffffffffffff1673ffffffffffffffffffffffffffffffffffffffff16815260200190815260200160002060009054906101000a900473ffffffffffffffffffffffffffffffffffffffff1673ffffffffffffffffffffffffffffffffffffffff161415615b795780915050615c23565b600960008473ffffffffffffffffffffffffffffffffffffffff1673ffffffffffffffffffffffffffffffffffffffff16815260200190815260200160002060008273ffffffffffffffffffffffffffffffffffffffff1673ffffffffffffffffffffffffffffffffffffffff16815260200190815260200160002060009054906101000a900473ffffffffffffffffffffffffffffffffffffffff1690506159d0565b60019150505b92915050565b828054600181600116156101000203166002900490600052602060002090601f016020900481019282601f10615c6a57805160ff1916838001178555615c98565b82800160010185558215615c98579182015b82811115615c97578251825591602001919060010190615c7c565b5b509050615ca59190615e49565b5090565b6040518060c00160405280600073ffffffffffffffffffffffffffffffffffffffff168152602001606081526020016060815260200160608152602001600015158152602001600081525090565b604051806101200160405280606081526020016000815260200160608152602001606081526020016000815260200160001515815260200160608152602001606081526020016000151581525090565b828054600181600116156101000203166002900490600052602060002090601f016020900481019282601f10615d8857805160ff1916838001178555615db6565b82800160010185558215615db6579182015b82811115615db5578251825591602001919060010190615d9a565b5b509050615dc39190615e49565b5090565b6040518060a0016040528060608152602001600073ffffffffffffffffffffffffffffffffffffffff1681526020016060815260200160608152602001600081525090565b6040518060e00160405280600081526020016060815260200160008152602001600081526020016060815260200160008152602001606081525090565b615e6b91905b80821115615e67576000816000905550600101615e4f565b5090565b9056fe4c6120646972656363696f6e206e6f2070657274656e656365206120756e206e6f746172696f4c6120696e737469747563696f6e206e6f206573746120766572696669636164614c6120646972656363696f6e207961207469656e6520756e61206375656e746120646520696e7374697475746f4c6120646972656363696f6e206e6f2070657274656e656365206120756e20696e7374697475746f4c6120646972656363696f6e206e6f2070657274656e656365206120756e207573756172696f456c20636572746966696361646f206e6f2070657274656e63652061206c6120646972656363696f6e20656e76696164614c6120646972656363696f6e207961207469656e6520756e61206375656e7461206465207573756172696fa265627a7a723158207a6c2a965f05fda2e829fd15e083f3e8274f7229d6ae2fa89589d9806682598a64736f6c63430005100032",
  "source": "pragma solidity ^0.5.0;\r\nimport \"./ownable.sol\";\r\ncontract CertificadoNacimiento is Ownable{\r\n    \r\n    \r\n    // Estructuras\r\n    struct Certificado{\r\n        // ubicacion\r\n        string departamento;  // departamento provincia localidad\r\n        // string provincia;\r\n        // string localidad;\r\n        // string localidad_emision;\r\n        \r\n        // date\r\n        uint256 fecha; // timestamp\r\n        // uint256 fecha_emision;\r\n        //usuario\r\n        string nombre; // Nombre completo\r\n        string departamento_nacimiento; // departamento provincia localidad\r\n        // string provincia_nacimiento;\r\n        // string localidad_nacimiento;\r\n        uint256 fecha_naciminto; // timestamp\r\n        bool genero; // 0:masculino, 1:femenino\r\n        string nombre_padre; // Nombre completo\r\n        string nombre_madre; // Nombre completo\r\n        bool active;\r\n        // address notario;\r\n    }\r\n    struct Complemento{\r\n        uint256 oficialia;\r\n        string libro;\r\n        uint256 partida;\r\n        uint256 folio;\r\n        string serie;\r\n        uint256 fecha_partida;\r\n        string nota_aclaratoria;\r\n    }\r\n    struct Usuario{\r\n        string nombre; // Nombre completo\r\n        address direccion;\r\n        string role;\r\n        string email;\r\n        uint256 listSizeInstituciones;\r\n    }\r\n    struct Instituto{\r\n        address direccion;\r\n        string nombre;\r\n        string telefono;\r\n        string email;\r\n        bool verified;\r\n        uint256 listSizeCertificados;\r\n    }\r\n    \r\n    // Variables\r\n    \r\n    Certificado [] public certificados;\r\n    address constant internal FIRST_ADDRESS = address(1);\r\n    uint256 public countCert;\r\n    mapping(uint256 => Complemento) public complementos;\r\n    mapping(address=>Usuario) public usuarios;\r\n    mapping(address=>Instituto) public institutos;\r\n    mapping(uint256 => address) public certifcadoToOwner;\r\n    mapping(uint256 => address) public certifiedCreator; // Address del creador del certificado(Notario)\r\n    mapping(uint256 => mapping(address=> address)) internal listaInstitucionesXCertificado;\r\n    mapping(address => mapping(address=> address)) internal listaCertificadosXInstituciones;\r\n    \r\n    \r\n    \r\n    // Eventos\r\n    // event newCertificado(uint certificadoId, string nombre, address notario);\r\n    // event newUsuario(string nombre, address notario);\r\n    // event newInstituto(string nombre, address instituto);\r\n    // event OwnershipTransferred(address indexed previousOwner,address indexed newOwner);\r\n\r\n    // Modificadores\r\n    modifier onlyNotario(address _direccion) {\r\n        string memory role = usuarios[_direccion].role;\r\n        require(keccak256(abi.encodePacked(role)) == keccak256(abi.encodePacked(\"notario\")),\"La direccion no pertenece a un notario\");\r\n        _;\r\n    }\r\n    modifier onlyOwnerCertificate(uint256 _certificadoId, address _direccion){\r\n        require(certifcadoToOwner[_certificadoId] == _direccion,\"El certificado no pertence a la direccion enviada\");\r\n        _;\r\n    }\r\n    modifier onlyUserbyAddress(address _direccion){\r\n        require(usuarios[_direccion].direccion==address(0),\"La direccion ya tiene una cuenta de usuario\");\r\n        _;\r\n    }\r\n    modifier onlyInstitutoByAddress(address _direccion){\r\n        require(usuarios[_direccion].direccion==address(0),\"La direccion ya tiene una cuenta de usuario\");\r\n        require(institutos[_direccion].direccion==address(0),\"La direccion ya tiene una cuenta de instituto\");\r\n        _;\r\n    }\r\n    modifier onlyUser(address _direccion){\r\n        require(usuarios[_direccion].direccion==_direccion,\"La direccion no pertenece a un usuario\");\r\n        _;\r\n    }\r\n    modifier onlyInstituto(address _direccion){\r\n        require(institutos[_direccion].direccion==_direccion,\"La direccion no pertenece a un instituto\");\r\n        _;\r\n    }\r\n    \r\n    // Constructor\r\n    constructor() public {\r\n         Certificado memory nCertificado;\r\n         certificados.push(nCertificado);\r\n    }\r\n    \r\n    // Metodos\r\n    function createUser(string memory _nombre, string memory _email) public onlyUserbyAddress(msg.sender){\r\n        Usuario memory n_user;\r\n        n_user.nombre = _nombre;\r\n        n_user.role = \"usuario\";\r\n        n_user.direccion = msg.sender;\r\n        n_user.email = _email;\r\n        n_user.listSizeInstituciones=0;\r\n        usuarios[msg.sender]=n_user;\r\n        // emit newUsuario(_nombre,msg.sender);\r\n    }\r\n    \r\n    function crearInstituto(string memory _nombre,string memory _telefono,string memory _email) public onlyInstitutoByAddress(msg.sender){\r\n         Instituto memory n_instituto;\r\n         n_instituto.direccion = msg.sender;\r\n         n_instituto.nombre = _nombre;\r\n         n_instituto.telefono = _telefono;\r\n         n_instituto.email = _email;\r\n         n_instituto.verified = false;\r\n         n_instituto.listSizeCertificados=0;\r\n         institutos[msg.sender] = n_instituto;\r\n         \r\n         listaCertificadosXInstituciones[msg.sender][FIRST_ADDRESS]=FIRST_ADDRESS;\r\n        //  emit newInstituto(_nombre,msg.sender);\r\n    }\r\n    \r\n    function createCertificado(string memory _departamento,uint256 _fecha,string memory _nombre,\r\n    string memory _departamento_nacimiento, uint256 _fecha_nacimiento,bool _genero,\r\n    string memory _nombre_padre,string memory _nombre_madre) public onlyNotario(msg.sender){\r\n        Certificado memory nCertificado;\r\n        nCertificado.departamento =_departamento;\r\n        nCertificado.fecha = _fecha;\r\n        nCertificado.nombre = _nombre;\r\n        nCertificado.departamento_nacimiento = _departamento_nacimiento;\r\n        nCertificado.fecha_naciminto = _fecha_nacimiento;\r\n        nCertificado.genero = _genero;\r\n        nCertificado.nombre_padre = _nombre_padre;\r\n        nCertificado.nombre_madre = _nombre_madre;\r\n        certificados.push(nCertificado);\r\n        certifcadoToOwner[certificados.length - 1] = address(0);\r\n        countCert++;\r\n        certifiedCreator[certificados.length -1] =  msg.sender;\r\n        \r\n        listaInstitucionesXCertificado[certificados.length - 1][FIRST_ADDRESS]=FIRST_ADDRESS;\r\n        // emit newCertificado(certificados.length -1, _nombre,msg.sender);\r\n    }\r\n    \r\n    function crearComplemento(uint256 _oficialia,string memory _libro, uint256 _partida, \r\n    uint256 _folio,string memory _serie,string memory _nota_aclaratoria,uint256 _fecha_partida,uint256 _certificadoId) public onlyNotario(msg.sender){\r\n        Complemento memory nComplemento;\r\n        nComplemento.oficialia = _oficialia;\r\n        nComplemento.libro = _libro;\r\n        nComplemento.partida = _partida;\r\n        nComplemento.folio = _folio;\r\n        nComplemento.serie = _serie;\r\n        nComplemento.nota_aclaratoria = _nota_aclaratoria;\r\n        nComplemento.fecha_partida= _fecha_partida;\r\n        complementos[_certificadoId]= nComplemento;\r\n    }\r\n\r\n    function setUser(string memory _nombre, string memory _email) public onlyUser(msg.sender){\r\n        Usuario storage n_user = usuarios[msg.sender];\r\n        n_user.nombre = _nombre;\r\n        n_user.email = _email;\r\n    }\r\n    \r\n    function setInstitucion(string memory _nombre,string memory _telefono,string memory _email) public onlyInstituto(msg.sender){\r\n         Instituto storage n_instituto=institutos[msg.sender];\r\n         n_instituto.nombre = _nombre;\r\n         n_instituto.telefono = _telefono;\r\n         n_instituto.email = _email;\r\n    }\r\n    \r\n    function roleNotario(address _direccion)public onlyOwner{\r\n        Usuario storage notario = usuarios[_direccion];\r\n        notario.role=\"notario\";\r\n    }\r\n    \r\n    function setValidarInstitucion(address _direccion,bool valor) public onlyNotario(msg.sender){\r\n        Instituto storage instituto = institutos[_direccion];\r\n        instituto.verified=valor;\r\n    }\r\n    \r\n    function setActive(uint256 _certificadoId, bool _active) public onlyNotario(msg.sender){\r\n        Certificado storage _certificado = certificados[_certificadoId];\r\n        _certificado.active = _active;\r\n    }\r\n    \r\n    function getCertificadoByOwner(address _owner) public view returns(uint256,bool) {\r\n        uint256 resultado = 0;\r\n        bool valido = false;\r\n        for (uint i = 0; i < certificados.length; i++) {\r\n          if (certifcadoToOwner[i] == _owner) {\r\n            resultado = i;\r\n            valido = true;\r\n          }\r\n        }\r\n        return (resultado,valido);\r\n    }\r\n    \r\n    function transferCertificado(address _newOwner,uint256 _certificadoId) public onlyNotario(msg.sender) onlyUser(_newOwner){\r\n        require(_newOwner != address(0),\"La nueva direccion no es vlida\");\r\n        Certificado storage _certificado = certificados[_certificadoId];\r\n        _certificado.active = true;\r\n        certifcadoToOwner[_certificadoId]= _newOwner;\r\n        \r\n        // emit OwnershipTransferred(owner, _newOwner);\r\n    }\r\n    \r\n    function compartirCertificado(uint256 _certificadoId, address _institucion) public onlyOwnerCertificate(_certificadoId,msg.sender){\r\n     require(certificados[_certificadoId].active==true,\"El certificado no esta activo\");\r\n     require(institutos[_institucion].verified==true, \"La institucion no esta verificada\");\r\n      addListCertificado(_institucion,_certificadoId);\r\n      \r\n    //   ownerToCerfificado[owner] =_certificadoId;\r\n      addListInstitucion(certifcadoToOwner[_certificadoId],_institucion);\r\n    }\r\n    \r\n    function desCompartirCertificado(uint256 _certificadoId, address _institucion) public onlyOwnerCertificate(_certificadoId,msg.sender){\r\n        removeListCertificado(_institucion,_certificadoId);\r\n        \r\n        address owner = certifcadoToOwner[_certificadoId];\r\n        removeListInstitucion(owner,_institucion);\r\n    }\r\n    \r\n    function isInListCertificado(address _address,uint256 _certificadoId) view internal returns(bool){\r\n        return listaInstitucionesXCertificado[_certificadoId][_address] != address(0);\r\n    }\r\n    \r\n    function isInListInstituciones(address _address,address _addressInstituto) view internal returns(bool){\r\n        return listaCertificadosXInstituciones[_addressInstituto][_address] != address(0);\r\n    }\r\n    \r\n    function getPrevCertificado(address _address,uint256 _certificadoId) view internal returns(address){\r\n        address currentAddress = FIRST_ADDRESS;\r\n        while(listaInstitucionesXCertificado[_certificadoId][currentAddress]!= FIRST_ADDRESS){\r\n            if(listaInstitucionesXCertificado [_certificadoId][currentAddress] == _address){\r\n                return currentAddress;\r\n            }\r\n            currentAddress=listaInstitucionesXCertificado[_certificadoId][currentAddress];\r\n        }\r\n        return FIRST_ADDRESS;\r\n    }\r\n    \r\n    function getPrevInstitucion(address _address,address _addressInstituto) view internal returns(address){\r\n        address currentAddress = FIRST_ADDRESS;\r\n        while(listaCertificadosXInstituciones[_addressInstituto][currentAddress]!= FIRST_ADDRESS){\r\n            if(listaCertificadosXInstituciones[_addressInstituto][currentAddress] == _address){\r\n                return currentAddress;\r\n            }\r\n            currentAddress=listaCertificadosXInstituciones[_addressInstituto][currentAddress];\r\n        }\r\n        return FIRST_ADDRESS;\r\n    }\r\n    \r\n    function addListCertificado(address _address,uint256 _certificadoId) internal {\r\n        require(!isInListCertificado(_address,_certificadoId));\r\n        listaInstitucionesXCertificado[_certificadoId][_address]=listaInstitucionesXCertificado[_certificadoId][FIRST_ADDRESS];\r\n        listaInstitucionesXCertificado[_certificadoId][FIRST_ADDRESS]=_address;\r\n        address user_address = certifcadoToOwner[_certificadoId];\r\n        Usuario storage user = usuarios[user_address];\r\n        user.listSizeInstituciones++;\r\n    }\r\n    \r\n    function addListInstitucion(address _address,address _addressInstituto) internal {\r\n        require(!isInListInstituciones(_address,_addressInstituto));\r\n        listaCertificadosXInstituciones[_addressInstituto][_address]=listaCertificadosXInstituciones[_addressInstituto][FIRST_ADDRESS];\r\n        listaCertificadosXInstituciones[_addressInstituto][FIRST_ADDRESS]=_address;\r\n        Instituto storage instituto = institutos[_addressInstituto];\r\n        instituto.listSizeCertificados++;\r\n    }\r\n    \r\n    function removeListCertificado(address _address,uint256 _certificadoId) internal {\r\n        require(isInListCertificado(_address,_certificadoId));\r\n        address prevUser = getPrevCertificado(_address,_certificadoId);\r\n        listaInstitucionesXCertificado[_certificadoId][prevUser]= listaInstitucionesXCertificado[_certificadoId][_address];\r\n        listaInstitucionesXCertificado[_certificadoId][_address]=address(0);\r\n        address user_address = certifcadoToOwner[_certificadoId];\r\n        Usuario storage user = usuarios[user_address];\r\n        user.listSizeInstituciones --;\r\n    }\r\n    \r\n    function removeListInstitucion(address _address,address _addressInstituto) internal {\r\n        require(isInListInstituciones(_address,_addressInstituto));\r\n        address prevUser = getPrevInstitucion(_address,_addressInstituto);\r\n        listaCertificadosXInstituciones[_addressInstituto][prevUser]= listaCertificadosXInstituciones[_addressInstituto][_address];\r\n        listaCertificadosXInstituciones[_addressInstituto][_address]=address(0);\r\n        Instituto storage instituto = institutos[_addressInstituto];\r\n        instituto.listSizeCertificados --;\r\n    }\r\n    \r\n    function listarInstituciones(uint256 _certificadoId) view public returns(address[] memory){\r\n        address user_address = certifcadoToOwner[_certificadoId];\r\n        Usuario memory user = usuarios[user_address];\r\n        address [] memory usersArray = new address[](user.listSizeInstituciones);\r\n        address currentAddress =  listaInstitucionesXCertificado[_certificadoId][FIRST_ADDRESS];\r\n        for(uint256 i =0; i<user.listSizeInstituciones;i++){\r\n            usersArray[i]=currentAddress;\r\n            currentAddress=listaInstitucionesXCertificado[_certificadoId][currentAddress];\r\n        }\r\n        return usersArray;\r\n    }\r\n    \r\n    function listarCertitificados(address _addressInstituto) view public returns(uint256[] memory){\r\n        Instituto memory instituto = institutos[_addressInstituto];\r\n        uint256 [] memory usersArray = new uint256[](instituto.listSizeCertificados);\r\n        address currentAddress =  listaCertificadosXInstituciones[_addressInstituto][FIRST_ADDRESS];\r\n        for(uint256 i =0; i<instituto.listSizeCertificados;i++){\r\n            // usersArray[i]=ownerToCerfificado[currentAddress];\r\n            (uint256 certificadoId,) = getCertificadoByOwner(currentAddress);\r\n            usersArray[i]=certificadoId;\r\n            currentAddress=listaCertificadosXInstituciones[_addressInstituto][currentAddress];\r\n        }\r\n        return usersArray;\r\n    }\r\n    \r\n       // function setCertificate(uint256 _certificadoId,string memory _departamento,uint256 _fecha,string memory _nombre,\r\n    // string memory _departamento_nacimiento, uint256 _fecha_nacimiento,bool _sexo,\r\n    // string memory _nombre_padre,string memory _nombre_madre) public onlyNotario(msg.sender){\r\n    //     Certificado storage nCertificado = certificados[_certificadoId];\r\n    //     nCertificado.departamento =_departamento;\r\n    //     nCertificado.fecha = _fecha;\r\n    //     nCertificado.nombre = _nombre;\r\n    //     nCertificado.departamento_nacimiento = _departamento_nacimiento;\r\n    //     nCertificado.fecha_naciminto = _fecha_nacimiento;\r\n    //     nCertificado.sexo = _sexo;\r\n    //     nCertificado.nombre_padre = _nombre_padre;\r\n    //     nCertificado.nombre_madre = _nombre_madre;\r\n    // }\r\n}\r\n",
  "sourcePath": "E:/JORGE/UMSA/INF-399/dev/truffle_certificado_nacimiento/contracts/CertificadoNacimiento.sol",
  "compiler": {
    "name": "solc",
    "version": "0.5.16+commit.9c3226ce.Emscripten.clang"
  },
  "schemaVersion": "3.2.5",
  "updatedAt": "2020-12-15T06:04:19.077Z",
  "devdoc": {
    "methods": {}
  },
  "userdoc": {
    "methods": {}
  }
}