{
  "contractName": "CertificadoNacimiento",
  "abi": [
    {
      "inputs": [],
      "payable": false,
      "stateMutability": "nonpayable",
      "type": "constructor"
    },
    {
      "anonymous": false,
      "inputs": [
        {
          "indexed": true,
          "internalType": "address",
          "name": "previousOwner",
          "type": "address"
        },
        {
          "indexed": true,
          "internalType": "address",
          "name": "newOwner",
          "type": "address"
        }
      ],
      "name": "OwnershipTransferred",
      "type": "event"
    },
    {
      "anonymous": false,
      "inputs": [
        {
          "indexed": false,
          "internalType": "uint256",
          "name": "certificadoId",
          "type": "uint256"
        },
        {
          "indexed": false,
          "internalType": "string",
          "name": "nombre",
          "type": "string"
        },
        {
          "indexed": false,
          "internalType": "address",
          "name": "notario",
          "type": "address"
        }
      ],
      "name": "newCertificado",
      "type": "event"
    },
    {
      "anonymous": false,
      "inputs": [
        {
          "indexed": false,
          "internalType": "string",
          "name": "nombre",
          "type": "string"
        },
        {
          "indexed": false,
          "internalType": "address",
          "name": "instituto",
          "type": "address"
        }
      ],
      "name": "newInstituto",
      "type": "event"
    },
    {
      "anonymous": false,
      "inputs": [
        {
          "indexed": false,
          "internalType": "string",
          "name": "nombre",
          "type": "string"
        },
        {
          "indexed": false,
          "internalType": "address",
          "name": "notario",
          "type": "address"
        }
      ],
      "name": "newUsuario",
      "type": "event"
    },
    {
      "constant": true,
      "inputs": [
        {
          "internalType": "uint256",
          "name": "",
          "type": "uint256"
        }
      ],
      "name": "certifcadoToOwner",
      "outputs": [
        {
          "internalType": "address",
          "name": "",
          "type": "address"
        }
      ],
      "payable": false,
      "stateMutability": "view",
      "type": "function"
    },
    {
      "constant": true,
      "inputs": [
        {
          "internalType": "uint256",
          "name": "",
          "type": "uint256"
        }
      ],
      "name": "certificados",
      "outputs": [
        {
          "internalType": "string",
          "name": "departamento",
          "type": "string"
        },
        {
          "internalType": "uint256",
          "name": "fecha",
          "type": "uint256"
        },
        {
          "internalType": "string",
          "name": "nombre",
          "type": "string"
        },
        {
          "internalType": "string",
          "name": "departamento_nacimiento",
          "type": "string"
        },
        {
          "internalType": "uint256",
          "name": "fecha_naciminto",
          "type": "uint256"
        },
        {
          "internalType": "bool",
          "name": "sexo",
          "type": "bool"
        },
        {
          "internalType": "string",
          "name": "nombre_padre",
          "type": "string"
        },
        {
          "internalType": "string",
          "name": "nombre_madre",
          "type": "string"
        },
        {
          "internalType": "bool",
          "name": "active",
          "type": "bool"
        }
      ],
      "payable": false,
      "stateMutability": "view",
      "type": "function"
    },
    {
      "constant": true,
      "inputs": [
        {
          "internalType": "uint256",
          "name": "",
          "type": "uint256"
        }
      ],
      "name": "certifiedCreator",
      "outputs": [
        {
          "internalType": "address",
          "name": "",
          "type": "address"
        }
      ],
      "payable": false,
      "stateMutability": "view",
      "type": "function"
    },
    {
      "constant": true,
      "inputs": [
        {
          "internalType": "uint256",
          "name": "",
          "type": "uint256"
        }
      ],
      "name": "complementos",
      "outputs": [
        {
          "internalType": "uint256",
          "name": "oficialia",
          "type": "uint256"
        },
        {
          "internalType": "string",
          "name": "libro",
          "type": "string"
        },
        {
          "internalType": "uint256",
          "name": "partida",
          "type": "uint256"
        },
        {
          "internalType": "uint256",
          "name": "folio",
          "type": "uint256"
        },
        {
          "internalType": "string",
          "name": "serie",
          "type": "string"
        },
        {
          "internalType": "string",
          "name": "nota_aclaratoria",
          "type": "string"
        }
      ],
      "payable": false,
      "stateMutability": "view",
      "type": "function"
    },
    {
      "constant": true,
      "inputs": [
        {
          "internalType": "address",
          "name": "",
          "type": "address"
        }
      ],
      "name": "institutos",
      "outputs": [
        {
          "internalType": "address",
          "name": "direccion",
          "type": "address"
        },
        {
          "internalType": "string",
          "name": "nombre",
          "type": "string"
        },
        {
          "internalType": "string",
          "name": "telefono",
          "type": "string"
        },
        {
          "internalType": "string",
          "name": "email",
          "type": "string"
        },
        {
          "internalType": "bool",
          "name": "verified",
          "type": "bool"
        },
        {
          "internalType": "uint256",
          "name": "listSizeCertificados",
          "type": "uint256"
        }
      ],
      "payable": false,
      "stateMutability": "view",
      "type": "function"
    },
    {
      "constant": true,
      "inputs": [],
      "name": "owner",
      "outputs": [
        {
          "internalType": "address",
          "name": "",
          "type": "address"
        }
      ],
      "payable": false,
      "stateMutability": "view",
      "type": "function"
    },
    {
      "constant": false,
      "inputs": [
        {
          "internalType": "address",
          "name": "newOwner",
          "type": "address"
        }
      ],
      "name": "transferOwnership",
      "outputs": [],
      "payable": false,
      "stateMutability": "nonpayable",
      "type": "function"
    },
    {
      "constant": true,
      "inputs": [
        {
          "internalType": "address",
          "name": "",
          "type": "address"
        }
      ],
      "name": "usuarios",
      "outputs": [
        {
          "internalType": "string",
          "name": "nombre",
          "type": "string"
        },
        {
          "internalType": "address",
          "name": "direccion",
          "type": "address"
        },
        {
          "internalType": "string",
          "name": "role",
          "type": "string"
        },
        {
          "internalType": "string",
          "name": "email",
          "type": "string"
        },
        {
          "internalType": "uint32",
          "name": "listSizeInstituciones",
          "type": "uint32"
        }
      ],
      "payable": false,
      "stateMutability": "view",
      "type": "function"
    },
    {
      "constant": false,
      "inputs": [
        {
          "internalType": "string",
          "name": "_nombre",
          "type": "string"
        },
        {
          "internalType": "string",
          "name": "_email",
          "type": "string"
        }
      ],
      "name": "createUser",
      "outputs": [],
      "payable": false,
      "stateMutability": "nonpayable",
      "type": "function"
    },
    {
      "constant": false,
      "inputs": [
        {
          "internalType": "address",
          "name": "_direccion",
          "type": "address"
        }
      ],
      "name": "roleNotario",
      "outputs": [],
      "payable": false,
      "stateMutability": "nonpayable",
      "type": "function"
    },
    {
      "constant": false,
      "inputs": [
        {
          "internalType": "address",
          "name": "_direccion",
          "type": "address"
        }
      ],
      "name": "validarInstitucion",
      "outputs": [],
      "payable": false,
      "stateMutability": "nonpayable",
      "type": "function"
    },
    {
      "constant": false,
      "inputs": [
        {
          "internalType": "string",
          "name": "_departamento",
          "type": "string"
        },
        {
          "internalType": "uint256",
          "name": "_fecha",
          "type": "uint256"
        },
        {
          "internalType": "string",
          "name": "_nombre",
          "type": "string"
        },
        {
          "internalType": "string",
          "name": "_departamento_nacimiento",
          "type": "string"
        },
        {
          "internalType": "uint256",
          "name": "_fecha_nacimiento",
          "type": "uint256"
        },
        {
          "internalType": "bool",
          "name": "_sexo",
          "type": "bool"
        },
        {
          "internalType": "string",
          "name": "_nombre_padre",
          "type": "string"
        },
        {
          "internalType": "string",
          "name": "_nombre_madre",
          "type": "string"
        }
      ],
      "name": "createCertificado",
      "outputs": [],
      "payable": false,
      "stateMutability": "nonpayable",
      "type": "function"
    },
    {
      "constant": false,
      "inputs": [
        {
          "internalType": "uint256",
          "name": "_oficialia",
          "type": "uint256"
        },
        {
          "internalType": "string",
          "name": "_libro",
          "type": "string"
        },
        {
          "internalType": "uint256",
          "name": "_partida",
          "type": "uint256"
        },
        {
          "internalType": "uint256",
          "name": "_folio",
          "type": "uint256"
        },
        {
          "internalType": "string",
          "name": "_serie",
          "type": "string"
        },
        {
          "internalType": "string",
          "name": "_nota_aclaratoria",
          "type": "string"
        },
        {
          "internalType": "uint256",
          "name": "_certificadoId",
          "type": "uint256"
        }
      ],
      "name": "crearComplemento",
      "outputs": [],
      "payable": false,
      "stateMutability": "nonpayable",
      "type": "function"
    },
    {
      "constant": false,
      "inputs": [
        {
          "internalType": "string",
          "name": "_nombre",
          "type": "string"
        },
        {
          "internalType": "string",
          "name": "_telefono",
          "type": "string"
        },
        {
          "internalType": "string",
          "name": "_email",
          "type": "string"
        }
      ],
      "name": "crearInstituto",
      "outputs": [],
      "payable": false,
      "stateMutability": "nonpayable",
      "type": "function"
    },
    {
      "constant": false,
      "inputs": [
        {
          "internalType": "uint256",
          "name": "_certificadoId",
          "type": "uint256"
        },
        {
          "internalType": "string",
          "name": "_departamento",
          "type": "string"
        },
        {
          "internalType": "uint256",
          "name": "_fecha",
          "type": "uint256"
        },
        {
          "internalType": "string",
          "name": "_nombre",
          "type": "string"
        },
        {
          "internalType": "string",
          "name": "_departamento_nacimiento",
          "type": "string"
        },
        {
          "internalType": "uint256",
          "name": "_fecha_nacimiento",
          "type": "uint256"
        },
        {
          "internalType": "bool",
          "name": "_sexo",
          "type": "bool"
        },
        {
          "internalType": "string",
          "name": "_nombre_padre",
          "type": "string"
        },
        {
          "internalType": "string",
          "name": "_nombre_madre",
          "type": "string"
        }
      ],
      "name": "setCertificate",
      "outputs": [],
      "payable": false,
      "stateMutability": "nonpayable",
      "type": "function"
    },
    {
      "constant": true,
      "inputs": [
        {
          "internalType": "address",
          "name": "_owner",
          "type": "address"
        }
      ],
      "name": "getCertificadoByOwner",
      "outputs": [
        {
          "internalType": "uint256",
          "name": "",
          "type": "uint256"
        },
        {
          "internalType": "bool",
          "name": "",
          "type": "bool"
        }
      ],
      "payable": false,
      "stateMutability": "view",
      "type": "function"
    },
    {
      "constant": false,
      "inputs": [
        {
          "internalType": "address",
          "name": "_newOwner",
          "type": "address"
        },
        {
          "internalType": "uint256",
          "name": "_certificadoId",
          "type": "uint256"
        }
      ],
      "name": "transferCertificado",
      "outputs": [],
      "payable": false,
      "stateMutability": "nonpayable",
      "type": "function"
    },
    {
      "constant": false,
      "inputs": [
        {
          "internalType": "uint256",
          "name": "_certificadoId",
          "type": "uint256"
        },
        {
          "internalType": "bool",
          "name": "_active",
          "type": "bool"
        },
        {
          "internalType": "address",
          "name": "_notario",
          "type": "address"
        }
      ],
      "name": "setActive",
      "outputs": [],
      "payable": false,
      "stateMutability": "nonpayable",
      "type": "function"
    },
    {
      "constant": false,
      "inputs": [
        {
          "internalType": "uint256",
          "name": "_certificadoId",
          "type": "uint256"
        },
        {
          "internalType": "address",
          "name": "_institucion",
          "type": "address"
        }
      ],
      "name": "compartirCertificado",
      "outputs": [],
      "payable": false,
      "stateMutability": "nonpayable",
      "type": "function"
    },
    {
      "constant": false,
      "inputs": [
        {
          "internalType": "uint256",
          "name": "_certificadoId",
          "type": "uint256"
        },
        {
          "internalType": "address",
          "name": "_institucion",
          "type": "address"
        }
      ],
      "name": "desCompartirCertificado",
      "outputs": [
        {
          "internalType": "bool",
          "name": "",
          "type": "bool"
        }
      ],
      "payable": false,
      "stateMutability": "nonpayable",
      "type": "function"
    },
    {
      "constant": true,
      "inputs": [
        {
          "internalType": "uint256",
          "name": "_certificadoId",
          "type": "uint256"
        }
      ],
      "name": "listarInstituciones",
      "outputs": [
        {
          "internalType": "address[]",
          "name": "",
          "type": "address[]"
        }
      ],
      "payable": false,
      "stateMutability": "view",
      "type": "function"
    },
    {
      "constant": true,
      "inputs": [
        {
          "internalType": "address",
          "name": "_addressInstituto",
          "type": "address"
        }
      ],
      "name": "listarCertitificados",
      "outputs": [
        {
          "internalType": "uint256[]",
          "name": "",
          "type": "uint256[]"
        }
      ],
      "payable": false,
      "stateMutability": "view",
      "type": "function"
    }
  ],
  "bytecode": "0x60806040523480156200001157600080fd5b50336000806101000a81548173ffffffffffffffffffffffffffffffffffffffff021916908373ffffffffffffffffffffffffffffffffffffffff1602179055506200005c62000184565b600181908060018154018082558091505090600182039060005260206000209060090201600090919290919091506000820151816000019080519060200190620000a8929190620001d4565b50602082015181600101556040820151816002019080519060200190620000d1929190620001d4565b506060820151816003019080519060200190620000f0929190620001d4565b506080820151816004015560a08201518160050160006101000a81548160ff02191690831515021790555060c082015181600601908051906020019062000139929190620001d4565b5060e082015181600701908051906020019062000158929190620001d4565b506101008201518160080160006101000a81548160ff0219169083151502179055505050505062000283565b604051806101200160405280606081526020016000815260200160608152602001606081526020016000815260200160001515815260200160608152602001606081526020016000151581525090565b828054600181600116156101000203166002900490600052602060002090601f016020900481019282601f106200021757805160ff191683800117855562000248565b8280016001018555821562000248579182015b82811115620002475782518255916020019190600101906200022a565b5b5090506200025791906200025b565b5090565b6200028091905b808211156200027c57600081600090555060010162000262565b5090565b90565b615fd380620002936000396000f3fe608060405234801561001057600080fd5b50600436106101425760003560e01c80638c52b33b116100b8578063c6c045fa1161007c578063c6c045fa146112b1578063df44b0501461131f578063e590488d14611530578063f2fde38b14611719578063f6b91ea91461175d578063f8c803771461193857610142565b80638c52b33b14610ee15780638da5cb5b14610f2f5780638e59bb4814610f79578063aedd6e11146111f4578063bd9e5ee81461124e57610142565b8063583e8c631161010a578063583e8c631461071d578063593b02ed146108f75780635987645a146109905780636db192d914610cc85780637635077c14610d4b57806387b162b514610d8f57610142565b80630518d89c146101475780633a69bf78146101b55780633b65e71e146101f9578063505e595a1461038d57806355ac3414146106cf575b600080fd5b6101736004803603602081101561015d57600080fd5b810190808035906020019092919050505061199e565b604051808273ffffffffffffffffffffffffffffffffffffffff1673ffffffffffffffffffffffffffffffffffffffff16815260200191505060405180910390f35b6101f7600480360360208110156101cb57600080fd5b81019080803573ffffffffffffffffffffffffffffffffffffffff1690602001909291905050506119d1565b005b6102256004803603602081101561020f57600080fd5b8101908080359060200190929190505050611c26565b60405180878152602001806020018681526020018581526020018060200180602001848103845289818151815260200191508051906020019080838360005b8381101561027f578082015181840152602081019050610264565b50505050905090810190601f1680156102ac5780820380516001836020036101000a031916815260200191505b50848103835286818151815260200191508051906020019080838360005b838110156102e55780820151818401526020810190506102ca565b50505050905090810190601f1680156103125780820380516001836020036101000a031916815260200191505b50848103825285818151815260200191508051906020019080838360005b8381101561034b578082015181840152602081019050610330565b50505050905090810190601f1680156103785780820380516001836020036101000a031916815260200191505b50995050505050505050505060405180910390f35b6106cd60048036036101208110156103a457600080fd5b8101908080359060200190929190803590602001906401000000008111156103cb57600080fd5b8201836020820111156103dd57600080fd5b803590602001918460018302840111640100000000831117156103ff57600080fd5b91908080601f016020809104026020016040519081016040528093929190818152602001838380828437600081840152601f19601f820116905080830192505050505050509192919290803590602001909291908035906020019064010000000081111561046c57600080fd5b82018360208201111561047e57600080fd5b803590602001918460018302840111640100000000831117156104a057600080fd5b91908080601f016020809104026020016040519081016040528093929190818152602001838380828437600081840152601f19601f8201169050808301925050505050505091929192908035906020019064010000000081111561050357600080fd5b82018360208201111561051557600080fd5b8035906020019184600183028401116401000000008311171561053757600080fd5b91908080601f016020809104026020016040519081016040528093929190818152602001838380828437600081840152601f19601f82011690508083019250505050505050919291929080359060200190929190803515159060200190929190803590602001906401000000008111156105b057600080fd5b8201836020820111156105c257600080fd5b803590602001918460018302840111640100000000831117156105e457600080fd5b91908080601f016020809104026020016040519081016040528093929190818152602001838380828437600081840152601f19601f8201169050808301925050505050505091929192908035906020019064010000000081111561064757600080fd5b82018360208201111561065957600080fd5b8035906020019184600183028401116401000000008311171561067b57600080fd5b91908080601f016020809104026020016040519081016040528093929190818152602001838380828437600081840152601f19601f820116905080830192505050505050509192919290505050611e2a565b005b61071b600480360360408110156106e557600080fd5b81019080803573ffffffffffffffffffffffffffffffffffffffff169060200190929190803590602001909291905050506120f1565b005b61075f6004803603602081101561073357600080fd5b81019080803573ffffffffffffffffffffffffffffffffffffffff1690602001909291905050506122f0565b604051808773ffffffffffffffffffffffffffffffffffffffff1673ffffffffffffffffffffffffffffffffffffffff16815260200180602001806020018060200186151515158152602001858152602001848103845289818151815260200191508051906020019080838360005b838110156107e95780820151818401526020810190506107ce565b50505050905090810190601f1680156108165780820380516001836020036101000a031916815260200191505b50848103835288818151815260200191508051906020019080838360005b8381101561084f578082015181840152602081019050610834565b50505050905090810190601f16801561087c5780820380516001836020036101000a031916815260200191505b50848103825287818151815260200191508051906020019080838360005b838110156108b557808201518184015260208101905061089a565b50505050905090810190601f1680156108e25780820380516001836020036101000a031916815260200191505b50995050505050505050505060405180910390f35b6109396004803603602081101561090d57600080fd5b81019080803573ffffffffffffffffffffffffffffffffffffffff169060200190929190505050612521565b6040518080602001828103825283818151815260200191508051906020019060200280838360005b8381101561097c578082015181840152602081019050610961565b505050509050019250505060405180910390f35b610cc660048036036101008110156109a757600080fd5b81019080803590602001906401000000008111156109c457600080fd5b8201836020820111156109d657600080fd5b803590602001918460018302840111640100000000831117156109f857600080fd5b91908080601f016020809104026020016040519081016040528093929190818152602001838380828437600081840152601f19601f8201169050808301925050505050505091929192908035906020019092919080359060200190640100000000811115610a6557600080fd5b820183602082011115610a7757600080fd5b80359060200191846001830284011164010000000083111715610a9957600080fd5b91908080601f016020809104026020016040519081016040528093929190818152602001838380828437600081840152601f19601f82011690508083019250505050505050919291929080359060200190640100000000811115610afc57600080fd5b820183602082011115610b0e57600080fd5b80359060200191846001830284011164010000000083111715610b3057600080fd5b91908080601f016020809104026020016040519081016040528093929190818152602001838380828437600081840152601f19601f8201169050808301925050505050505091929192908035906020019092919080351515906020019092919080359060200190640100000000811115610ba957600080fd5b820183602082011115610bbb57600080fd5b80359060200191846001830284011164010000000083111715610bdd57600080fd5b91908080601f016020809104026020016040519081016040528093929190818152602001838380828437600081840152601f19601f82011690508083019250505050505050919291929080359060200190640100000000811115610c4057600080fd5b820183602082011115610c5257600080fd5b80359060200191846001830284011164010000000083111715610c7457600080fd5b91908080601f016020809104026020016040519081016040528093929190818152602001838380828437600081840152601f19601f8201169050808301925050505050505091929192905050506129a4565b005b610cf460048036036020811015610cde57600080fd5b8101908080359060200190929190505050612f39565b6040518080602001828103825283818151815260200191508051906020019060200280838360005b83811015610d37578082015181840152602081019050610d1c565b505050509050019250505060405180910390f35b610d8d60048036036020811015610d6157600080fd5b81019080803573ffffffffffffffffffffffffffffffffffffffff1690602001909291905050506133c9565b005b610edf60048036036040811015610da557600080fd5b8101908080359060200190640100000000811115610dc257600080fd5b820183602082011115610dd457600080fd5b80359060200191846001830284011164010000000083111715610df657600080fd5b91908080601f016020809104026020016040519081016040528093929190818152602001838380828437600081840152601f19601f82011690508083019250505050505050919291929080359060200190640100000000811115610e5957600080fd5b820183602082011115610e6b57600080fd5b80359060200191846001830284011164010000000083111715610e8d57600080fd5b91908080601f016020809104026020016040519081016040528093929190818152602001838380828437600081840152601f19601f8201169050808301925050505050505091929192905050506134b7565b005b610f2d60048036036040811015610ef757600080fd5b8101908080359060200190929190803573ffffffffffffffffffffffffffffffffffffffff169060200190929190505050613826565b005b610f37613932565b604051808273ffffffffffffffffffffffffffffffffffffffff1673ffffffffffffffffffffffffffffffffffffffff16815260200191505060405180910390f35b610fa560048036036020811015610f8f57600080fd5b8101908080359060200190929190505050613957565b60405180806020018a815260200180602001806020018981526020018815151515815260200180602001806020018715151515815260200186810386528f818151815260200191508051906020019080838360005b83811015611015578082015181840152602081019050610ffa565b50505050905090810190601f1680156110425780820380516001836020036101000a031916815260200191505b5086810385528d818151815260200191508051906020019080838360005b8381101561107b578082015181840152602081019050611060565b50505050905090810190601f1680156110a85780820380516001836020036101000a031916815260200191505b5086810384528c818151815260200191508051906020019080838360005b838110156110e15780820151818401526020810190506110c6565b50505050905090810190601f16801561110e5780820380516001836020036101000a031916815260200191505b50868103835289818151815260200191508051906020019080838360005b8381101561114757808201518184015260208101905061112c565b50505050905090810190601f1680156111745780820380516001836020036101000a031916815260200191505b50868103825288818151815260200191508051906020019080838360005b838110156111ad578082015181840152602081019050611192565b50505050905090810190601f1680156111da5780820380516001836020036101000a031916815260200191505b509e50505050505050505050505050505060405180910390f35b61124c6004803603606081101561120a57600080fd5b8101908080359060200190929190803515159060200190929190803573ffffffffffffffffffffffffffffffffffffffff169060200190929190505050613cc4565b005b6112906004803603602081101561126457600080fd5b81019080803573ffffffffffffffffffffffffffffffffffffffff169060200190929190505050613ef6565b60405180838152602001821515151581526020019250505060405180910390f35b6112dd600480360360208110156112c757600080fd5b8101908080359060200190929190505050613fa0565b604051808273ffffffffffffffffffffffffffffffffffffffff1673ffffffffffffffffffffffffffffffffffffffff16815260200191505060405180910390f35b61152e600480360360e081101561133557600080fd5b81019080803590602001909291908035906020019064010000000081111561135c57600080fd5b82018360208201111561136e57600080fd5b8035906020019184600183028401116401000000008311171561139057600080fd5b91908080601f016020809104026020016040519081016040528093929190818152602001838380828437600081840152601f19601f82011690508083019250505050505050919291929080359060200190929190803590602001909291908035906020019064010000000081111561140757600080fd5b82018360208201111561141957600080fd5b8035906020019184600183028401116401000000008311171561143b57600080fd5b91908080601f016020809104026020016040519081016040528093929190818152602001838380828437600081840152601f19601f8201169050808301925050505050505091929192908035906020019064010000000081111561149e57600080fd5b8201836020820111156114b057600080fd5b803590602001918460018302840111640100000000831117156114d257600080fd5b91908080601f016020809104026020016040519081016040528093929190818152602001838380828437600081840152601f19601f82011690508083019250505050505050919291929080359060200190929190505050613fd3565b005b6117176004803603606081101561154657600080fd5b810190808035906020019064010000000081111561156357600080fd5b82018360208201111561157557600080fd5b8035906020019184600183028401116401000000008311171561159757600080fd5b91908080601f016020809104026020016040519081016040528093929190818152602001838380828437600081840152601f19601f820116905080830192505050505050509192919290803590602001906401000000008111156115fa57600080fd5b82018360208201111561160c57600080fd5b8035906020019184600183028401116401000000008311171561162e57600080fd5b91908080601f016020809104026020016040519081016040528093929190818152602001838380828437600081840152601f19601f8201169050808301925050505050505091929192908035906020019064010000000081111561169157600080fd5b8201836020820111156116a357600080fd5b803590602001918460018302840111640100000000831117156116c557600080fd5b91908080601f016020809104026020016040519081016040528093929190818152602001838380828437600081840152601f19601f82011690508083019250505050505050919291929050505061429b565b005b61175b6004803603602081101561172f57600080fd5b81019080803573ffffffffffffffffffffffffffffffffffffffff169060200190929190505050614780565b005b61179f6004803603602081101561177357600080fd5b81019080803573ffffffffffffffffffffffffffffffffffffffff1690602001909291905050506148d1565b60405180806020018673ffffffffffffffffffffffffffffffffffffffff1673ffffffffffffffffffffffffffffffffffffffff16815260200180602001806020018563ffffffff1663ffffffff168152602001848103845289818151815260200191508051906020019080838360005b8381101561182b578082015181840152602081019050611810565b50505050905090810190601f1680156118585780820380516001836020036101000a031916815260200191505b50848103835287818151815260200191508051906020019080838360005b83811015611891578082015181840152602081019050611876565b50505050905090810190601f1680156118be5780820380516001836020036101000a031916815260200191505b50848103825286818151815260200191508051906020019080838360005b838110156118f75780820151818401526020810190506118dc565b50505050905090810190601f1680156119245780820380516001836020036101000a031916815260200191505b509850505050505050505060405180910390f35b6119846004803603604081101561194e57600080fd5b8101908080359060200190929190803573ffffffffffffffffffffffffffffffffffffffff169060200190929190505050614aff565b604051808215151515815260200191505060405180910390f35b60066020528060005260406000206000915054906101000a900473ffffffffffffffffffffffffffffffffffffffff1681565b336060600360008373ffffffffffffffffffffffffffffffffffffffff1673ffffffffffffffffffffffffffffffffffffffff1681526020019081526020016000206002018054600181600116156101000203166002900480601f016020809104026020016040519081016040528092919081815260200182805460018160011615610100020316600290048015611aaa5780601f10611a7f57610100808354040283529160200191611aaa565b820191906000526020600020905b815481529060010190602001808311611a8d57829003601f168201915b5050505050905060405160200180807f6e6f746172696f00000000000000000000000000000000000000000000000000815250600701905060405160208183030381529060405280519060200120816040516020018082805190602001908083835b60208310611b2f5780518252602082019150602081019050602083039250611b0c565b6001836020036101000a0380198251168184511680821785525050505050509050019150506040516020818303038152906040528051906020012014611bc0576040517f08c379a0000000000000000000000000000000000000000000000000000000008152600401808060200182810382526026815260200180615ef06026913960400191505060405180910390fd5b6000600460008573ffffffffffffffffffffffffffffffffffffffff1673ffffffffffffffffffffffffffffffffffffffff168152602001908152602001600020905060018160040160006101000a81548160ff02191690831515021790555050505050565b6002602052806000526040600020600091509050806000015490806001018054600181600116156101000203166002900480601f016020809104026020016040519081016040528092919081815260200182805460018160011615610100020316600290048015611cd85780601f10611cad57610100808354040283529160200191611cd8565b820191906000526020600020905b815481529060010190602001808311611cbb57829003601f168201915b505050505090806002015490806003015490806004018054600181600116156101000203166002900480601f016020809104026020016040519081016040528092919081815260200182805460018160011615610100020316600290048015611d825780601f10611d5757610100808354040283529160200191611d82565b820191906000526020600020905b815481529060010190602001808311611d6557829003601f168201915b505050505090806005018054600181600116156101000203166002900480601f016020809104026020016040519081016040528092919081815260200182805460018160011615610100020316600290048015611e205780601f10611df557610100808354040283529160200191611e20565b820191906000526020600020905b815481529060010190602001808311611e0357829003601f168201915b5050505050905086565b336060600360008373ffffffffffffffffffffffffffffffffffffffff1673ffffffffffffffffffffffffffffffffffffffff1681526020019081526020016000206002018054600181600116156101000203166002900480601f016020809104026020016040519081016040528092919081815260200182805460018160011615610100020316600290048015611f035780601f10611ed857610100808354040283529160200191611f03565b820191906000526020600020905b815481529060010190602001808311611ee657829003601f168201915b5050505050905060405160200180807f6e6f746172696f00000000000000000000000000000000000000000000000000815250600701905060405160208183030381529060405280519060200120816040516020018082805190602001908083835b60208310611f885780518252602082019150602081019050602083039250611f65565b6001836020036101000a0380198251168184511680821785525050505050509050019150506040516020818303038152906040528051906020012014612019576040517f08c379a0000000000000000000000000000000000000000000000000000000008152600401808060200182810382526026815260200180615ef06026913960400191505060405180910390fd5b600060018c8154811061202857fe5b906000526020600020906009020190508a816000019080519060200190612050929190615cab565b5089816001018190555088816002019080519060200190612072929190615cab565b508781600301908051906020019061208b929190615cab565b50868160040181905550858160050160006101000a81548160ff021916908315150217905550848160060190805190602001906120c9929190615cab565b50838160070190805190602001906120e2929190615cab565b50505050505050505050505050565b336060600360008373ffffffffffffffffffffffffffffffffffffffff1673ffffffffffffffffffffffffffffffffffffffff1681526020019081526020016000206002018054600181600116156101000203166002900480601f0160208091040260200160405190810160405280929190818152602001828054600181600116156101000203166002900480156121ca5780601f1061219f576101008083540402835291602001916121ca565b820191906000526020600020905b8154815290600101906020018083116121ad57829003601f168201915b5050505050905060405160200180807f6e6f746172696f00000000000000000000000000000000000000000000000000815250600701905060405160208183030381529060405280519060200120816040516020018082805190602001908083835b6020831061224f578051825260208201915060208101905060208303925061222c565b6001836020036101000a03801982511681845116808217855250505050505090500191505060405160208183030381529060405280519060200120146122e0576040517f08c379a0000000000000000000000000000000000000000000000000000000008152600401808060200182810382526026815260200180615ef06026913960400191505060405180910390fd5b6122ea8484614b54565b50505050565b60046020528060005260406000206000915090508060000160009054906101000a900473ffffffffffffffffffffffffffffffffffffffff1690806001018054600181600116156101000203166002900480601f0160208091040260200160405190810160405280929190818152602001828054600181600116156101000203166002900480156123c25780601f10612397576101008083540402835291602001916123c2565b820191906000526020600020905b8154815290600101906020018083116123a557829003601f168201915b505050505090806002018054600181600116156101000203166002900480601f0160208091040260200160405190810160405280929190818152602001828054600181600116156101000203166002900480156124605780601f1061243557610100808354040283529160200191612460565b820191906000526020600020905b81548152906001019060200180831161244357829003601f168201915b505050505090806003018054600181600116156101000203166002900480601f0160208091040260200160405190810160405280929190818152602001828054600181600116156101000203166002900480156124fe5780601f106124d3576101008083540402835291602001916124fe565b820191906000526020600020905b8154815290600101906020018083116124e157829003601f168201915b5050505050908060040160009054906101000a900460ff16908060050154905086565b606061252b615d2b565b600460008473ffffffffffffffffffffffffffffffffffffffff1673ffffffffffffffffffffffffffffffffffffffff1681526020019081526020016000206040518060c00160405290816000820160009054906101000a900473ffffffffffffffffffffffffffffffffffffffff1673ffffffffffffffffffffffffffffffffffffffff1673ffffffffffffffffffffffffffffffffffffffff168152602001600182018054600181600116156101000203166002900480601f0160208091040260200160405190810160405280929190818152602001828054600181600116156101000203166002900480156126645780601f1061263957610100808354040283529160200191612664565b820191906000526020600020905b81548152906001019060200180831161264757829003601f168201915b50505050508152602001600282018054600181600116156101000203166002900480601f0160208091040260200160405190810160405280929190818152602001828054600181600116156101000203166002900480156127065780601f106126db57610100808354040283529160200191612706565b820191906000526020600020905b8154815290600101906020018083116126e957829003601f168201915b50505050508152602001600382018054600181600116156101000203166002900480601f0160208091040260200160405190810160405280929190818152602001828054600181600116156101000203166002900480156127a85780601f1061277d576101008083540402835291602001916127a8565b820191906000526020600020905b81548152906001019060200180831161278b57829003601f168201915b505050505081526020016004820160009054906101000a900460ff16151515158152602001600582015481525050905060608160a0015160405190808252806020026020018201604052801561280d5781602001602082028038833980820191505090505b5090506000600860008673ffffffffffffffffffffffffffffffffffffffff1673ffffffffffffffffffffffffffffffffffffffff1681526020019081526020016000206000600173ffffffffffffffffffffffffffffffffffffffff1673ffffffffffffffffffffffffffffffffffffffff16815260200190815260200160002060009054906101000a900473ffffffffffffffffffffffffffffffffffffffff16905060008090505b8360a001518110156129985760006128cf83613ef6565b509050808483815181106128df57fe5b602002602001018181525050600860008873ffffffffffffffffffffffffffffffffffffffff1673ffffffffffffffffffffffffffffffffffffffff16815260200190815260200160002060008473ffffffffffffffffffffffffffffffffffffffff1673ffffffffffffffffffffffffffffffffffffffff16815260200190815260200160002060009054906101000a900473ffffffffffffffffffffffffffffffffffffffff1692505080806001019150506128b8565b50819350505050919050565b336060600360008373ffffffffffffffffffffffffffffffffffffffff1673ffffffffffffffffffffffffffffffffffffffff1681526020019081526020016000206002018054600181600116156101000203166002900480601f016020809104026020016040519081016040528092919081815260200182805460018160011615610100020316600290048015612a7d5780601f10612a5257610100808354040283529160200191612a7d565b820191906000526020600020905b815481529060010190602001808311612a6057829003601f168201915b5050505050905060405160200180807f6e6f746172696f00000000000000000000000000000000000000000000000000815250600701905060405160208183030381529060405280519060200120816040516020018082805190602001908083835b60208310612b025780518252602082019150602081019050602083039250612adf565b6001836020036101000a0380198251168184511680821785525050505050509050019150506040516020818303038152906040528051906020012014612b93576040517f08c379a0000000000000000000000000000000000000000000000000000000008152600401808060200182810382526026815260200180615ef06026913960400191505060405180910390fd5b612b9b615d79565b8a81600001819052508981602001818152505088816040018190525087816060018190525086816080018181525050858160a0019015159081151581525050848160c00181905250838160e00181905250600181908060018154018082558091505090600182039060005260206000209060090201600090919290919091506000820151816000019080519060200190612c36929190615dc9565b50602082015181600101556040820151816002019080519060200190612c5d929190615dc9565b506060820151816003019080519060200190612c7a929190615dc9565b506080820151816004015560a08201518160050160006101000a81548160ff02191690831515021790555060c0820151816006019080519060200190612cc1929190615dc9565b5060e0820151816007019080519060200190612cde929190615dc9565b506101008201518160080160006101000a81548160ff02191690831515021790555050505033600560006001808054905003815260200190815260200160002060006101000a81548173ffffffffffffffffffffffffffffffffffffffff021916908373ffffffffffffffffffffffffffffffffffffffff16021790555033600660006001808054905003815260200190815260200160002060006101000a81548173ffffffffffffffffffffffffffffffffffffffff021916908373ffffffffffffffffffffffffffffffffffffffff160217905550600160076000600180805490500381526020019081526020016000206000600173ffffffffffffffffffffffffffffffffffffffff1673ffffffffffffffffffffffffffffffffffffffff16815260200190815260200160002060006101000a81548173ffffffffffffffffffffffffffffffffffffffff021916908373ffffffffffffffffffffffffffffffffffffffff1602179055507f49246b4c08b747d84aa34aec42fe437cc97c681cc9d173f69100ec57e5fa703260018080549050038a3360405180848152602001806020018373ffffffffffffffffffffffffffffffffffffffff1673ffffffffffffffffffffffffffffffffffffffff168152602001828103825284818151815260200191508051906020019080838360005b83811015612ef0578082015181840152602081019050612ed5565b50505050905090810190601f168015612f1d5780820380516001836020036101000a031916815260200191505b5094505050505060405180910390a15050505050505050505050565b606060006005600084815260200190815260200160002060009054906101000a900473ffffffffffffffffffffffffffffffffffffffff169050612f7b615e49565b600360008373ffffffffffffffffffffffffffffffffffffffff1673ffffffffffffffffffffffffffffffffffffffff1681526020019081526020016000206040518060a0016040529081600082018054600181600116156101000203166002900480601f01602080910402602001604051908101604052809291908181526020018280546001816001161561010002031660029004801561305e5780601f106130335761010080835404028352916020019161305e565b820191906000526020600020905b81548152906001019060200180831161304157829003601f168201915b505050505081526020016001820160009054906101000a900473ffffffffffffffffffffffffffffffffffffffff1673ffffffffffffffffffffffffffffffffffffffff1673ffffffffffffffffffffffffffffffffffffffff168152602001600282018054600181600116156101000203166002900480601f0160208091040260200160405190810160405280929190818152602001828054600181600116156101000203166002900480156131565780601f1061312b57610100808354040283529160200191613156565b820191906000526020600020905b81548152906001019060200180831161313957829003601f168201915b50505050508152602001600382018054600181600116156101000203166002900480601f0160208091040260200160405190810160405280929190818152602001828054600181600116156101000203166002900480156131f85780601f106131cd576101008083540402835291602001916131f8565b820191906000526020600020905b8154815290600101906020018083116131db57829003601f168201915b505050505081526020016004820160009054906101000a900463ffffffff1663ffffffff1663ffffffff168152505090506060816080015163ffffffff166040519080825280602002602001820160405280156132645781602001602082028038833980820191505090505b5090506000600760008781526020019081526020016000206000600173ffffffffffffffffffffffffffffffffffffffff1673ffffffffffffffffffffffffffffffffffffffff16815260200190815260200160002060009054906101000a900473ffffffffffffffffffffffffffffffffffffffff16905060008090505b836080015163ffffffff168110156133bc578183828151811061330257fe5b602002602001019073ffffffffffffffffffffffffffffffffffffffff16908173ffffffffffffffffffffffffffffffffffffffff16815250506007600088815260200190815260200160002060008373ffffffffffffffffffffffffffffffffffffffff1673ffffffffffffffffffffffffffffffffffffffff16815260200190815260200160002060009054906101000a900473ffffffffffffffffffffffffffffffffffffffff16915080806001019150506132e3565b5081945050505050919050565b6000809054906101000a900473ffffffffffffffffffffffffffffffffffffffff1673ffffffffffffffffffffffffffffffffffffffff163373ffffffffffffffffffffffffffffffffffffffff161461342257600080fd5b6000600360008373ffffffffffffffffffffffffffffffffffffffff1673ffffffffffffffffffffffffffffffffffffffff16815260200190815260200160002090506040518060400160405280600781526020017f6e6f746172696f000000000000000000000000000000000000000000000000008152508160020190805190602001906134b2929190615cab565b505050565b33600073ffffffffffffffffffffffffffffffffffffffff16600360008373ffffffffffffffffffffffffffffffffffffffff1673ffffffffffffffffffffffffffffffffffffffff16815260200190815260200160002060010160009054906101000a900473ffffffffffffffffffffffffffffffffffffffff1673ffffffffffffffffffffffffffffffffffffffff161461359f576040517f08c379a000000000000000000000000000000000000000000000000000000000815260040180806020018281038252602b815260200180615f74602b913960400191505060405180910390fd5b6135a7615e49565b8381600001819052506040518060400160405280600781526020017f7573756172696f00000000000000000000000000000000000000000000000000815250816040018190525033816020019073ffffffffffffffffffffffffffffffffffffffff16908173ffffffffffffffffffffffffffffffffffffffff16815250508281606001819052506000816080019063ffffffff16908163ffffffff168152505080600360003373ffffffffffffffffffffffffffffffffffffffff1673ffffffffffffffffffffffffffffffffffffffff16815260200190815260200160002060008201518160000190805190602001906136a4929190615dc9565b5060208201518160010160006101000a81548173ffffffffffffffffffffffffffffffffffffffff021916908373ffffffffffffffffffffffffffffffffffffffff1602179055506040820151816002019080519060200190613708929190615dc9565b506060820151816003019080519060200190613725929190615dc9565b5060808201518160040160006101000a81548163ffffffff021916908363ffffffff1602179055509050507fa52e662cd3942dbf634082f9d4c9a9394743765f6879687e296647c30624dec3843360405180806020018373ffffffffffffffffffffffffffffffffffffffff1673ffffffffffffffffffffffffffffffffffffffff168152602001828103825284818151815260200191508051906020019080838360005b838110156137e55780820151818401526020810190506137ca565b50505050905090810190601f1680156138125780820380516001836020036101000a031916815260200191505b50935050505060405180910390a150505050565b81338073ffffffffffffffffffffffffffffffffffffffff166005600084815260200190815260200160002060009054906101000a900473ffffffffffffffffffffffffffffffffffffffff1673ffffffffffffffffffffffffffffffffffffffff16146138df576040517f08c379a0000000000000000000000000000000000000000000000000000000008152600401808060200182810382526031815260200180615f436031913960400191505060405180910390fd5b6138e98385614d05565b60006005600086815260200190815260200160002060009054906101000a900473ffffffffffffffffffffffffffffffffffffffff16905061392b8185614f67565b5050505050565b6000809054906101000a900473ffffffffffffffffffffffffffffffffffffffff1681565b6001818154811061396457fe5b9060005260206000209060090201600091509050806000018054600181600116156101000203166002900480601f016020809104026020016040519081016040528092919081815260200182805460018160011615610100020316600290048015613a105780601f106139e557610100808354040283529160200191613a10565b820191906000526020600020905b8154815290600101906020018083116139f357829003601f168201915b505050505090806001015490806002018054600181600116156101000203166002900480601f016020809104026020016040519081016040528092919081815260200182805460018160011615610100020316600290048015613ab45780601f10613a8957610100808354040283529160200191613ab4565b820191906000526020600020905b815481529060010190602001808311613a9757829003601f168201915b505050505090806003018054600181600116156101000203166002900480601f016020809104026020016040519081016040528092919081815260200182805460018160011615610100020316600290048015613b525780601f10613b2757610100808354040283529160200191613b52565b820191906000526020600020905b815481529060010190602001808311613b3557829003601f168201915b5050505050908060040154908060050160009054906101000a900460ff1690806006018054600181600116156101000203166002900480601f016020809104026020016040519081016040528092919081815260200182805460018160011615610100020316600290048015613c095780601f10613bde57610100808354040283529160200191613c09565b820191906000526020600020905b815481529060010190602001808311613bec57829003601f168201915b505050505090806007018054600181600116156101000203166002900480601f016020809104026020016040519081016040528092919081815260200182805460018160011615610100020316600290048015613ca75780601f10613c7c57610100808354040283529160200191613ca7565b820191906000526020600020905b815481529060010190602001808311613c8a57829003601f168201915b5050505050908060080160009054906101000a900460ff16905089565b806060600360008373ffffffffffffffffffffffffffffffffffffffff1673ffffffffffffffffffffffffffffffffffffffff1681526020019081526020016000206002018054600181600116156101000203166002900480601f016020809104026020016040519081016040528092919081815260200182805460018160011615610100020316600290048015613d9d5780601f10613d7257610100808354040283529160200191613d9d565b820191906000526020600020905b815481529060010190602001808311613d8057829003601f168201915b5050505050905060405160200180807f6e6f746172696f00000000000000000000000000000000000000000000000000815250600701905060405160208183030381529060405280519060200120816040516020018082805190602001908083835b60208310613e225780518252602082019150602081019050602083039250613dff565b6001836020036101000a0380198251168184511680821785525050505050509050019150506040516020818303038152906040528051906020012014613eb3576040517f08c379a0000000000000000000000000000000000000000000000000000000008152600401808060200182810382526026815260200180615ef06026913960400191505060405180910390fd5b600060018681548110613ec257fe5b90600052602060002090600902019050848160080160006101000a81548160ff021916908315150217905550505050505050565b6000806000809050600080905060008090505b600180549050811015613f92578573ffffffffffffffffffffffffffffffffffffffff166005600083815260200190815260200160002060009054906101000a900473ffffffffffffffffffffffffffffffffffffffff1673ffffffffffffffffffffffffffffffffffffffff161415613f8557809250600191505b8080600101915050613f09565b508181935093505050915091565b60056020528060005260406000206000915054906101000a900473ffffffffffffffffffffffffffffffffffffffff1681565b336060600360008373ffffffffffffffffffffffffffffffffffffffff1673ffffffffffffffffffffffffffffffffffffffff1681526020019081526020016000206002018054600181600116156101000203166002900480601f0160208091040260200160405190810160405280929190818152602001828054600181600116156101000203166002900480156140ac5780601f10614081576101008083540402835291602001916140ac565b820191906000526020600020905b81548152906001019060200180831161408f57829003601f168201915b5050505050905060405160200180807f6e6f746172696f00000000000000000000000000000000000000000000000000815250600701905060405160208183030381529060405280519060200120816040516020018082805190602001908083835b60208310614131578051825260208201915060208101905060208303925061410e565b6001836020036101000a03801982511681845116808217855250505050505090500191505060405160208183030381529060405280519060200120146141c2576040517f08c379a0000000000000000000000000000000000000000000000000000000008152600401808060200182810382526026815260200180615ef06026913960400191505060405180910390fd5b6141ca615e94565b898160000181815250508881602001819052508781604001818152505086816060018181525050858160800181905250848160a00181905250806002600086815260200190815260200160002060008201518160000155602082015181600101908051906020019061423d929190615dc9565b506040820151816002015560608201518160030155608082015181600401908051906020019061426e929190615dc9565b5060a082015181600501908051906020019061428b929190615dc9565b5090505050505050505050505050565b33600073ffffffffffffffffffffffffffffffffffffffff16600360008373ffffffffffffffffffffffffffffffffffffffff1673ffffffffffffffffffffffffffffffffffffffff16815260200190815260200160002060010160009054906101000a900473ffffffffffffffffffffffffffffffffffffffff1673ffffffffffffffffffffffffffffffffffffffff1614614383576040517f08c379a000000000000000000000000000000000000000000000000000000000815260040180806020018281038252602b815260200180615f74602b913960400191505060405180910390fd5b600073ffffffffffffffffffffffffffffffffffffffff16600460008373ffffffffffffffffffffffffffffffffffffffff1673ffffffffffffffffffffffffffffffffffffffff16815260200190815260200160002060000160009054906101000a900473ffffffffffffffffffffffffffffffffffffffff1673ffffffffffffffffffffffffffffffffffffffff161461446a576040517f08c379a000000000000000000000000000000000000000000000000000000000815260040180806020018281038252602d815260200180615f16602d913960400191505060405180910390fd5b614472615d2b565b33816000019073ffffffffffffffffffffffffffffffffffffffff16908173ffffffffffffffffffffffffffffffffffffffff1681525050848160200181905250838160400181905250828160600181905250600081608001901515908115158152505060008160a001818152505080600460003373ffffffffffffffffffffffffffffffffffffffff1673ffffffffffffffffffffffffffffffffffffffff16815260200190815260200160002060008201518160000160006101000a81548173ffffffffffffffffffffffffffffffffffffffff021916908373ffffffffffffffffffffffffffffffffffffffff1602179055506020820151816001019080519060200190614584929190615dc9565b5060408201518160020190805190602001906145a1929190615dc9565b5060608201518160030190805190602001906145be929190615dc9565b5060808201518160040160006101000a81548160ff02191690831515021790555060a082015181600501559050506001600860003373ffffffffffffffffffffffffffffffffffffffff1673ffffffffffffffffffffffffffffffffffffffff1681526020019081526020016000206000600173ffffffffffffffffffffffffffffffffffffffff1673ffffffffffffffffffffffffffffffffffffffff16815260200190815260200160002060006101000a81548173ffffffffffffffffffffffffffffffffffffffff021916908373ffffffffffffffffffffffffffffffffffffffff1602179055507fc824fbfbb64c78933531d4f379693c2bb3bc161b873d7e96fed36e8754663cda853360405180806020018373ffffffffffffffffffffffffffffffffffffffff1673ffffffffffffffffffffffffffffffffffffffff168152602001828103825284818151815260200191508051906020019080838360005b8381101561473e578082015181840152602081019050614723565b50505050905090810190601f16801561476b5780820380516001836020036101000a031916815260200191505b50935050505060405180910390a15050505050565b6000809054906101000a900473ffffffffffffffffffffffffffffffffffffffff1673ffffffffffffffffffffffffffffffffffffffff163373ffffffffffffffffffffffffffffffffffffffff16146147d957600080fd5b600073ffffffffffffffffffffffffffffffffffffffff168173ffffffffffffffffffffffffffffffffffffffff16141561481357600080fd5b8073ffffffffffffffffffffffffffffffffffffffff166000809054906101000a900473ffffffffffffffffffffffffffffffffffffffff1673ffffffffffffffffffffffffffffffffffffffff167f8be0079c531659141344cd1fd0a4f28419497f9722a3daafe3b4186f6b6457e060405160405180910390a3806000806101000a81548173ffffffffffffffffffffffffffffffffffffffff021916908373ffffffffffffffffffffffffffffffffffffffff16021790555050565b6003602052806000526040600020600091509050806000018054600181600116156101000203166002900480601f01602080910402602001604051908101604052809291908181526020018280546001816001161561010002031660029004801561497d5780601f106149525761010080835404028352916020019161497d565b820191906000526020600020905b81548152906001019060200180831161496057829003601f168201915b5050505050908060010160009054906101000a900473ffffffffffffffffffffffffffffffffffffffff1690806002018054600181600116156101000203166002900480601f016020809104026020016040519081016040528092919081815260200182805460018160011615610100020316600290048015614a415780601f10614a1657610100808354040283529160200191614a41565b820191906000526020600020905b815481529060010190602001808311614a2457829003601f168201915b505050505090806003018054600181600116156101000203166002900480601f016020809104026020016040519081016040528092919081815260200182805460018160011615610100020316600290048015614adf5780601f10614ab457610100808354040283529160200191614adf565b820191906000526020600020905b815481529060010190602001808311614ac257829003601f168201915b5050505050908060040160009054906101000a900463ffffffff16905085565b6000614b0b82846151eb565b60006005600085815260200190815260200160002060009054906101000a900473ffffffffffffffffffffffffffffffffffffffff169050614b4d818461545b565b5092915050565b600073ffffffffffffffffffffffffffffffffffffffff168273ffffffffffffffffffffffffffffffffffffffff161415614bf7576040517f08c379a000000000000000000000000000000000000000000000000000000000815260040180806020018281038252601d8152602001807f4c61206e7565766120646972656363696f6e2065732076c3a16c69646100000081525060200191505060405180910390fd5b600060018281548110614c0657fe5b9060005260206000209060090201905060018160080160006101000a81548160ff021916908315150217905550826005600084815260200190815260200160002060006101000a81548173ffffffffffffffffffffffffffffffffffffffff021916908373ffffffffffffffffffffffffffffffffffffffff1602179055508273ffffffffffffffffffffffffffffffffffffffff166000809054906101000a900473ffffffffffffffffffffffffffffffffffffffff1673ffffffffffffffffffffffffffffffffffffffff167f8be0079c531659141344cd1fd0a4f28419497f9722a3daafe3b4186f6b6457e060405160405180910390a3505050565b614d0f82826156ed565b15614d1957600080fd5b600760008281526020019081526020016000206000600173ffffffffffffffffffffffffffffffffffffffff1673ffffffffffffffffffffffffffffffffffffffff16815260200190815260200160002060009054906101000a900473ffffffffffffffffffffffffffffffffffffffff166007600083815260200190815260200160002060008473ffffffffffffffffffffffffffffffffffffffff1673ffffffffffffffffffffffffffffffffffffffff16815260200190815260200160002060006101000a81548173ffffffffffffffffffffffffffffffffffffffff021916908373ffffffffffffffffffffffffffffffffffffffff16021790555081600760008381526020019081526020016000206000600173ffffffffffffffffffffffffffffffffffffffff1673ffffffffffffffffffffffffffffffffffffffff16815260200190815260200160002060006101000a81548173ffffffffffffffffffffffffffffffffffffffff021916908373ffffffffffffffffffffffffffffffffffffffff16021790555060006005600083815260200190815260200160002060009054906101000a900473ffffffffffffffffffffffffffffffffffffffff1690506000600360008373ffffffffffffffffffffffffffffffffffffffff1673ffffffffffffffffffffffffffffffffffffffff168152602001908152602001600020905080600401600081819054906101000a900463ffffffff168092919060010191906101000a81548163ffffffff021916908363ffffffff1602179055505050505050565b614f718282615797565b15614f7b57600080fd5b600860008273ffffffffffffffffffffffffffffffffffffffff1673ffffffffffffffffffffffffffffffffffffffff1681526020019081526020016000206000600173ffffffffffffffffffffffffffffffffffffffff1673ffffffffffffffffffffffffffffffffffffffff16815260200190815260200160002060009054906101000a900473ffffffffffffffffffffffffffffffffffffffff16600860008373ffffffffffffffffffffffffffffffffffffffff1673ffffffffffffffffffffffffffffffffffffffff16815260200190815260200160002060008473ffffffffffffffffffffffffffffffffffffffff1673ffffffffffffffffffffffffffffffffffffffff16815260200190815260200160002060006101000a81548173ffffffffffffffffffffffffffffffffffffffff021916908373ffffffffffffffffffffffffffffffffffffffff16021790555081600860008373ffffffffffffffffffffffffffffffffffffffff1673ffffffffffffffffffffffffffffffffffffffff1681526020019081526020016000206000600173ffffffffffffffffffffffffffffffffffffffff1673ffffffffffffffffffffffffffffffffffffffff16815260200190815260200160002060006101000a81548173ffffffffffffffffffffffffffffffffffffffff021916908373ffffffffffffffffffffffffffffffffffffffff1602179055506000600460008373ffffffffffffffffffffffffffffffffffffffff1673ffffffffffffffffffffffffffffffffffffffff16815260200190815260200160002090508060050160008154809291906001019190505550505050565b6151f582826156ed565b6151fe57600080fd5b600061520a838361586d565b90506007600083815260200190815260200160002060008473ffffffffffffffffffffffffffffffffffffffff1673ffffffffffffffffffffffffffffffffffffffff16815260200190815260200160002060009054906101000a900473ffffffffffffffffffffffffffffffffffffffff166007600084815260200190815260200160002060008373ffffffffffffffffffffffffffffffffffffffff1673ffffffffffffffffffffffffffffffffffffffff16815260200190815260200160002060006101000a81548173ffffffffffffffffffffffffffffffffffffffff021916908373ffffffffffffffffffffffffffffffffffffffff16021790555060006007600084815260200190815260200160002060008573ffffffffffffffffffffffffffffffffffffffff1673ffffffffffffffffffffffffffffffffffffffff16815260200190815260200160002060006101000a81548173ffffffffffffffffffffffffffffffffffffffff021916908373ffffffffffffffffffffffffffffffffffffffff16021790555060006005600084815260200190815260200160002060009054906101000a900473ffffffffffffffffffffffffffffffffffffffff1690506000600360008373ffffffffffffffffffffffffffffffffffffffff1673ffffffffffffffffffffffffffffffffffffffff168152602001908152602001600020905080600401600081819054906101000a900463ffffffff16809291906001900391906101000a81548163ffffffff021916908363ffffffff160217905550505050505050565b6154658282615797565b61546e57600080fd5b600061547a8383615a4a565b9050600860008373ffffffffffffffffffffffffffffffffffffffff1673ffffffffffffffffffffffffffffffffffffffff16815260200190815260200160002060008473ffffffffffffffffffffffffffffffffffffffff1673ffffffffffffffffffffffffffffffffffffffff16815260200190815260200160002060009054906101000a900473ffffffffffffffffffffffffffffffffffffffff16600860008473ffffffffffffffffffffffffffffffffffffffff1673ffffffffffffffffffffffffffffffffffffffff16815260200190815260200160002060008373ffffffffffffffffffffffffffffffffffffffff1673ffffffffffffffffffffffffffffffffffffffff16815260200190815260200160002060006101000a81548173ffffffffffffffffffffffffffffffffffffffff021916908373ffffffffffffffffffffffffffffffffffffffff1602179055506000600860008473ffffffffffffffffffffffffffffffffffffffff1673ffffffffffffffffffffffffffffffffffffffff16815260200190815260200160002060008573ffffffffffffffffffffffffffffffffffffffff1673ffffffffffffffffffffffffffffffffffffffff16815260200190815260200160002060006101000a81548173ffffffffffffffffffffffffffffffffffffffff021916908373ffffffffffffffffffffffffffffffffffffffff1602179055506000600460008473ffffffffffffffffffffffffffffffffffffffff1673ffffffffffffffffffffffffffffffffffffffff168152602001908152602001600020905080600501600081548092919060019003919050555050505050565b60008073ffffffffffffffffffffffffffffffffffffffff166007600084815260200190815260200160002060008573ffffffffffffffffffffffffffffffffffffffff1673ffffffffffffffffffffffffffffffffffffffff16815260200190815260200160002060009054906101000a900473ffffffffffffffffffffffffffffffffffffffff1673ffffffffffffffffffffffffffffffffffffffff161415905092915050565b60008073ffffffffffffffffffffffffffffffffffffffff16600860008473ffffffffffffffffffffffffffffffffffffffff1673ffffffffffffffffffffffffffffffffffffffff16815260200190815260200160002060008573ffffffffffffffffffffffffffffffffffffffff1673ffffffffffffffffffffffffffffffffffffffff16815260200190815260200160002060009054906101000a900473ffffffffffffffffffffffffffffffffffffffff1673ffffffffffffffffffffffffffffffffffffffff161415905092915050565b600080600190505b600173ffffffffffffffffffffffffffffffffffffffff166007600085815260200190815260200160002060008373ffffffffffffffffffffffffffffffffffffffff1673ffffffffffffffffffffffffffffffffffffffff16815260200190815260200160002060009054906101000a900473ffffffffffffffffffffffffffffffffffffffff1673ffffffffffffffffffffffffffffffffffffffff1614615a3e578373ffffffffffffffffffffffffffffffffffffffff166007600085815260200190815260200160002060008373ffffffffffffffffffffffffffffffffffffffff1673ffffffffffffffffffffffffffffffffffffffff16815260200190815260200160002060009054906101000a900473ffffffffffffffffffffffffffffffffffffffff1673ffffffffffffffffffffffffffffffffffffffff1614156159c65780915050615a44565b6007600084815260200190815260200160002060008273ffffffffffffffffffffffffffffffffffffffff1673ffffffffffffffffffffffffffffffffffffffff16815260200190815260200160002060009054906101000a900473ffffffffffffffffffffffffffffffffffffffff169050615875565b60019150505b92915050565b600080600190505b600173ffffffffffffffffffffffffffffffffffffffff16600860008573ffffffffffffffffffffffffffffffffffffffff1673ffffffffffffffffffffffffffffffffffffffff16815260200190815260200160002060008373ffffffffffffffffffffffffffffffffffffffff1673ffffffffffffffffffffffffffffffffffffffff16815260200190815260200160002060009054906101000a900473ffffffffffffffffffffffffffffffffffffffff1673ffffffffffffffffffffffffffffffffffffffff1614615c9f578373ffffffffffffffffffffffffffffffffffffffff16600860008573ffffffffffffffffffffffffffffffffffffffff1673ffffffffffffffffffffffffffffffffffffffff16815260200190815260200160002060008373ffffffffffffffffffffffffffffffffffffffff1673ffffffffffffffffffffffffffffffffffffffff16815260200190815260200160002060009054906101000a900473ffffffffffffffffffffffffffffffffffffffff1673ffffffffffffffffffffffffffffffffffffffff161415615bfb5780915050615ca5565b600860008473ffffffffffffffffffffffffffffffffffffffff1673ffffffffffffffffffffffffffffffffffffffff16815260200190815260200160002060008273ffffffffffffffffffffffffffffffffffffffff1673ffffffffffffffffffffffffffffffffffffffff16815260200190815260200160002060009054906101000a900473ffffffffffffffffffffffffffffffffffffffff169050615a52565b60019150505b92915050565b828054600181600116156101000203166002900490600052602060002090601f016020900481019282601f10615cec57805160ff1916838001178555615d1a565b82800160010185558215615d1a579182015b82811115615d19578251825591602001919060010190615cfe565b5b509050615d279190615eca565b5090565b6040518060c00160405280600073ffffffffffffffffffffffffffffffffffffffff168152602001606081526020016060815260200160608152602001600015158152602001600081525090565b604051806101200160405280606081526020016000815260200160608152602001606081526020016000815260200160001515815260200160608152602001606081526020016000151581525090565b828054600181600116156101000203166002900490600052602060002090601f016020900481019282601f10615e0a57805160ff1916838001178555615e38565b82800160010185558215615e38579182015b82811115615e37578251825591602001919060010190615e1c565b5b509050615e459190615eca565b5090565b6040518060a0016040528060608152602001600073ffffffffffffffffffffffffffffffffffffffff1681526020016060815260200160608152602001600063ffffffff1681525090565b6040518060c001604052806000815260200160608152602001600081526020016000815260200160608152602001606081525090565b615eec91905b80821115615ee8576000816000905550600101615ed0565b5090565b9056fe4c6120646972656363696f6e206e6f2070657274656e656365206120756e206e6f746172696f4c6120646972656363696f6e207961207469656e6520756e61206375656e746120646520696e7374697475746f456c20636572746966696361646f206e6f2070657274656e63652061206c6120646972656363696f6e20656e76696164614c6120646972656363696f6e207961207469656e6520756e61206375656e7461206465207573756172696fa265627a7a723158204ffd454f3f57a0a2255e8fbae61e6c998cacceb60cc1724c4b698ddb9ad965a164736f6c63430005100032",
  "source": "pragma solidity ^0.5.0;\r\nimport \"./ownable.sol\";\r\ncontract CertificadoNacimiento is Ownable{\r\n    \r\n    // Variables\r\n    \r\n    // Estructuras\r\n    struct Certificado{\r\n        // ubicacion\r\n        string departamento;  // departamento provincia localidad\r\n        // string provincia;\r\n        // string localidad;\r\n        // string localidad_emision;\r\n        \r\n        // date\r\n        uint256 fecha; // timestamp\r\n        // uint256 fecha_emision;\r\n        //usuario\r\n        string nombre; // Nombre completo\r\n        string departamento_nacimiento; // departamento provincia localidad\r\n        // string provincia_nacimiento;\r\n        // string localidad_nacimiento;\r\n        uint256 fecha_naciminto; // timestamp\r\n        bool sexo; // 0:masculino, 1:femenino\r\n        string nombre_padre; // Nombre completo\r\n        string nombre_madre; // Nombre completo\r\n        bool active;\r\n        // address notario;\r\n    }\r\n    struct Complemento{\r\n        uint256 oficialia;\r\n        string libro;\r\n        uint256 partida;\r\n        uint256 folio;\r\n        string serie;\r\n        string nota_aclaratoria;\r\n    }\r\n    struct Usuario{\r\n        string nombre; // Nombre completo\r\n        address direccion;\r\n        string role;\r\n        string email;\r\n        uint32 listSizeInstituciones;\r\n    }\r\n    struct Instituto{\r\n        address direccion;\r\n        string nombre;\r\n        string telefono;\r\n        string email;\r\n        bool verified;\r\n        uint256 listSizeCertificados;\r\n    }\r\n    \r\n    Certificado [] public certificados;\r\n    address constant internal FIRST_ADDRESS = address(1);\r\n    \r\n    // Diccionarios\r\n    mapping(uint256 => Complemento) public complementos;\r\n    mapping(address=>Usuario) public usuarios;\r\n    mapping(address=>Instituto) public institutos;\r\n    mapping (uint256 => address) public certifcadoToOwner;\r\n    mapping (uint256 => address) public certifiedCreator; // Address del creador del certificado(Notario)\r\n    \r\n    mapping(uint256 => mapping(address=> address)) internal listaInstitucionesXCertificado;\r\n    mapping(address => mapping(address=> address)) internal listaCertificadosXInstituciones;\r\n    \r\n    \r\n    \r\n    // Eventos\r\n    event newCertificado(uint certificadoId, string nombre, address notario);\r\n    event newUsuario(string nombre, address notario);\r\n    event newInstituto(string nombre, address instituto);\r\n    event OwnershipTransferred(address indexed previousOwner,address indexed newOwner);\r\n\r\n    // Modificadores\r\n    modifier onlyNotario(address _direccion) {\r\n        string memory role = usuarios[_direccion].role;\r\n        require(keccak256(abi.encodePacked(role)) == keccak256(abi.encodePacked(\"notario\")),\"La direccion no pertenece a un notario\");\r\n        _;\r\n    }\r\n    modifier onlyOwnerCertificate(uint256 _certificadoId, address _direccion){\r\n        require(certifcadoToOwner[_certificadoId] == _direccion,\"El certificado no pertence a la direccion enviada\");\r\n        _;\r\n    }\r\n    modifier onlyUserbyAddress(address _direccion){\r\n        require(usuarios[_direccion].direccion==address(0),\"La direccion ya tiene una cuenta de usuario\");\r\n        _;\r\n    }\r\n    modifier onlyInstitutoByAddress(address _direccion){\r\n        require(usuarios[_direccion].direccion==address(0),\"La direccion ya tiene una cuenta de usuario\");\r\n        require(institutos[_direccion].direccion==address(0),\"La direccion ya tiene una cuenta de instituto\");\r\n        _;\r\n    }\r\n    // modifier onlyTrue(address _institucion, uint256 _certificadoId){\r\n    //     require(certificados[_certificadoId].active==true,\"No se puede compartir un certificado no activo\");\r\n    //     require(institutos[_institucion].verified ==true,\"No se puede compartir a un instituto no verificado\");\r\n    //     _;\r\n    // }\r\n    \r\n    // Constructor\r\n    constructor() public {\r\n         Certificado memory nCertificado;\r\n         certificados.push(nCertificado);\r\n    }\r\n    \r\n    // Metodos\r\n    function createUser(string memory _nombre, string memory _email) public onlyUserbyAddress(msg.sender){\r\n        Usuario memory n_user;\r\n        n_user.nombre = _nombre;\r\n        n_user.role = \"usuario\";\r\n        n_user.direccion = msg.sender;\r\n        n_user.email = _email;\r\n        n_user.listSizeInstituciones=0;\r\n        usuarios[msg.sender]=n_user;\r\n        emit newUsuario(_nombre,msg.sender);\r\n    }\r\n    \r\n    function roleNotario(address _direccion)public onlyOwner{\r\n        Usuario storage notario = usuarios[_direccion];\r\n        notario.role=\"notario\";\r\n    }\r\n    \r\n    function validarInstitucion(address _direccion) public onlyNotario(msg.sender){\r\n        Instituto storage instituto = institutos[_direccion];\r\n        instituto.verified=true;\r\n    }\r\n    \r\n    function createCertificado(string memory _departamento,uint256 _fecha,string memory _nombre,\r\n    string memory _departamento_nacimiento, uint256 _fecha_nacimiento,bool _sexo,\r\n    string memory _nombre_padre,string memory _nombre_madre) public onlyNotario(msg.sender){\r\n        Certificado memory nCertificado;\r\n        nCertificado.departamento =_departamento;\r\n        nCertificado.fecha = _fecha;\r\n        nCertificado.nombre = _nombre;\r\n        nCertificado.departamento_nacimiento = _departamento_nacimiento;\r\n        nCertificado.fecha_naciminto = _fecha_nacimiento;\r\n        nCertificado.sexo = _sexo;\r\n        nCertificado.nombre_padre = _nombre_padre;\r\n        nCertificado.nombre_madre = _nombre_madre;\r\n        certificados.push(nCertificado);\r\n        certifcadoToOwner[certificados.length - 1] = msg.sender;\r\n        certifiedCreator[certificados.length -1] =  msg.sender;\r\n        \r\n        listaInstitucionesXCertificado[certificados.length - 1][FIRST_ADDRESS]=FIRST_ADDRESS;\r\n        emit newCertificado(certificados.length -1, _nombre,msg.sender);\r\n    }\r\n    \r\n    function crearComplemento(uint256 _oficialia,string memory _libro, uint256 _partida, \r\n    uint256 _folio,string memory _serie,string memory _nota_aclaratoria,uint256 _certificadoId) public onlyNotario(msg.sender){\r\n        Complemento memory nComplemento;\r\n        nComplemento.oficialia = _oficialia;\r\n        nComplemento.libro = _libro;\r\n        nComplemento.partida = _partida;\r\n        nComplemento.folio = _folio;\r\n        nComplemento.serie = _serie;\r\n        nComplemento.nota_aclaratoria = _nota_aclaratoria;\r\n        complementos[_certificadoId]= nComplemento;\r\n    }\r\n    \r\n    function crearInstituto(string memory _nombre,string memory _telefono,string memory _email) public onlyInstitutoByAddress(msg.sender){\r\n         Instituto memory n_instituto;\r\n         n_instituto.direccion = msg.sender;\r\n         n_instituto.nombre = _nombre;\r\n         n_instituto.telefono = _telefono;\r\n         n_instituto.email = _email;\r\n         n_instituto.verified = false;\r\n         n_instituto.listSizeCertificados=0;\r\n         institutos[msg.sender] = n_instituto;\r\n         \r\n         listaCertificadosXInstituciones[msg.sender][FIRST_ADDRESS]=FIRST_ADDRESS;\r\n         emit newInstituto(_nombre,msg.sender);\r\n    }\r\n    \r\n    function setCertificate(uint256 _certificadoId,string memory _departamento,uint256 _fecha,string memory _nombre,\r\n    string memory _departamento_nacimiento, uint256 _fecha_nacimiento,bool _sexo,\r\n    string memory _nombre_padre,string memory _nombre_madre) public onlyNotario(msg.sender){\r\n        Certificado storage nCertificado = certificados[_certificadoId];\r\n        nCertificado.departamento =_departamento;\r\n        nCertificado.fecha = _fecha;\r\n        nCertificado.nombre = _nombre;\r\n        nCertificado.departamento_nacimiento = _departamento_nacimiento;\r\n        nCertificado.fecha_naciminto = _fecha_nacimiento;\r\n        nCertificado.sexo = _sexo;\r\n        nCertificado.nombre_padre = _nombre_padre;\r\n        nCertificado.nombre_madre = _nombre_madre;\r\n    }\r\n    \r\n    function getCertificadoByOwner(address _owner) public view returns(uint256,bool) {\r\n        uint256 resultado = 0;\r\n        bool valido = false;\r\n        for (uint i = 0; i < certificados.length; i++) {\r\n          if (certifcadoToOwner[i] == _owner) {\r\n            resultado = i;\r\n            valido = true;\r\n          }\r\n        }\r\n        return (resultado,valido);\r\n    }\r\n    \r\n    function transferCertificado(address _newOwner,uint256 _certificadoId) public onlyNotario(msg.sender) {\r\n        _transferCertificado(_newOwner,_certificadoId);\r\n    }\r\n    \r\n    function _transferCertificado(address _newOwner,uint256 _certificadoId) internal {\r\n        require(_newOwner != address(0),\"La nueva direccion es vlida\");\r\n        Certificado storage _certificado = certificados[_certificadoId];\r\n        _certificado.active = true;\r\n        certifcadoToOwner[_certificadoId]= _newOwner;\r\n        \r\n        emit OwnershipTransferred(owner, _newOwner);\r\n    }\r\n    \r\n    function setActive(uint256 _certificadoId, bool _active,address _notario) public onlyNotario(_notario){\r\n        Certificado storage _certificado = certificados[_certificadoId];\r\n        _certificado.active = _active;\r\n    }\r\n    \r\n    function compartirCertificado(uint256 _certificadoId, address _institucion) public onlyOwnerCertificate(_certificadoId,msg.sender){\r\n      addListCertificado(_institucion,_certificadoId);\r\n      \r\n      address owner = certifcadoToOwner[_certificadoId];\r\n    //   ownerToCerfificado[owner] =_certificadoId;\r\n      addListInstitucion(owner,_institucion);\r\n    }\r\n    \r\n    function desCompartirCertificado(uint256 _certificadoId, address _institucion) public returns(bool){\r\n        removeListCertificado(_institucion,_certificadoId);\r\n        \r\n        address owner = certifcadoToOwner[_certificadoId];\r\n        removeListInstitucion(owner,_institucion);\r\n    }\r\n    \r\n    function isInListCertificado(address _address,uint256 _certificadoId) view internal returns(bool){\r\n        return listaInstitucionesXCertificado[_certificadoId][_address] != address(0);\r\n    }\r\n    \r\n    function isInListInstituciones(address _address,address _addressInstituto) view internal returns(bool){\r\n        return listaCertificadosXInstituciones[_addressInstituto][_address] != address(0);\r\n    }\r\n    \r\n    function getPrevCertificado(address _address,uint256 _certificadoId) view internal returns(address){\r\n        address currentAddress = FIRST_ADDRESS;\r\n        while(listaInstitucionesXCertificado[_certificadoId][currentAddress]!= FIRST_ADDRESS){\r\n            if(listaInstitucionesXCertificado [_certificadoId][currentAddress] == _address){\r\n                return currentAddress;\r\n            }\r\n            currentAddress=listaInstitucionesXCertificado[_certificadoId][currentAddress];\r\n        }\r\n        return FIRST_ADDRESS;\r\n    }\r\n    \r\n    function getPrevInstitucion(address _address,address _addressInstituto) view internal returns(address){\r\n        address currentAddress = FIRST_ADDRESS;\r\n        while(listaCertificadosXInstituciones[_addressInstituto][currentAddress]!= FIRST_ADDRESS){\r\n            if(listaCertificadosXInstituciones[_addressInstituto][currentAddress] == _address){\r\n                return currentAddress;\r\n            }\r\n            currentAddress=listaCertificadosXInstituciones[_addressInstituto][currentAddress];\r\n        }\r\n        return FIRST_ADDRESS;\r\n    }\r\n    \r\n    function addListCertificado(address _address,uint256 _certificadoId) internal {\r\n        require(!isInListCertificado(_address,_certificadoId));\r\n        listaInstitucionesXCertificado[_certificadoId][_address]=listaInstitucionesXCertificado[_certificadoId][FIRST_ADDRESS];\r\n        listaInstitucionesXCertificado[_certificadoId][FIRST_ADDRESS]=_address;\r\n        address user_address = certifcadoToOwner[_certificadoId];\r\n        Usuario storage user = usuarios[user_address];\r\n        user.listSizeInstituciones++;\r\n    }\r\n    \r\n    function addListInstitucion(address _address,address _addressInstituto) internal {\r\n        require(!isInListInstituciones(_address,_addressInstituto));\r\n        listaCertificadosXInstituciones[_addressInstituto][_address]=listaCertificadosXInstituciones[_addressInstituto][FIRST_ADDRESS];\r\n        listaCertificadosXInstituciones[_addressInstituto][FIRST_ADDRESS]=_address;\r\n        Instituto storage instituto = institutos[_addressInstituto];\r\n        instituto.listSizeCertificados++;\r\n    }\r\n    \r\n    function removeListCertificado(address _address,uint256 _certificadoId) internal {\r\n        require(isInListCertificado(_address,_certificadoId));\r\n        address prevUser = getPrevCertificado(_address,_certificadoId);\r\n        listaInstitucionesXCertificado[_certificadoId][prevUser]= listaInstitucionesXCertificado[_certificadoId][_address];\r\n        listaInstitucionesXCertificado[_certificadoId][_address]=address(0);\r\n        address user_address = certifcadoToOwner[_certificadoId];\r\n        Usuario storage user = usuarios[user_address];\r\n        user.listSizeInstituciones --;\r\n    }\r\n    \r\n    function removeListInstitucion(address _address,address _addressInstituto) internal {\r\n        require(isInListInstituciones(_address,_addressInstituto));\r\n        address prevUser = getPrevInstitucion(_address,_addressInstituto);\r\n        listaCertificadosXInstituciones[_addressInstituto][prevUser]= listaCertificadosXInstituciones[_addressInstituto][_address];\r\n        listaCertificadosXInstituciones[_addressInstituto][_address]=address(0);\r\n        Instituto storage instituto = institutos[_addressInstituto];\r\n        instituto.listSizeCertificados --;\r\n    }\r\n    \r\n    function listarInstituciones(uint256 _certificadoId) view public returns(address[] memory){\r\n        address user_address = certifcadoToOwner[_certificadoId];\r\n        Usuario memory user = usuarios[user_address];\r\n        address [] memory usersArray = new address[](user.listSizeInstituciones);\r\n        address currentAddress =  listaInstitucionesXCertificado[_certificadoId][FIRST_ADDRESS];\r\n        for(uint256 i =0; i<user.listSizeInstituciones;i++){\r\n            usersArray[i]=currentAddress;\r\n            currentAddress=listaInstitucionesXCertificado[_certificadoId][currentAddress];\r\n        }\r\n        return usersArray;\r\n    }\r\n    \r\n    function listarCertitificados(address _addressInstituto) view public returns(uint256[] memory){\r\n        Instituto memory instituto = institutos[_addressInstituto];\r\n        uint256 [] memory usersArray = new uint256[](instituto.listSizeCertificados);\r\n        address currentAddress =  listaCertificadosXInstituciones[_addressInstituto][FIRST_ADDRESS];\r\n        for(uint256 i =0; i<instituto.listSizeCertificados;i++){\r\n            // usersArray[i]=ownerToCerfificado[currentAddress];\r\n            (uint256 certificadoId,) = getCertificadoByOwner(currentAddress);\r\n            usersArray[i]=certificadoId;\r\n            currentAddress=listaCertificadosXInstituciones[_addressInstituto][currentAddress];\r\n        }\r\n        return usersArray;\r\n    }\r\n    \r\n    \r\n}\r\n",
  "sourcePath": "E:/JORGE/UMSA/INF-399/dev/truffle_certificado_nacimiento/contracts/CertificadoNacimiento.sol",
  "compiler": {
    "name": "solc",
    "version": "0.5.16+commit.9c3226ce.Emscripten.clang"
  },
  "schemaVersion": "3.2.5",
  "updatedAt": "2020-12-05T23:51:22.680Z",
  "networkType": "ethereum",
  "devdoc": {
    "methods": {}
  },
  "userdoc": {
    "methods": {}
  }
}